000000000000000000000002000000000000000F200020000000250000004006 SOP    
0000000000000000000000000000A0030000000000000000000000000000020B        
E0AC6824DF9B5713507F300281C8501104000088501103000088501F30028188        
81C878563412F0DEBC9AE0AC6824DF9B5713506F300281C878563412F0DEBC9A        
00D800D100D15061110000D878563412F0DEBC9AE0AC6824DF9B5713505F3002        
0A0000D800D100D15061120000D800D100D150711A0000D800D100D150510900        
1B0000D878563412F0DEBC9AE0AC6824DF9B5713504F300281D800D100D15051        
00D000D100D100B100B150530B0000D800D100D15061130000D800D100D15071        
00D100D15041010000D800D100D100B100B150731C0000D800D100D150410000        
020000D800D100D100B100B150530C0000D800D100D100B100B15063140000D8        
00D100B100B150731D0000D800D100D100B100B15043030000D800D100D15041        
00D800D100D100B100B15043040000D800D100D100B100B15063150000D800D1        
0700008850110600008850110500008800D100D100B100B10091009150570D00        
50130C00008850110B00008850110A0000885011090000885011080000885011        
008850131100008850131000008850130F00008850130E00008850130D000088        
1700008850171600008850171500008850171400008850131300008850131200        
00B10091009150771F0000D800D100D100B100B10091009150771E0000D85017        
00915067170000D800D100D100B100B1009100915067160000D800D100D100B1        
00D100D100B100B10091009100710071507F200000D800D100D100B100B10091        
0091009150570E0000D800D100D100B100B10091009100710071506F180000D8        
00D800D100D100B100B10091009100710071505F0F0000D800D100D100B100B1        
009100710071507F210000D800D100D100B100B10091009100710071505F1000        
00D100D100B100B10091009100710071506F190000D800D100D100B100B10091        
00B100B1009100915047060000D800D100D100B100B1009100915047050000D8        
507F220000D800D100D100B100B10091009100710071505F110000D800D100D1        
00B10091009100710071506F1A0000D800D100D100B100B10091009100710071        
080000D800D100D100B100B10091009100710071504F070000D800D100D100B1        
0091009100710071505F120000D800D100D100B100B10091009100710071504F        
00D800D100D100B100B10091009100710071504F090000D800D100D100B100B1        
009100710071506F1B0000D800D100D100B100B10091009100710071507F2300        
00D100D100B100B10091009100710071504F0A0000D800D100D100B100B10091        
1900008850171800008800D100D100B100B10091009100710071505F130000D8        
501F1E000088501F1D00008850171C00008850171B00008850171A0000885017        
0088501F23000088501F22000088501F21000088501F20000088501F1F000088        
29000088501E28000088501E27000088501F26000088501E25000088501F2400        
501C2E000088501E2D000088501E2C000088501E2B000088501E2A000088501E        
0071507F240000D8501C32000088501C31000088501C30000088501C2F000088        
00B100B10091009100710071507F250000D800D100D100B100B1009100910071        
506F1C0000D800D100D100B100B10091009100710071507F260000D800D100D1        
00B10091009100710071506F1D0000D800D100D100B100B10091009100710071        
270000D800D100D100B100B10091009100710071506F1E0000D800D100D100B1        
0091009100710071506F1F0000D800D100D100B100B10091009100710071507F        
00D800D100D100B100B10091009100710071505F140000D800D100D100B100B1        
009100710071505F160000D800D100D100B100B10091009100710071505F1500        
00D100D100B100B10091009100710071507F280000D800D100D100B100B10091        
00710071505F170000D800D100D100B100B10091009100710071506F200000D8        
00D100B100B10091009100710071504F0B0000D800D100D100B100B100910091        
0071507F290000D800D100D100B100B10091009100710071505F180000D800D1        
00B100B10091009100710071506F210000D800D100D100B100B1009100910071        
504F0D0000D800D100D100B100B10091009100710071504F0C0000D800D100D1        
00B10091009100710071505F190000D800D100D100B100B10091009100710071        
220000D800D100D100B100B10091009100710071507F2A0000D800D100D100B1        
0091009100710071504F0E0000D800D100D100B100B10091009100710071506F        
00D800D100D100B100B10091009100710071504F0F0000D800D100D100B100B1        
009100710071507F2B0000D800D100D100B100B10091009100710071505F1A00        
00D100D100B100B10091009100710071506F230000D800D100D100B100B10091        
1B0000D800D100D100B100B10091009100710071504F100000D85060230000E4        
0091009100710071504F110000D800D100D100B100B10091009100710071505F        
00E400D100D100B100B10091009100710071507F2C0000D800D100D100B100B1        
00D100D100B100B10091009100710071506F240000D850501B0000E450702C00        
1C0000D800D100D100B100B10091009100710071504F120000D85040110000E4        
0091009100710071504F130000D800D100D100B100B10091009100710071505F        
00D800D100D100B100B10091009100710071507F2D0000D800D100D100B100B1        
009100710071504F140000D800D100D100B100B10091009100710071506F2500        
36000088501C35000088501C34000088501C3300008800D100D100B100B10091        
50183B00008850183A000088501839000088501C38000088501837000088501C        
00D850106A01048850106500048850183E00008850183D00008850183C000088        
009100710071506F260000D800D100D100B100B10091009100710071507F2E00        
00D100D100B100B10091009100710071507F2F0000D800D100D100B100B10091        
00710071505F1D0000D800D100D100B100B10091009100710071506F270000D8        
00D100B100B10091009100710071505F1E0000D800D100D100B100B100910091        
0071507F300000D800D100D100B100B10091009100710071505F1F0000D800D1        
00B100B10091009100710071506F280000D800D100D100B100B1009100910071        
504F160000D800D100D100B100B10091009100710071504F150000D800D100D1        
00B10091009100710071505F200000D800D100D100B100B10091009100710071        
290000D800D100D100B100B10091009100710071507F310000D800D100D100B1        
0091009100710071504F170000D800D100D100B100B10091009100710071506F        
00D800D100D100B100B10091009100710071504F180000D800D100D100B100B1        
00000000000000000000000000D100D100B100B10091009100710071505F2100        
E0AC6824DF9B5713503F300281D8500F04000088500F03000088500F30028188        
81D878563412F0DEBC9AE0AC6824DF9B5713502F300281D878563412F0DEBC9A        
6824DF9B5713500F300281D878563412F0DEBC9AE0AC6824DF9B5713501F3002        
08000088500F07000088500F06000088500F0500008878563412F0DEBC9AE0AC        
00D000D100D100B100B10091009100710071503F000000D0500F09000088500F        
009100710071501F000000D000D100D100B100B10091009100710071502F0000        
00D100D100B100B10091009100710071500F000000D000D100D100B100B10091        
00D8500F0E000088500F0D000088500F0C000088500F0B000088500F0A000088        
009100710071502F010000D800D100D100B100B10091009100710071503F0100        
00D100D100B100B10091009100710071501F010000D800D100D100B100B10091        
00710071503F020000D800D100D100B100B10091009100710071500F010000D8        
00D100B100B10091009100710071502F020000D800D100D100B100B100910091        
0071500F020000D800D100D100B100B10091009100710071501F020000D800D1        
500F11000088500F10000088500F0F00008800D100D100B100B1009100910071        
0088500F16000088500F15000088500F14000088500F13000088500F12000088        
502F030000D800D100D100B100B10091009100710071503F030000D8500F1700        
00B10091009100710071501F030000D800D100D100B100B10091009100710071        
040000D800D100D100B100B10091009100710071503F040000D800D100D100B1        
0091009100710071501F040000D800D100D100B100B10091009100710071502F        
00D800D100D100B100B10091009100710071500F030000D800D100D100B100B1        
009100710071503F050000D800D100D100B100B10091009100710071500F0400        
00D100D100B100B10091009100710071502F050000D800D100D100B100B10091        
00710071500F050000D800D100D100B100B10091009100710071501F050000D8        
0088500F1A000088500F19000088500F1800008800D100D100B100B100910091        
20000088500F1F000088500F1E000088500F1D000088500F1C000088500F1B00        
00D800D100D100B100B10091009100710071503F060000D8500065000488500F        
009100710071503F070000D800D100D100B100B10091009100710071502F0600        
00D100D100B100B10091009100710071502F070000D800D100D100B100B10091        
00710071501F070000D800D100D100B100B10091009100710071501F060000D8        
00D100B100B10091009100710071500F060000D800D100D100B100B100910091        
0071502F080000D800D100D100B100B10091009100710071503F080000D800D1        
00B100B10091009100710071501F080000D800D100D100B100B1009100910071        
500F080000D800D100D100B100B10091009100710071500F070000D800D100D1        
00B10091009100710071503F090000D800D100D100B100B10091009100710071        
090000D800D100D100B100B10091009100710071502F090000D800D100D100B1        
0091009100710071500F090000D800D100D100B100B10091009100710071501F        
00D800D100D100B100B10091009100710071503F0A0000D800D100D100B100B1        
009100710071501F0A0000D800D100D100B100B10091009100710071502F0A00        
00D100D100B100B10091009100710071500F0A0000D800D100D100B100B10091        
00710071502F0B0000D800D100D100B100B10091009100710071503F0B0000D8        
00D100B100B10091009100710071501F0B0000D800D100D100B100B100910091        
0071503F0C0000D800D100D100B100B10091009100710071500F0B0000D800D1        
00B100B10091009100710071502F0C0000D800D100D100B100B1009100910071        
500F0C0000D800D100D100B100B10091009100710071501F0C0000D800D100D1        
00B10091009100710071503F0D0000D800D100D100B100B10091009100710071        
0D0000D800D100D100B100B10091009100710071502F0D0000D800D100D100B1        
0091009100710071500F0D0000D800D100D100B100B10091009100710071501F        
00D800D100D100B100B10091009100710071503F0E0000D800D100D100B100B1        
50200E0000E450300E0000E400D100D100B100B10091009100710071502F0E00        
0E0000D850100E0000E400D100D100B100B10091009100710071501F0E0000D8        
0071503F0F0000D850000E0000E400D100D100B100B10091009100710071500F        
00B100B10091009100710071502F0F0000D800D100D100B100B1009100910071        
500F0F0000D800D100D100B100B10091009100710071501F0F0000D800D100D1        
00710071503F100000D850006A01048800D100D100B100B10091009100710071        
00D100B100B10091009100710071502F100000D800D100D100B100B100910091        
0071500F100000D800D100D100B100B10091009100710071501F100000D800D1        
00B100B10091009100710071503F110000D800D100D100B100B1009100910071        
501F110000D800D100D100B100B10091009100710071502F110000D800D100D1        
00B10091009100710071500F110000D800D100D100B100B10091009100710071        
120000D800D100D100B100B10091009100710071503F120000D800D100D100B1        
0091009100710071501F120000D800D100D100B100B10091009100710071502F        
00D800D100D100B100B10091009100710071500F120000D800D100D100B100B1        
009100710071502F130000D800D100D100B100B10091009100710071503F1300        
00D100D100B100B10091009100710071501F130000D800D100D100B100B10091        
00710071503F140000D800D100D100B100B10091009100710071500F130000D8        
00D100B100B10091009100710071502F140000D800D100D100B100B100910091        
0071500F140000D800D100D100B100B10091009100710071501F140000D800D1        
00B100B10091009100710071503F150000D800D100D100B100B1009100910071        
501F150000D800D100D100B100B10091009100710071502F150000D800D100D1        
00B10091009100710071500F150000D800D100D100B100B10091009100710071        
0000000000D100D100B100B10091009100710071503F160000D800D100D100B1        
E0AC6824DF9B5713507F300281C8509104000088509103000088509F30028188        
81C878563412F0DEBC9AE0AC6824DF9B5713506F300281C878563412F0DEBC9A        
00D800D100D15061110000D878563412F0DEBC9AE0AC6824DF9B5713505F3002        
0A0000D800D100D15061120000D800D100D150711A0000D800D100D150510900        
1B0000D878563412F0DEBC9AE0AC6824DF9B5713504F300281D800D100D15051        
00D000D100D100B100B150530B0000D800D100D15061130000D800D100D15071        
00D100D15041010000D800D100D100B100B150731C0000D800D100D150410000        
020000D800D100D100B100B150530C0000D800D100D100B100B15063140000D8        
00D100B100B150731D0000D800D100D100B100B15043030000D800D100D15041        
00D800D100D100B100B15043040000D800D100D100B100B15063150000D800D1        
0700008850910600008850910500008800D100D100B100B10091009150570D00        
50930C00008850910B00008850910A0000885091090000885091080000885091        
008850931100008850931000008850930F00008850930E00008850930D000088        
1700008850971600008850971500008850971400008850931300008850931200        
00B10091009150771F0000D800D100D100B100B10091009150771E0000D85097        
00915067170000D800D100D100B100B1009100915067160000D800D100D100B1        
00D100D100B100B10091009100710071507F200000D800D100D100B100B10091        
0091009150570E0000D800D100D100B100B10091009100710071506F180000D8        
00D800D100D100B100B10091009100710071505F0F0000D800D100D100B100B1        
009100710071507F210000D800D100D100B100B10091009100710071505F1000        
00D100D100B100B10091009100710071506F190000D800D100D100B100B10091        
00B100B1009100915047060000D800D100D100B100B1009100915047050000D8        
507F220000D800D100D100B100B10091009100710071505F110000D800D100D1        
00B10091009100710071506F1A0000D800D100D100B100B10091009100710071        
080000D800D100D100B100B10091009100710071504F070000D800D100D100B1        
0091009100710071505F120000D800D100D100B100B10091009100710071504F        
00D800D100D100B100B10091009100710071504F090000D800D100D100B100B1        
009100710071506F1B0000D800D100D100B100B10091009100710071507F2300        
00D100D100B100B10091009100710071504F0A0000D800D100D100B100B10091        
1900008850971800008800D100D100B100B10091009100710071505F130000D8        
509F1E000088509F1D00008850971C00008850971B00008850971A0000885097        
0088509F23000088509F22000088509F21000088509F20000088509F1F000088        
29000088509E28000088509E27000088509F26000088509E25000088509F2400        
509C2E000088509E2D000088509E2C000088509E2B000088509E2A000088509E        
0071507F240000D8509C32000088509C31000088509C30000088509C2F000088        
00B100B10091009100710071507F250000D800D100D100B100B1009100910071        
506F1C0000D800D100D100B100B10091009100710071507F260000D800D100D1        
00B10091009100710071506F1D0000D800D100D100B100B10091009100710071        
270000D800D100D100B100B10091009100710071506F1E0000D800D100D100B1        
0091009100710071506F1F0000D800D100D100B100B10091009100710071507F        
00D800D100D100B100B10091009100710071505F140000D800D100D100B100B1        
009100710071505F160000D800D100D100B100B10091009100710071505F1500        
00D100D100B100B10091009100710071507F280000D800D100D100B100B10091        
00710071505F170000D800D100D100B100B10091009100710071506F200000D8        
00D100B100B10091009100710071504F0B0000D800D100D100B100B100910091        
0071507F290000D800D100D100B100B10091009100710071505F180000D800D1        
00B100B10091009100710071506F210000D800D100D100B100B1009100910071        
504F0D0000D800D100D100B100B10091009100710071504F0C0000D800D100D1        
00B10091009100710071505F190000D800D100D100B100B10091009100710071        
220000D800D100D100B100B10091009100710071507F2A0000D800D100D100B1        
0091009100710071504F0E0000D800D100D100B100B10091009100710071506F        
00D800D100D100B100B10091009100710071504F0F0000D800D100D100B100B1        
009100710071507F2B0000D800D100D100B100B10091009100710071505F1A00        
00D100D100B100B10091009100710071506F230000D800D100D100B100B10091        
1B0000D800D100D100B100B10091009100710071504F100000D85060230000E4        
0091009100710071504F110000D800D100D100B100B10091009100710071505F        
00E400D100D100B100B10091009100710071507F2C0000D800D100D100B100B1        
00D100D100B100B10091009100710071506F240000D850501B0000E450702C00        
1C0000D800D100D100B100B10091009100710071504F120000D85040110000E4        
0091009100710071504F130000D800D100D100B100B10091009100710071505F        
00D800D100D100B100B10091009100710071507F2D0000D800D100D100B100B1        
009100710071504F140000D800D100D100B100B10091009100710071506F2500        
36000088509C35000088509C34000088509C3300008800D100D100B100B10091        
50983B00008850983A000088509839000088509C38000088509837000088509C        
00D850906A01048850906500048850983E00008850983D00008850983C000088        
009100710071506F260000D800D100D100B100B10091009100710071507F2E00        
00D100D100B100B10091009100710071507F2F0000D800D100D100B100B10091        
00710071505F1D0000D800D100D100B100B10091009100710071506F270000D8        
00D100B100B10091009100710071505F1E0000D800D100D100B100B100910091        
0071507F300000D800D100D100B100B10091009100710071505F1F0000D800D1        
00B100B10091009100710071506F280000D800D100D100B100B1009100910071        
504F160000D800D100D100B100B10091009100710071504F150000D800D100D1        
00B10091009100710071505F200000D800D100D100B100B10091009100710071        
290000D800D100D100B100B10091009100710071507F310000D800D100D100B1        
0091009100710071504F170000D800D100D100B100B10091009100710071506F        
00D800D100D100B100B10091009100710071504F180000D800D100D100B100B1        
00000000000000000000000000D100D100B100B10091009100710071505F2100        
E0AC6824DF9B5713503F300281D8508F04000088508F03000088508F30028188        
81D878563412F0DEBC9AE0AC6824DF9B5713502F300281D878563412F0DEBC9A        
6824DF9B5713500F300281D878563412F0DEBC9AE0AC6824DF9B5713501F3002        
08000088508F07000088508F06000088508F0500008878563412F0DEBC9AE0AC        
00D000D100D100B100B10091009100710071503F000000D0508F09000088508F        
009100710071501F000000D000D100D100B100B10091009100710071502F0000        
00D100D100B100B10091009100710071500F000000D000D100D100B100B10091        
00D8508F0E000088508F0D000088508F0C000088508F0B000088508F0A000088        
009100710071502F010000D800D100D100B100B10091009100710071503F0100        
00D100D100B100B10091009100710071501F010000D800D100D100B100B10091        
00710071503F020000D800D100D100B100B10091009100710071500F010000D8        
00D100B100B10091009100710071502F020000D800D100D100B100B100910091        
0071500F020000D800D100D100B100B10091009100710071501F020000D800D1        
508F11000088508F10000088508F0F00008800D100D100B100B1009100910071        
0088508F16000088508F15000088508F14000088508F13000088508F12000088        
502F030000D800D100D100B100B10091009100710071503F030000D8508F1700        
00B10091009100710071501F030000D800D100D100B100B10091009100710071        
040000D800D100D100B100B10091009100710071503F040000D800D100D100B1        
0091009100710071501F040000D800D100D100B100B10091009100710071502F        
00D800D100D100B100B10091009100710071500F030000D800D100D100B100B1        
009100710071503F050000D800D100D100B100B10091009100710071500F0400        
00D100D100B100B10091009100710071502F050000D800D100D100B100B10091        
00710071500F050000D800D100D100B100B10091009100710071501F050000D8        
0088508F1A000088508F19000088508F1800008800D100D100B100B100910091        
20000088508F1F000088508F1E000088508F1D000088508F1C000088508F1B00     EOP
000000000000000000000002000000000000000F200020000000250000004006 SOP    
0000000000000000000000000000A0030000000000000000000000010000020B        
009100710071503F070000D800D100D100B100B10091009100710071502F0600        
00D100D100B100B10091009100710071502F070000D800D100D100B100B10091        
00710071501F070000D800D100D100B100B10091009100710071501F060000D8        
00D100B100B10091009100710071500F060000D800D100D100B100B100910091        
0071502F080000D800D100D100B100B10091009100710071503F080000D800D1        
00B100B10091009100710071501F080000D800D100D100B100B1009100910071        
500F080000D800D100D100B100B10091009100710071500F070000D800D100D1        
00B10091009100710071503F090000D800D100D100B100B10091009100710071        
090000D800D100D100B100B10091009100710071502F090000D800D100D100B1        
0091009100710071500F090000D800D100D100B100B10091009100710071501F        
00D800D100D100B100B10091009100710071503F0A0000D800D100D100B100B1        
009100710071501F0A0000D800D100D100B100B10091009100710071502F0A00        
00D100D100B100B10091009100710071500F0A0000D800D100D100B100B10091        
00710071502F0B0000D800D100D100B100B10091009100710071503F0B0000D8        
00D100B100B10091009100710071501F0B0000D800D100D100B100B100910091        
0071503F0C0000D800D100D100B100B10091009100710071500F0B0000D800D1        
00B100B10091009100710071502F0C0000D800D100D100B100B1009100910071        
500F0C0000D800D100D100B100B10091009100710071501F0C0000D800D100D1        
00B10091009100710071503F0D0000D800D100D100B100B10091009100710071        
0D0000D800D100D100B100B10091009100710071502F0D0000D800D100D100B1        
0091009100710071500F0D0000D800D100D100B100B10091009100710071501F        
00D800D100D100B100B10091009100710071503F0E0000D800D100D100B100B1        
50200E0000E450300E0000E400D100D100B100B10091009100710071502F0E00        
0E0000D850100E0000E400D100D100B100B10091009100710071501F0E0000D8        
0071503F0F0000D850000E0000E400D100D100B100B10091009100710071500F        
00B100B10091009100710071502F0F0000D800D100D100B100B1009100910071        
500F0F0000D800D100D100B100B10091009100710071501F0F0000D800D100D1        
00710071503F100000D850806A01048800D100D100B100B10091009100710071        
00D100B100B10091009100710071502F100000D800D100D100B100B100910091        
0071500F100000D800D100D100B100B10091009100710071501F100000D800D1        
00B100B10091009100710071503F110000D800D100D100B100B1009100910071        
501F110000D800D100D100B100B10091009100710071502F110000D800D100D1        
00B10091009100710071500F110000D800D100D100B100B10091009100710071        
120000D800D100D100B100B10091009100710071503F120000D800D100D100B1        
0091009100710071501F120000D800D100D100B100B10091009100710071502F        
00D800D100D100B100B10091009100710071500F120000D800D100D100B100B1        
009100710071502F130000D800D100D100B100B10091009100710071503F1300        
00D100D100B100B10091009100710071501F130000D800D100D100B100B10091        
00710071503F140000D800D100D100B100B10091009100710071500F130000D8        
00D100B100B10091009100710071502F140000D800D100D100B100B100910091        
0071500F140000D800D100D100B100B10091009100710071501F140000D800D1        
00B100B10091009100710071503F150000D800D100D100B100B1009100910071        
501F150000D800D100D100B100B10091009100710071502F150000D800D100D1        
00B10091009100710071500F150000D800D100D100B100B10091009100710071        
0000000000D100D100B100B10091009100710071503F160000D800D100D100B1        
E0AC6824DF9B5713507F300281C8501104000088501103000088501F30028188        
81C878563412F0DEBC9AE0AC6824DF9B5713506F300281C878563412F0DEBC9A        
00D800D100D15061110000D878563412F0DEBC9AE0AC6824DF9B5713505F3002        
0A0000D800D100D15061120000D800D100D150711A0000D800D100D150510900        
1B0000D878563412F0DEBC9AE0AC6824DF9B5713504F300281D800D100D15051        
00D000D100D100B100B150530B0000D800D100D15061130000D800D100D15071        
00D100D15041010000D800D100D100B100B150731C0000D800D100D150410000        
020000D800D100D100B100B150530C0000D800D100D100B100B15063140000D8        
00D100B100B150731D0000D800D100D100B100B15043030000D800D100D15041        
00D800D100D100B100B15043040000D800D100D100B100B15063150000D800D1        
0700008850110600008850110500008800D100D100B100B10091009150570D00        
50130C00008850110B00008850110A0000885011090000885011080000885011        
008850131100008850131000008850130F00008850130E00008850130D000088        
1700008850171600008850171500008850171400008850131300008850131200        
00B10091009150771F0000D800D100D100B100B10091009150771E0000D85017        
00915067170000D800D100D100B100B1009100915067160000D800D100D100B1        
00D100D100B100B10091009100710071507F200000D800D100D100B100B10091        
0091009150570E0000D800D100D100B100B10091009100710071506F180000D8        
00D800D100D100B100B10091009100710071505F0F0000D800D100D100B100B1        
009100710071507F210000D800D100D100B100B10091009100710071505F1000        
00D100D100B100B10091009100710071506F190000D800D100D100B100B10091        
00B100B1009100915047060000D800D100D100B100B1009100915047050000D8        
507F220000D800D100D100B100B10091009100710071505F110000D800D100D1        
00B10091009100710071506F1A0000D800D100D100B100B10091009100710071        
080000D800D100D100B100B10091009100710071504F070000D800D100D100B1        
0091009100710071505F120000D800D100D100B100B10091009100710071504F        
00D800D100D100B100B10091009100710071504F090000D800D100D100B100B1        
009100710071506F1B0000D800D100D100B100B10091009100710071507F2300        
00D100D100B100B10091009100710071504F0A0000D800D100D100B100B10091        
1900008850171800008800D100D100B100B10091009100710071505F130000D8        
501F1E000088501F1D00008850171C00008850171B00008850171A0000885017        
0088501F23000088501F22000088501F21000088501F20000088501F1F000088        
29000088501E28000088501E27000088501F26000088501E25000088501F2400        
501C2E000088501E2D000088501E2C000088501E2B000088501E2A000088501E        
0071507F240000D8501C32000088501C31000088501C30000088501C2F000088        
00B100B10091009100710071507F250000D800D100D100B100B1009100910071        
506F1C0000D800D100D100B100B10091009100710071507F260000D800D100D1        
00B10091009100710071506F1D0000D800D100D100B100B10091009100710071        
270000D800D100D100B100B10091009100710071506F1E0000D800D100D100B1        
0091009100710071506F1F0000D800D100D100B100B10091009100710071507F        
00D800D100D100B100B10091009100710071505F140000D800D100D100B100B1        
009100710071505F160000D800D100D100B100B10091009100710071505F1500        
00D100D100B100B10091009100710071507F280000D800D100D100B100B10091        
00710071505F170000D800D100D100B100B10091009100710071506F200000D8        
00D100B100B10091009100710071504F0B0000D800D100D100B100B100910091        
0071507F290000D800D100D100B100B10091009100710071505F180000D800D1        
00B100B10091009100710071506F210000D800D100D100B100B1009100910071        
504F0D0000D800D100D100B100B10091009100710071504F0C0000D800D100D1        
00B10091009100710071505F190000D800D100D100B100B10091009100710071        
220000D800D100D100B100B10091009100710071507F2A0000D800D100D100B1        
0091009100710071504F0E0000D800D100D100B100B10091009100710071506F        
00D800D100D100B100B10091009100710071504F0F0000D800D100D100B100B1        
009100710071507F2B0000D800D100D100B100B10091009100710071505F1A00        
00D100D100B100B10091009100710071506F230000D800D100D100B100B10091        
1B0000D800D100D100B100B10091009100710071504F100000D85060230000E4        
0091009100710071504F110000D800D100D100B100B10091009100710071505F        
00E400D100D100B100B10091009100710071507F2C0000D800D100D100B100B1        
00D100D100B100B10091009100710071506F240000D850501B0000E450702C00        
1C0000D800D100D100B100B10091009100710071504F120000D85040110000E4        
0091009100710071504F130000D800D100D100B100B10091009100710071505F        
00D800D100D100B100B10091009100710071507F2D0000D800D100D100B100B1        
009100710071504F140000D800D100D100B100B10091009100710071506F2500        
36000088501C35000088501C34000088501C3300008800D100D100B100B10091        
50183B00008850183A000088501839000088501C38000088501837000088501C        
00D850106A01048850106500048850183E00008850183D00008850183C000088        
009100710071506F260000D800D100D100B100B10091009100710071507F2E00        
00D100D100B100B10091009100710071507F2F0000D800D100D100B100B10091        
00710071505F1D0000D800D100D100B100B10091009100710071506F270000D8        
00D100B100B10091009100710071505F1E0000D800D100D100B100B100910091        
0071507F300000D800D100D100B100B10091009100710071505F1F0000D800D1        
00B100B10091009100710071506F280000D800D100D100B100B1009100910071        
504F160000D800D100D100B100B10091009100710071504F150000D800D100D1        
00B10091009100710071505F200000D800D100D100B100B10091009100710071        
290000D800D100D100B100B10091009100710071507F310000D800D100D100B1        
0091009100710071504F170000D800D100D100B100B10091009100710071506F        
00D800D100D100B100B10091009100710071504F180000D800D100D100B100B1        
00000000000000000000000000D100D100B100B10091009100710071505F2100        
E0AC6824DF9B5713503F300281D8500F04000088500F03000088500F30028188        
81D878563412F0DEBC9AE0AC6824DF9B5713502F300281D878563412F0DEBC9A        
6824DF9B5713500F300281D878563412F0DEBC9AE0AC6824DF9B5713501F3002        
08000088500F07000088500F06000088500F0500008878563412F0DEBC9AE0AC        
00D000D100D100B100B10091009100710071503F000000D0500F09000088500F        
009100710071501F000000D000D100D100B100B10091009100710071502F0000        
00D100D100B100B10091009100710071500F000000D000D100D100B100B10091        
00D8500F0E000088500F0D000088500F0C000088500F0B000088500F0A000088        
009100710071502F010000D800D100D100B100B10091009100710071503F0100        
00D100D100B100B10091009100710071501F010000D800D100D100B100B10091        
00710071503F020000D800D100D100B100B10091009100710071500F010000D8        
00D100B100B10091009100710071502F020000D800D100D100B100B100910091        
0071500F020000D800D100D100B100B10091009100710071501F020000D800D1        
500F11000088500F10000088500F0F00008800D100D100B100B1009100910071        
0088500F16000088500F15000088500F14000088500F13000088500F12000088        
502F030000D800D100D100B100B10091009100710071503F030000D8500F1700        
00B10091009100710071501F030000D800D100D100B100B10091009100710071        
040000D800D100D100B100B10091009100710071503F040000D800D100D100B1        
0091009100710071501F040000D800D100D100B100B10091009100710071502F        
00D800D100D100B100B10091009100710071500F030000D800D100D100B100B1        
009100710071503F050000D800D100D100B100B10091009100710071500F0400        
00D100D100B100B10091009100710071502F050000D800D100D100B100B10091        
00710071500F050000D800D100D100B100B10091009100710071501F050000D8        
0088500F1A000088500F19000088500F1800008800D100D100B100B100910091        
20000088500F1F000088500F1E000088500F1D000088500F1C000088500F1B00        
00D800D100D100B100B10091009100710071503F060000D8500065000488500F        
009100710071503F070000D800D100D100B100B10091009100710071502F0600        
00D100D100B100B10091009100710071502F070000D800D100D100B100B10091        
00710071501F070000D800D100D100B100B10091009100710071501F060000D8        
00D100B100B10091009100710071500F060000D800D100D100B100B100910091        
0071502F080000D800D100D100B100B10091009100710071503F080000D800D1        
00B100B10091009100710071501F080000D800D100D100B100B1009100910071        
500F080000D800D100D100B100B10091009100710071500F070000D800D100D1        
00B10091009100710071503F090000D800D100D100B100B10091009100710071        
090000D800D100D100B100B10091009100710071502F090000D800D100D100B1        
0091009100710071500F090000D800D100D100B100B10091009100710071501F        
00D800D100D100B100B10091009100710071503F0A0000D800D100D100B100B1        
009100710071501F0A0000D800D100D100B100B10091009100710071502F0A00        
00D100D100B100B10091009100710071500F0A0000D800D100D100B100B10091        
00710071502F0B0000D800D100D100B100B10091009100710071503F0B0000D8        
00D100B100B10091009100710071501F0B0000D800D100D100B100B100910091        
0071503F0C0000D800D100D100B100B10091009100710071500F0B0000D800D1        
00B100B10091009100710071502F0C0000D800D100D100B100B1009100910071        
500F0C0000D800D100D100B100B10091009100710071501F0C0000D800D100D1        
00B10091009100710071503F0D0000D800D100D100B100B10091009100710071        
0D0000D800D100D100B100B10091009100710071502F0D0000D800D100D100B1        
0091009100710071500F0D0000D800D100D100B100B10091009100710071501F        
00D800D100D100B100B10091009100710071503F0E0000D800D100D100B100B1        
50200E0000E450300E0000E400D100D100B100B10091009100710071502F0E00        
0E0000D850100E0000E400D100D100B100B10091009100710071501F0E0000D8        
0071503F0F0000D850000E0000E400D100D100B100B10091009100710071500F        
00B100B10091009100710071502F0F0000D800D100D100B100B1009100910071        
500F0F0000D800D100D100B100B10091009100710071501F0F0000D800D100D1        
00710071503F100000D850006A01048800D100D100B100B10091009100710071        
00D100B100B10091009100710071502F100000D800D100D100B100B100910091        
0071500F100000D800D100D100B100B10091009100710071501F100000D800D1        
00B100B10091009100710071503F110000D800D100D100B100B1009100910071        
501F110000D800D100D100B100B10091009100710071502F110000D800D100D1        
00B10091009100710071500F110000D800D100D100B100B10091009100710071        
120000D800D100D100B100B10091009100710071503F120000D800D100D100B1        
0091009100710071501F120000D800D100D100B100B10091009100710071502F        
00D800D100D100B100B10091009100710071500F120000D800D100D100B100B1        
009100710071502F130000D800D100D100B100B10091009100710071503F1300        
00D100D100B100B10091009100710071501F130000D800D100D100B100B10091        
00710071503F140000D800D100D100B100B10091009100710071500F130000D8        
00D100B100B10091009100710071502F140000D800D100D100B100B100910091        
0071500F140000D800D100D100B100B10091009100710071501F140000D800D1        
00B100B10091009100710071503F150000D800D100D100B100B1009100910071        
501F150000D800D100D100B100B10091009100710071502F150000D800D100D1        
00B10091009100710071500F150000D800D100D100B100B10091009100710071        
0000000000D100D100B100B10091009100710071503F160000D800D100D100B1        
E0AC6824DF9B5713507F300281C8509104000088509103000088509F30028188        
81C878563412F0DEBC9AE0AC6824DF9B5713506F300281C878563412F0DEBC9A        
00D800D100D15061110000D878563412F0DEBC9AE0AC6824DF9B5713505F3002        
0A0000D800D100D15061120000D800D100D150711A0000D800D100D150510900        
1B0000D878563412F0DEBC9AE0AC6824DF9B5713504F300281D800D100D15051        
00D000D100D100B100B150530B0000D800D100D15061130000D800D100D15071        
00D100D15041010000D800D100D100B100B150731C0000D800D100D150410000        
020000D800D100D100B100B150530C0000D800D100D100B100B15063140000D8        
00D100B100B150731D0000D800D100D100B100B15043030000D800D100D15041        
00D800D100D100B100B15043040000D800D100D100B100B15063150000D800D1        
0700008850910600008850910500008800D100D100B100B10091009150570D00        
50930C00008850910B00008850910A0000885091090000885091080000885091        
008850931100008850931000008850930F00008850930E00008850930D000088        
1700008850971600008850971500008850971400008850931300008850931200        
00B10091009150771F0000D800D100D100B100B10091009150771E0000D85097        
00915067170000D800D100D100B100B1009100915067160000D800D100D100B1        
00D100D100B100B10091009100710071507F200000D800D100D100B100B10091        
0091009150570E0000D800D100D100B100B10091009100710071506F180000D8        
00D800D100D100B100B10091009100710071505F0F0000D800D100D100B100B1        
009100710071507F210000D800D100D100B100B10091009100710071505F1000        
00D100D100B100B10091009100710071506F190000D800D100D100B100B10091        
00B100B1009100915047060000D800D100D100B100B1009100915047050000D8        
507F220000D800D100D100B100B10091009100710071505F110000D800D100D1        
00B10091009100710071506F1A0000D800D100D100B100B10091009100710071        
080000D800D100D100B100B10091009100710071504F070000D800D100D100B1        
0091009100710071505F120000D800D100D100B100B10091009100710071504F        
00D800D100D100B100B10091009100710071504F090000D800D100D100B100B1        
009100710071506F1B0000D800D100D100B100B10091009100710071507F2300        
00D100D100B100B10091009100710071504F0A0000D800D100D100B100B10091        
1900008850971800008800D100D100B100B10091009100710071505F130000D8        
509F1E000088509F1D00008850971C00008850971B00008850971A0000885097        
0088509F23000088509F22000088509F21000088509F20000088509F1F000088        
29000088509E28000088509E27000088509F26000088509E25000088509F2400        
509C2E000088509E2D000088509E2C000088509E2B000088509E2A000088509E        
0071507F240000D8509C32000088509C31000088509C30000088509C2F000088        
00B100B10091009100710071507F250000D800D100D100B100B1009100910071        
506F1C0000D800D100D100B100B10091009100710071507F260000D800D100D1        
00B10091009100710071506F1D0000D800D100D100B100B10091009100710071        
270000D800D100D100B100B10091009100710071506F1E0000D800D100D100B1        
0091009100710071506F1F0000D800D100D100B100B10091009100710071507F        
00D800D100D100B100B10091009100710071505F140000D800D100D100B100B1        
009100710071505F160000D800D100D100B100B10091009100710071505F1500        
00D100D100B100B10091009100710071507F280000D800D100D100B100B10091        
00710071505F170000D800D100D100B100B10091009100710071506F200000D8        
00D100B100B10091009100710071504F0B0000D800D100D100B100B100910091        
0071507F290000D800D100D100B100B10091009100710071505F180000D800D1        
00B100B10091009100710071506F210000D800D100D100B100B1009100910071        
504F0D0000D800D100D100B100B10091009100710071504F0C0000D800D100D1        
00B10091009100710071505F190000D800D100D100B100B10091009100710071        
220000D800D100D100B100B10091009100710071507F2A0000D800D100D100B1        
0091009100710071504F0E0000D800D100D100B100B10091009100710071506F        
00D800D100D100B100B10091009100710071504F0F0000D800D100D100B100B1        
009100710071507F2B0000D800D100D100B100B10091009100710071505F1A00        
00D100D100B100B10091009100710071506F230000D800D100D100B100B10091        
1B0000D800D100D100B100B10091009100710071504F100000D85060230000E4     EOP
000000000000000000000002000000000000000F200020000000250000004006 SOP    
0000000000000000000000000000A0030000000000000000000000020000020B        
00E400D100D100B100B10091009100710071507F2C0000D800D100D100B100B1        
00D100D100B100B10091009100710071506F240000D850501B0000E450702C00        
1C0000D800D100D100B100B10091009100710071504F120000D85040110000E4        
0091009100710071504F130000D800D100D100B100B10091009100710071505F        
00D800D100D100B100B10091009100710071507F2D0000D800D100D100B100B1        
009100710071504F140000D800D100D100B100B10091009100710071506F2500        
36000088509C35000088509C34000088509C3300008800D100D100B100B10091        
50983B00008850983A000088509839000088509C38000088509837000088509C        
00D850906A01048850906500048850983E00008850983D00008850983C000088        
009100710071506F260000D800D100D100B100B10091009100710071507F2E00        
00D100D100B100B10091009100710071507F2F0000D800D100D100B100B10091        
00710071505F1D0000D800D100D100B100B10091009100710071506F270000D8        
00D100B100B10091009100710071505F1E0000D800D100D100B100B100910091        
0071507F300000D800D100D100B100B10091009100710071505F1F0000D800D1        
00B100B10091009100710071506F280000D800D100D100B100B1009100910071        
504F160000D800D100D100B100B10091009100710071504F150000D800D100D1        
00B10091009100710071505F200000D800D100D100B100B10091009100710071        
290000D800D100D100B100B10091009100710071507F310000D800D100D100B1        
0091009100710071504F170000D800D100D100B100B10091009100710071506F        
00D800D100D100B100B10091009100710071504F180000D800D100D100B100B1        
00000000000000000000000000D100D100B100B10091009100710071505F2100        
E0AC6824DF9B5713503F300281D8508F04000088508F03000088508F30028188        
81D878563412F0DEBC9AE0AC6824DF9B5713502F300281D878563412F0DEBC9A        
6824DF9B5713500F300281D878563412F0DEBC9AE0AC6824DF9B5713501F3002        
08000088508F07000088508F06000088508F0500008878563412F0DEBC9AE0AC        
00D000D100D100B100B10091009100710071503F000000D0508F09000088508F        
009100710071501F000000D000D100D100B100B10091009100710071502F0000        
00D100D100B100B10091009100710071500F000000D000D100D100B100B10091        
00D8508F0E000088508F0D000088508F0C000088508F0B000088508F0A000088        
009100710071502F010000D800D100D100B100B10091009100710071503F0100        
00D100D100B100B10091009100710071501F010000D800D100D100B100B10091        
00710071503F020000D800D100D100B100B10091009100710071500F010000D8        
00D100B100B10091009100710071502F020000D800D100D100B100B100910091        
0071500F020000D800D100D100B100B10091009100710071501F020000D800D1        
508F11000088508F10000088508F0F00008800D100D100B100B1009100910071        
0088508F16000088508F15000088508F14000088508F13000088508F12000088        
502F030000D800D100D100B100B10091009100710071503F030000D8508F1700        
00B10091009100710071501F030000D800D100D100B100B10091009100710071        
040000D800D100D100B100B10091009100710071503F040000D800D100D100B1        
0091009100710071501F040000D800D100D100B100B10091009100710071502F        
00D800D100D100B100B10091009100710071500F030000D800D100D100B100B1        
009100710071503F050000D800D100D100B100B10091009100710071500F0400        
00D100D100B100B10091009100710071502F050000D800D100D100B100B10091        
00710071500F050000D800D100D100B100B10091009100710071501F050000D8        
0088508F1A000088508F19000088508F1800008800D100D100B100B100910091        
20000088508F1F000088508F1E000088508F1D000088508F1C000088508F1B00        
00D800D100D100B100B10091009100710071503F060000D8508065000488508F        
009100710071503F070000D800D100D100B100B10091009100710071502F0600        
00D100D100B100B10091009100710071502F070000D800D100D100B100B10091        
00710071501F070000D800D100D100B100B10091009100710071501F060000D8        
00D100B100B10091009100710071500F060000D800D100D100B100B100910091        
0071502F080000D800D100D100B100B10091009100710071503F080000D800D1        
00B100B10091009100710071501F080000D800D100D100B100B1009100910071        
500F080000D800D100D100B100B10091009100710071500F070000D800D100D1        
00B10091009100710071503F090000D800D100D100B100B10091009100710071        
090000D800D100D100B100B10091009100710071502F090000D800D100D100B1        
0091009100710071500F090000D800D100D100B100B10091009100710071501F        
00D800D100D100B100B10091009100710071503F0A0000D800D100D100B100B1        
009100710071501F0A0000D800D100D100B100B10091009100710071502F0A00        
00D100D100B100B10091009100710071500F0A0000D800D100D100B100B10091        
00710071502F0B0000D800D100D100B100B10091009100710071503F0B0000D8        
00D100B100B10091009100710071501F0B0000D800D100D100B100B100910091        
0071503F0C0000D800D100D100B100B10091009100710071500F0B0000D800D1        
00B100B10091009100710071502F0C0000D800D100D100B100B1009100910071        
500F0C0000D800D100D100B100B10091009100710071501F0C0000D800D100D1        
00B10091009100710071503F0D0000D800D100D100B100B10091009100710071        
0D0000D800D100D100B100B10091009100710071502F0D0000D800D100D100B1        
0091009100710071500F0D0000D800D100D100B100B10091009100710071501F        
00D800D100D100B100B10091009100710071503F0E0000D800D100D100B100B1        
50200E0000E450300E0000E400D100D100B100B10091009100710071502F0E00        
0E0000D850100E0000E400D100D100B100B10091009100710071501F0E0000D8        
0071503F0F0000D850000E0000E400D100D100B100B10091009100710071500F        
00B100B10091009100710071502F0F0000D800D100D100B100B1009100910071        
500F0F0000D800D100D100B100B10091009100710071501F0F0000D800D100D1        
00710071503F100000D850806A01048800D100D100B100B10091009100710071        
00D100B100B10091009100710071502F100000D800D100D100B100B100910091        
0071500F100000D800D100D100B100B10091009100710071501F100000D800D1        
00B100B10091009100710071503F110000D800D100D100B100B1009100910071        
501F110000D800D100D100B100B10091009100710071502F110000D800D100D1        
00B10091009100710071500F110000D800D100D100B100B10091009100710071        
120000D800D100D100B100B10091009100710071503F120000D800D100D100B1        
0091009100710071501F120000D800D100D100B100B10091009100710071502F        
00D800D100D100B100B10091009100710071500F120000D800D100D100B100B1        
009100710071502F130000D800D100D100B100B10091009100710071503F1300        
00D100D100B100B10091009100710071501F130000D800D100D100B100B10091        
00710071503F140000D800D100D100B100B10091009100710071500F130000D8        
00D100B100B10091009100710071502F140000D800D100D100B100B100910091        
0071500F140000D800D100D100B100B10091009100710071501F140000D800D1        
00B100B10091009100710071503F150000D800D100D100B100B1009100910071        
501F150000D800D100D100B100B10091009100710071502F150000D800D100D1        
00B10091009100710071500F150000D800D100D100B100B10091009100710071        
0000000000D100D100B100B10091009100710071503F160000D800D100D100B1        
E0AC6824DF9B5713507F300281C8501104000088501103000088501F30028188        
81C878563412F0DEBC9AE0AC6824DF9B5713506F300281C878563412F0DEBC9A        
00D800D100D15061110000D878563412F0DEBC9AE0AC6824DF9B5713505F3002        
0A0000D800D100D15061120000D800D100D150711A0000D800D100D150510900        
1B0000D878563412F0DEBC9AE0AC6824DF9B5713504F300281D800D100D15051        
00D000D100D100B100B150530B0000D800D100D15061130000D800D100D15071        
00D100D15041010000D800D100D100B100B150731C0000D800D100D150410000        
020000D800D100D100B100B150530C0000D800D100D100B100B15063140000D8        
00D100B100B150731D0000D800D100D100B100B15043030000D800D100D15041        
00D800D100D100B100B15043040000D800D100D100B100B15063150000D800D1        
0700008850110600008850110500008800D100D100B100B10091009150570D00        
50130C00008850110B00008850110A0000885011090000885011080000885011        
008850131100008850131000008850130F00008850130E00008850130D000088        
1700008850171600008850171500008850171400008850131300008850131200        
00B10091009150771F0000D800D100D100B100B10091009150771E0000D85017        
00915067170000D800D100D100B100B1009100915067160000D800D100D100B1        
00D100D100B100B10091009100710071507F200000D800D100D100B100B10091        
0091009150570E0000D800D100D100B100B10091009100710071506F180000D8        
00D800D100D100B100B10091009100710071505F0F0000D800D100D100B100B1        
009100710071507F210000D800D100D100B100B10091009100710071505F1000        
00D100D100B100B10091009100710071506F190000D800D100D100B100B10091        
00B100B1009100915047060000D800D100D100B100B1009100915047050000D8        
507F220000D800D100D100B100B10091009100710071505F110000D800D100D1        
00B10091009100710071506F1A0000D800D100D100B100B10091009100710071        
080000D800D100D100B100B10091009100710071504F070000D800D100D100B1        
0091009100710071505F120000D800D100D100B100B10091009100710071504F        
00D800D100D100B100B10091009100710071504F090000D800D100D100B100B1        
009100710071506F1B0000D800D100D100B100B10091009100710071507F2300        
00D100D100B100B10091009100710071504F0A0000D800D100D100B100B10091        
1900008850171800008800D100D100B100B10091009100710071505F130000D8        
501F1E000088501F1D00008850171C00008850171B00008850171A0000885017        
0088501F23000088501F22000088501F21000088501F20000088501F1F000088        
29000088501E28000088501E27000088501F26000088501E25000088501F2400        
501C2E000088501E2D000088501E2C000088501E2B000088501E2A000088501E        
0071507F240000D8501C32000088501C31000088501C30000088501C2F000088        
00B100B10091009100710071507F250000D800D100D100B100B1009100910071        
506F1C0000D800D100D100B100B10091009100710071507F260000D800D100D1        
00B10091009100710071506F1D0000D800D100D100B100B10091009100710071        
270000D800D100D100B100B10091009100710071506F1E0000D800D100D100B1        
0091009100710071506F1F0000D800D100D100B100B10091009100710071507F        
00D800D100D100B100B10091009100710071505F140000D800D100D100B100B1        
009100710071505F160000D800D100D100B100B10091009100710071505F1500        
00D100D100B100B10091009100710071507F280000D800D100D100B100B10091        
00710071505F170000D800D100D100B100B10091009100710071506F200000D8        
00D100B100B10091009100710071504F0B0000D800D100D100B100B100910091        
0071507F290000D800D100D100B100B10091009100710071505F180000D800D1        
00B100B10091009100710071506F210000D800D100D100B100B1009100910071        
504F0D0000D800D100D100B100B10091009100710071504F0C0000D800D100D1        
00B10091009100710071505F190000D800D100D100B100B10091009100710071        
220000D800D100D100B100B10091009100710071507F2A0000D800D100D100B1        
0091009100710071504F0E0000D800D100D100B100B10091009100710071506F        
00D800D100D100B100B10091009100710071504F0F0000D800D100D100B100B1        
009100710071507F2B0000D800D100D100B100B10091009100710071505F1A00        
00D100D100B100B10091009100710071506F230000D800D100D100B100B10091        
1B0000D800D100D100B100B10091009100710071504F100000D85060230000E4        
0091009100710071504F110000D800D100D100B100B10091009100710071505F        
00E400D100D100B100B10091009100710071507F2C0000D800D100D100B100B1        
00D100D100B100B10091009100710071506F240000D850501B0000E450702C00        
1C0000D800D100D100B100B10091009100710071504F120000D85040110000E4        
0091009100710071504F130000D800D100D100B100B10091009100710071505F        
00D800D100D100B100B10091009100710071507F2D0000D800D100D100B100B1        
009100710071504F140000D800D100D100B100B10091009100710071506F2500        
36000088501C35000088501C34000088501C3300008800D100D100B100B10091        
50183B00008850183A000088501839000088501C38000088501837000088501C        
00D850106A01048850106500048850183E00008850183D00008850183C000088        
009100710071506F260000D800D100D100B100B10091009100710071507F2E00        
00D100D100B100B10091009100710071507F2F0000D800D100D100B100B10091        
00710071505F1D0000D800D100D100B100B10091009100710071506F270000D8        
00D100B100B10091009100710071505F1E0000D800D100D100B100B100910091        
0071507F300000D800D100D100B100B10091009100710071505F1F0000D800D1        
00B100B10091009100710071506F280000D800D100D100B100B1009100910071        
504F160000D800D100D100B100B10091009100710071504F150000D800D100D1        
00B10091009100710071505F200000D800D100D100B100B10091009100710071        
290000D800D100D100B100B10091009100710071507F310000D800D100D100B1        
0091009100710071504F170000D800D100D100B100B10091009100710071506F        
00D800D100D100B100B10091009100710071504F180000D800D100D100B100B1        
00000000000000000000000000D100D100B100B10091009100710071505F2100        
E0AC6824DF9B5713503F300281D8500F04000088500F03000088500F30028188        
81D878563412F0DEBC9AE0AC6824DF9B5713502F300281D878563412F0DEBC9A        
6824DF9B5713500F300281D878563412F0DEBC9AE0AC6824DF9B5713501F3002        
08000088500F07000088500F06000088500F0500008878563412F0DEBC9AE0AC        
00D000D100D100B100B10091009100710071503F000000D0500F09000088500F        
009100710071501F000000D000D100D100B100B10091009100710071502F0000        
00D100D100B100B10091009100710071500F000000D000D100D100B100B10091        
00D8500F0E000088500F0D000088500F0C000088500F0B000088500F0A000088        
009100710071502F010000D800D100D100B100B10091009100710071503F0100        
00D100D100B100B10091009100710071501F010000D800D100D100B100B10091        
00710071503F020000D800D100D100B100B10091009100710071500F010000D8        
00D100B100B10091009100710071502F020000D800D100D100B100B100910091        
0071500F020000D800D100D100B100B10091009100710071501F020000D800D1        
500F11000088500F10000088500F0F00008800D100D100B100B1009100910071        
0088500F16000088500F15000088500F14000088500F13000088500F12000088        
502F030000D800D100D100B100B10091009100710071503F030000D8500F1700        
00B10091009100710071501F030000D800D100D100B100B10091009100710071        
040000D800D100D100B100B10091009100710071503F040000D800D100D100B1        
0091009100710071501F040000D800D100D100B100B10091009100710071502F        
00D800D100D100B100B10091009100710071500F030000D800D100D100B100B1        
009100710071503F050000D800D100D100B100B10091009100710071500F0400        
00D100D100B100B10091009100710071502F050000D800D100D100B100B10091        
00710071500F050000D800D100D100B100B10091009100710071501F050000D8        
0088500F1A000088500F19000088500F1800008800D100D100B100B100910091        
20000088500F1F000088500F1E000088500F1D000088500F1C000088500F1B00        
00D800D100D100B100B10091009100710071503F060000D8500065000488500F        
009100710071503F070000D800D100D100B100B10091009100710071502F0600        
00D100D100B100B10091009100710071502F070000D800D100D100B100B10091        
00710071501F070000D800D100D100B100B10091009100710071501F060000D8        
00D100B100B10091009100710071500F060000D800D100D100B100B100910091        
0071502F080000D800D100D100B100B10091009100710071503F080000D800D1        
00B100B10091009100710071501F080000D800D100D100B100B1009100910071        
500F080000D800D100D100B100B10091009100710071500F070000D800D100D1        
00B10091009100710071503F090000D800D100D100B100B10091009100710071        
090000D800D100D100B100B10091009100710071502F090000D800D100D100B1        
0091009100710071500F090000D800D100D100B100B10091009100710071501F        
00D800D100D100B100B10091009100710071503F0A0000D800D100D100B100B1        
009100710071501F0A0000D800D100D100B100B10091009100710071502F0A00        
00D100D100B100B10091009100710071500F0A0000D800D100D100B100B10091        
00710071502F0B0000D800D100D100B100B10091009100710071503F0B0000D8        
00D100B100B10091009100710071501F0B0000D800D100D100B100B100910091        
0071503F0C0000D800D100D100B100B10091009100710071500F0B0000D800D1        
00B100B10091009100710071502F0C0000D800D100D100B100B1009100910071        
500F0C0000D800D100D100B100B10091009100710071501F0C0000D800D100D1        
00B10091009100710071503F0D0000D800D100D100B100B10091009100710071        
0D0000D800D100D100B100B10091009100710071502F0D0000D800D100D100B1        
0091009100710071500F0D0000D800D100D100B100B10091009100710071501F        
00D800D100D100B100B10091009100710071503F0E0000D800D100D100B100B1        
50200E0000E450300E0000E400D100D100B100B10091009100710071502F0E00        
0E0000D850100E0000E400D100D100B100B10091009100710071501F0E0000D8        
0071503F0F0000D850000E0000E400D100D100B100B10091009100710071500F        
00B100B10091009100710071502F0F0000D800D100D100B100B1009100910071        
500F0F0000D800D100D100B100B10091009100710071501F0F0000D800D100D1        
00710071503F100000D850006A01048800D100D100B100B10091009100710071        
00D100B100B10091009100710071502F100000D800D100D100B100B100910091        
0071500F100000D800D100D100B100B10091009100710071501F100000D800D1        
00B100B10091009100710071503F110000D800D100D100B100B1009100910071        
501F110000D800D100D100B100B10091009100710071502F110000D800D100D1        
00B10091009100710071500F110000D800D100D100B100B10091009100710071        
120000D800D100D100B100B10091009100710071503F120000D800D100D100B1        
0091009100710071501F120000D800D100D100B100B10091009100710071502F        
00D800D100D100B100B10091009100710071500F120000D800D100D100B100B1        
009100710071502F130000D800D100D100B100B10091009100710071503F1300        
00D100D100B100B10091009100710071501F130000D800D100D100B100B10091        
00710071503F140000D800D100D100B100B10091009100710071500F130000D8        
00D100B100B10091009100710071502F140000D800D100D100B100B100910091        
0071500F140000D800D100D100B100B10091009100710071501F140000D800D1        
00B100B10091009100710071503F150000D800D100D100B100B1009100910071        
501F150000D800D100D100B100B10091009100710071502F150000D800D100D1        
00B10091009100710071500F150000D800D100D100B100B10091009100710071        
0000000000D100D100B100B10091009100710071503F160000D800D100D100B1        
E0AC6824DF9B5713507F300281C8509104000088509103000088509F30028188        
81C878563412F0DEBC9AE0AC6824DF9B5713506F300281C878563412F0DEBC9A        
00D800D100D15061110000D878563412F0DEBC9AE0AC6824DF9B5713505F3002        
0A0000D800D100D15061120000D800D100D150711A0000D800D100D150510900        
1B0000D878563412F0DEBC9AE0AC6824DF9B5713504F300281D800D100D15051        
00D000D100D100B100B150530B0000D800D100D15061130000D800D100D15071        
00D100D15041010000D800D100D100B100B150731C0000D800D100D150410000        
020000D800D100D100B100B150530C0000D800D100D100B100B15063140000D8     EOP
000000000000000000000002000000000000000F200020000000250000004006 SOP    
0000000000000000000000000000A0030000000000000000000000030000020B        
00D800D100D100B100B15043040000D800D100D100B100B15063150000D800D1        
0700008850910600008850910500008800D100D100B100B10091009150570D00        
50930C00008850910B00008850910A0000885091090000885091080000885091        
008850931100008850931000008850930F00008850930E00008850930D000088        
1700008850971600008850971500008850971400008850931300008850931200        
00B10091009150771F0000D800D100D100B100B10091009150771E0000D85097        
00915067170000D800D100D100B100B1009100915067160000D800D100D100B1        
00D100D100B100B10091009100710071507F200000D800D100D100B100B10091        
0091009150570E0000D800D100D100B100B10091009100710071506F180000D8        
00D800D100D100B100B10091009100710071505F0F0000D800D100D100B100B1        
009100710071507F210000D800D100D100B100B10091009100710071505F1000        
00D100D100B100B10091009100710071506F190000D800D100D100B100B10091        
00B100B1009100915047060000D800D100D100B100B1009100915047050000D8        
507F220000D800D100D100B100B10091009100710071505F110000D800D100D1        
00B10091009100710071506F1A0000D800D100D100B100B10091009100710071        
080000D800D100D100B100B10091009100710071504F070000D800D100D100B1        
0091009100710071505F120000D800D100D100B100B10091009100710071504F        
00D800D100D100B100B10091009100710071504F090000D800D100D100B100B1        
009100710071506F1B0000D800D100D100B100B10091009100710071507F2300        
00D100D100B100B10091009100710071504F0A0000D800D100D100B100B10091        
1900008850971800008800D100D100B100B10091009100710071505F130000D8        
509F1E000088509F1D00008850971C00008850971B00008850971A0000885097        
0088509F23000088509F22000088509F21000088509F20000088509F1F000088        
29000088509E28000088509E27000088509F26000088509E25000088509F2400        
509C2E000088509E2D000088509E2C000088509E2B000088509E2A000088509E        
0071507F240000D8509C32000088509C31000088509C30000088509C2F000088        
00B100B10091009100710071507F250000D800D100D100B100B1009100910071        
506F1C0000D800D100D100B100B10091009100710071507F260000D800D100D1        
00B10091009100710071506F1D0000D800D100D100B100B10091009100710071        
270000D800D100D100B100B10091009100710071506F1E0000D800D100D100B1        
0091009100710071506F1F0000D800D100D100B100B10091009100710071507F        
00D800D100D100B100B10091009100710071505F140000D800D100D100B100B1        
009100710071505F160000D800D100D100B100B10091009100710071505F1500        
00D100D100B100B10091009100710071507F280000D800D100D100B100B10091        
00710071505F170000D800D100D100B100B10091009100710071506F200000D8        
00D100B100B10091009100710071504F0B0000D800D100D100B100B100910091        
0071507F290000D800D100D100B100B10091009100710071505F180000D800D1        
00B100B10091009100710071506F210000D800D100D100B100B1009100910071        
504F0D0000D800D100D100B100B10091009100710071504F0C0000D800D100D1        
00B10091009100710071505F190000D800D100D100B100B10091009100710071        
220000D800D100D100B100B10091009100710071507F2A0000D800D100D100B1        
0091009100710071504F0E0000D800D100D100B100B10091009100710071506F        
00D800D100D100B100B10091009100710071504F0F0000D800D100D100B100B1        
009100710071507F2B0000D800D100D100B100B10091009100710071505F1A00        
00D100D100B100B10091009100710071506F230000D800D100D100B100B10091        
1B0000D800D100D100B100B10091009100710071504F100000D85060230000E4        
0091009100710071504F110000D800D100D100B100B10091009100710071505F        
00E400D100D100B100B10091009100710071507F2C0000D800D100D100B100B1        
00D100D100B100B10091009100710071506F240000D850501B0000E450702C00        
1C0000D800D100D100B100B10091009100710071504F120000D85040110000E4        
0091009100710071504F130000D800D100D100B100B10091009100710071505F        
00D800D100D100B100B10091009100710071507F2D0000D800D100D100B100B1        
009100710071504F140000D800D100D100B100B10091009100710071506F2500        
36000088509C35000088509C34000088509C3300008800D100D100B100B10091        
50983B00008850983A000088509839000088509C38000088509837000088509C        
00D850906A01048850906500048850983E00008850983D00008850983C000088        
009100710071506F260000D800D100D100B100B10091009100710071507F2E00        
00D100D100B100B10091009100710071507F2F0000D800D100D100B100B10091        
00710071505F1D0000D800D100D100B100B10091009100710071506F270000D8        
00D100B100B10091009100710071505F1E0000D800D100D100B100B100910091        
0071507F300000D800D100D100B100B10091009100710071505F1F0000D800D1        
00B100B10091009100710071506F280000D800D100D100B100B1009100910071        
504F160000D800D100D100B100B10091009100710071504F150000D800D100D1        
00B10091009100710071505F200000D800D100D100B100B10091009100710071        
290000D800D100D100B100B10091009100710071507F310000D800D100D100B1        
0091009100710071504F170000D800D100D100B100B10091009100710071506F        
00D800D100D100B100B10091009100710071504F180000D800D100D100B100B1        
00000000000000000000000000D100D100B100B10091009100710071505F2100        
E0AC6824DF9B5713503F300281D8508F04000088508F03000088508F30028188        
81D878563412F0DEBC9AE0AC6824DF9B5713502F300281D878563412F0DEBC9A        
6824DF9B5713500F300281D878563412F0DEBC9AE0AC6824DF9B5713501F3002        
08000088508F07000088508F06000088508F0500008878563412F0DEBC9AE0AC        
00D000D100D100B100B10091009100710071503F000000D0508F09000088508F        
009100710071501F000000D000D100D100B100B10091009100710071502F0000        
00D100D100B100B10091009100710071500F000000D000D100D100B100B10091        
00D8508F0E000088508F0D000088508F0C000088508F0B000088508F0A000088        
009100710071502F010000D800D100D100B100B10091009100710071503F0100        
00D100D100B100B10091009100710071501F010000D800D100D100B100B10091        
00710071503F020000D800D100D100B100B10091009100710071500F010000D8        
00D100B100B10091009100710071502F020000D800D100D100B100B100910091        
0071500F020000D800D100D100B100B10091009100710071501F020000D800D1        
508F11000088508F10000088508F0F00008800D100D100B100B1009100910071        
0088508F16000088508F15000088508F14000088508F13000088508F12000088        
502F030000D800D100D100B100B10091009100710071503F030000D8508F1700        
00B10091009100710071501F030000D800D100D100B100B10091009100710071        
040000D800D100D100B100B10091009100710071503F040000D800D100D100B1        
0091009100710071501F040000D800D100D100B100B10091009100710071502F        
00D800D100D100B100B10091009100710071500F030000D800D100D100B100B1        
009100710071503F050000D800D100D100B100B10091009100710071500F0400        
00D100D100B100B10091009100710071502F050000D800D100D100B100B10091        
00710071500F050000D800D100D100B100B10091009100710071501F050000D8        
0088508F1A000088508F19000088508F1800008800D100D100B100B100910091        
20000088508F1F000088508F1E000088508F1D000088508F1C000088508F1B00        
00D800D100D100B100B10091009100710071503F060000D8508065000488508F        
009100710071503F070000D800D100D100B100B10091009100710071502F0600        
00D100D100B100B10091009100710071502F070000D800D100D100B100B10091        
00710071501F070000D800D100D100B100B10091009100710071501F060000D8        
00D100B100B10091009100710071500F060000D800D100D100B100B100910091        
0071502F080000D800D100D100B100B10091009100710071503F080000D800D1        
00B100B10091009100710071501F080000D800D100D100B100B1009100910071        
500F080000D800D100D100B100B10091009100710071500F070000D800D100D1        
00B10091009100710071503F090000D800D100D100B100B10091009100710071        
090000D800D100D100B100B10091009100710071502F090000D800D100D100B1        
0091009100710071500F090000D800D100D100B100B10091009100710071501F        
00D800D100D100B100B10091009100710071503F0A0000D800D100D100B100B1        
009100710071501F0A0000D800D100D100B100B10091009100710071502F0A00        
00D100D100B100B10091009100710071500F0A0000D800D100D100B100B10091        
00710071502F0B0000D800D100D100B100B10091009100710071503F0B0000D8        
00D100B100B10091009100710071501F0B0000D800D100D100B100B100910091        
0071503F0C0000D800D100D100B100B10091009100710071500F0B0000D800D1        
00B100B10091009100710071502F0C0000D800D100D100B100B1009100910071        
500F0C0000D800D100D100B100B10091009100710071501F0C0000D800D100D1        
00B10091009100710071503F0D0000D800D100D100B100B10091009100710071        
0D0000D800D100D100B100B10091009100710071502F0D0000D800D100D100B1        
0091009100710071500F0D0000D800D100D100B100B10091009100710071501F        
00D800D100D100B100B10091009100710071503F0E0000D800D100D100B100B1        
50200E0000E450300E0000E400D100D100B100B10091009100710071502F0E00        
0E0000D850100E0000E400D100D100B100B10091009100710071501F0E0000D8        
0071503F0F0000D850000E0000E400D100D100B100B10091009100710071500F        
00B100B10091009100710071502F0F0000D800D100D100B100B1009100910071        
500F0F0000D800D100D100B100B10091009100710071501F0F0000D800D100D1        
00710071503F100000D850806A01048800D100D100B100B10091009100710071        
00D100B100B10091009100710071502F100000D800D100D100B100B100910091        
0071500F100000D800D100D100B100B10091009100710071501F100000D800D1        
00B100B10091009100710071503F110000D800D100D100B100B1009100910071        
501F110000D800D100D100B100B10091009100710071502F110000D800D100D1        
00B10091009100710071500F110000D800D100D100B100B10091009100710071        
120000D800D100D100B100B10091009100710071503F120000D800D100D100B1        
0091009100710071501F120000D800D100D100B100B10091009100710071502F        
00D800D100D100B100B10091009100710071500F120000D800D100D100B100B1        
009100710071502F130000D800D100D100B100B10091009100710071503F1300        
00D100D100B100B10091009100710071501F130000D800D100D100B100B10091        
00710071503F140000D800D100D100B100B10091009100710071500F130000D8        
00D100B100B10091009100710071502F140000D800D100D100B100B100910091        
0071500F140000D800D100D100B100B10091009100710071501F140000D800D1        
00B100B10091009100710071503F150000D800D100D100B100B1009100910071        
501F150000D800D100D100B100B10091009100710071502F150000D800D100D1        
00B10091009100710071500F150000D800D100D100B100B10091009100710071        
0000000000D100D100B100B10091009100710071503F160000D800D100D100B1        
E0AC6824DF9B5713507F300281C8501104000088501103000088501F30028188        
81C878563412F0DEBC9AE0AC6824DF9B5713506F300281C878563412F0DEBC9A        
00D800D100D15061110000D878563412F0DEBC9AE0AC6824DF9B5713505F3002        
0A0000D800D100D15061120000D800D100D150711A0000D800D100D150510900        
1B0000D878563412F0DEBC9AE0AC6824DF9B5713504F300281D800D100D15051        
00D000D100D100B100B150530B0000D800D100D15061130000D800D100D15071        
00D100D15041010000D800D100D100B100B150731C0000D800D100D150410000        
020000D800D100D100B100B150530C0000D800D100D100B100B15063140000D8        
00D100B100B150731D0000D800D100D100B100B15043030000D800D100D15041        
00D800D100D100B100B15043040000D800D100D100B100B15063150000D800D1        
0700008850110600008850110500008800D100D100B100B10091009150570D00        
50130C00008850110B00008850110A0000885011090000885011080000885011        
008850131100008850131000008850130F00008850130E00008850130D000088        
1700008850171600008850171500008850171400008850131300008850131200        
00B10091009150771F0000D800D100D100B100B10091009150771E0000D85017        
00915067170000D800D100D100B100B1009100915067160000D800D100D100B1        
00D100D100B100B10091009100710071507F200000D800D100D100B100B10091        
0091009150570E0000D800D100D100B100B10091009100710071506F180000D8        
00D800D100D100B100B10091009100710071505F0F0000D800D100D100B100B1        
009100710071507F210000D800D100D100B100B10091009100710071505F1000        
00D100D100B100B10091009100710071506F190000D800D100D100B100B10091        
00B100B1009100915047060000D800D100D100B100B1009100915047050000D8        
507F220000D800D100D100B100B10091009100710071505F110000D800D100D1        
00B10091009100710071506F1A0000D800D100D100B100B10091009100710071        
080000D800D100D100B100B10091009100710071504F070000D800D100D100B1        
0091009100710071505F120000D800D100D100B100B10091009100710071504F        
00D800D100D100B100B10091009100710071504F090000D800D100D100B100B1        
009100710071506F1B0000D800D100D100B100B10091009100710071507F2300        
00D100D100B100B10091009100710071504F0A0000D800D100D100B100B10091        
1900008850171800008800D100D100B100B10091009100710071505F130000D8        
501F1E000088501F1D00008850171C00008850171B00008850171A0000885017        
0088501F23000088501F22000088501F21000088501F20000088501F1F000088        
29000088501E28000088501E27000088501F26000088501E25000088501F2400        
501C2E000088501E2D000088501E2C000088501E2B000088501E2A000088501E        
0071507F240000D8501C32000088501C31000088501C30000088501C2F000088        
00B100B10091009100710071507F250000D800D100D100B100B1009100910071        
506F1C0000D800D100D100B100B10091009100710071507F260000D800D100D1        
00B10091009100710071506F1D0000D800D100D100B100B10091009100710071        
270000D800D100D100B100B10091009100710071506F1E0000D800D100D100B1        
0091009100710071506F1F0000D800D100D100B100B10091009100710071507F        
00D800D100D100B100B10091009100710071505F140000D800D100D100B100B1        
009100710071505F160000D800D100D100B100B10091009100710071505F1500        
00D100D100B100B10091009100710071507F280000D800D100D100B100B10091        
00710071505F170000D800D100D100B100B10091009100710071506F200000D8        
00D100B100B10091009100710071504F0B0000D800D100D100B100B100910091        
0071507F290000D800D100D100B100B10091009100710071505F180000D800D1        
00B100B10091009100710071506F210000D800D100D100B100B1009100910071        
504F0D0000D800D100D100B100B10091009100710071504F0C0000D800D100D1        
00B10091009100710071505F190000D800D100D100B100B10091009100710071        
220000D800D100D100B100B10091009100710071507F2A0000D800D100D100B1        
0091009100710071504F0E0000D800D100D100B100B10091009100710071506F        
00D800D100D100B100B10091009100710071504F0F0000D800D100D100B100B1        
009100710071507F2B0000D800D100D100B100B10091009100710071505F1A00        
00D100D100B100B10091009100710071506F230000D800D100D100B100B10091        
1B0000D800D100D100B100B10091009100710071504F100000D85060230000E4        
0091009100710071504F110000D800D100D100B100B10091009100710071505F        
00E400D100D100B100B10091009100710071507F2C0000D800D100D100B100B1        
00D100D100B100B10091009100710071506F240000D850501B0000E450702C00        
1C0000D800D100D100B100B10091009100710071504F120000D85040110000E4        
0091009100710071504F130000D800D100D100B100B10091009100710071505F        
00D800D100D100B100B10091009100710071507F2D0000D800D100D100B100B1        
009100710071504F140000D800D100D100B100B10091009100710071506F2500        
36000088501C35000088501C34000088501C3300008800D100D100B100B10091        
50183B00008850183A000088501839000088501C38000088501837000088501C        
00D850106A01048850106500048850183E00008850183D00008850183C000088        
009100710071506F260000D800D100D100B100B10091009100710071507F2E00        
00D100D100B100B10091009100710071507F2F0000D800D100D100B100B10091        
00710071505F1D0000D800D100D100B100B10091009100710071506F270000D8        
00D100B100B10091009100710071505F1E0000D800D100D100B100B100910091        
0071507F300000D800D100D100B100B10091009100710071505F1F0000D800D1        
00B100B10091009100710071506F280000D800D100D100B100B1009100910071        
504F160000D800D100D100B100B10091009100710071504F150000D800D100D1        
00B10091009100710071505F200000D800D100D100B100B10091009100710071        
290000D800D100D100B100B10091009100710071507F310000D800D100D100B1        
0091009100710071504F170000D800D100D100B100B10091009100710071506F        
00D800D100D100B100B10091009100710071504F180000D800D100D100B100B1        
00000000000000000000000000D100D100B100B10091009100710071505F2100        
E0AC6824DF9B5713503F300281D8500F04000088500F03000088500F30028188        
81D878563412F0DEBC9AE0AC6824DF9B5713502F300281D878563412F0DEBC9A        
6824DF9B5713500F300281D878563412F0DEBC9AE0AC6824DF9B5713501F3002        
08000088500F07000088500F06000088500F0500008878563412F0DEBC9AE0AC        
00D000D100D100B100B10091009100710071503F000000D0500F09000088500F        
009100710071501F000000D000D100D100B100B10091009100710071502F0000        
00D100D100B100B10091009100710071500F000000D000D100D100B100B10091        
00D8500F0E000088500F0D000088500F0C000088500F0B000088500F0A000088        
009100710071502F010000D800D100D100B100B10091009100710071503F0100        
00D100D100B100B10091009100710071501F010000D800D100D100B100B10091        
00710071503F020000D800D100D100B100B10091009100710071500F010000D8        
00D100B100B10091009100710071502F020000D800D100D100B100B100910091        
0071500F020000D800D100D100B100B10091009100710071501F020000D800D1        
500F11000088500F10000088500F0F00008800D100D100B100B1009100910071        
0088500F16000088500F15000088500F14000088500F13000088500F12000088        
502F030000D800D100D100B100B10091009100710071503F030000D8500F1700        
00B10091009100710071501F030000D800D100D100B100B10091009100710071        
040000D800D100D100B100B10091009100710071503F040000D800D100D100B1        
0091009100710071501F040000D800D100D100B100B10091009100710071502F        
00D800D100D100B100B10091009100710071500F030000D800D100D100B100B1        
009100710071503F050000D800D100D100B100B10091009100710071500F0400        
00D100D100B100B10091009100710071502F050000D800D100D100B100B10091        
00710071500F050000D800D100D100B100B10091009100710071501F050000D8        
0088500F1A000088500F19000088500F1800008800D100D100B100B100910091        
20000088500F1F000088500F1E000088500F1D000088500F1C000088500F1B00        
00D800D100D100B100B10091009100710071503F060000D8500065000488500F        
009100710071503F070000D800D100D100B100B10091009100710071502F0600        
00D100D100B100B10091009100710071502F070000D800D100D100B100B10091        
00710071501F070000D800D100D100B100B10091009100710071501F060000D8        
00D100B100B10091009100710071500F060000D800D100D100B100B100910091        
0071502F080000D800D100D100B100B10091009100710071503F080000D800D1        
00B100B10091009100710071501F080000D800D100D100B100B1009100910071        
500F080000D800D100D100B100B10091009100710071500F070000D800D100D1        
00B10091009100710071503F090000D800D100D100B100B10091009100710071     EOP
000000000000000000000002000000000000000F174017400000250000004006 SOP    
0000000000000000000000000000A0030000000000000000000000040000020B        
0091009100710071500F090000D800D100D100B100B10091009100710071501F        
00D800D100D100B100B10091009100710071503F0A0000D800D100D100B100B1        
009100710071501F0A0000D800D100D100B100B10091009100710071502F0A00        
00D100D100B100B10091009100710071500F0A0000D800D100D100B100B10091        
00710071502F0B0000D800D100D100B100B10091009100710071503F0B0000D8        
00D100B100B10091009100710071501F0B0000D800D100D100B100B100910091        
0071503F0C0000D800D100D100B100B10091009100710071500F0B0000D800D1        
00B100B10091009100710071502F0C0000D800D100D100B100B1009100910071        
500F0C0000D800D100D100B100B10091009100710071501F0C0000D800D100D1        
00B10091009100710071503F0D0000D800D100D100B100B10091009100710071        
0D0000D800D100D100B100B10091009100710071502F0D0000D800D100D100B1        
0091009100710071500F0D0000D800D100D100B100B10091009100710071501F        
00D800D100D100B100B10091009100710071503F0E0000D800D100D100B100B1        
50200E0000E450300E0000E400D100D100B100B10091009100710071502F0E00        
0E0000D850100E0000E400D100D100B100B10091009100710071501F0E0000D8        
0071503F0F0000D850000E0000E400D100D100B100B10091009100710071500F        
00B100B10091009100710071502F0F0000D800D100D100B100B1009100910071        
500F0F0000D800D100D100B100B10091009100710071501F0F0000D800D100D1        
00710071503F100000D850006A01048800D100D100B100B10091009100710071        
00D100B100B10091009100710071502F100000D800D100D100B100B100910091        
0071500F100000D800D100D100B100B10091009100710071501F100000D800D1        
00B100B10091009100710071503F110000D800D100D100B100B1009100910071        
501F110000D800D100D100B100B10091009100710071502F110000D800D100D1        
00B10091009100710071500F110000D800D100D100B100B10091009100710071        
120000D800D100D100B100B10091009100710071503F120000D800D100D100B1        
0091009100710071501F120000D800D100D100B100B10091009100710071502F        
00D800D100D100B100B10091009100710071500F120000D800D100D100B100B1        
009100710071502F130000D800D100D100B100B10091009100710071503F1300        
00D100D100B100B10091009100710071501F130000D800D100D100B100B10091        
00710071503F140000D800D100D100B100B10091009100710071500F130000D8        
00D100B100B10091009100710071502F140000D800D100D100B100B100910091        
0071500F140000D800D100D100B100B10091009100710071501F140000D800D1        
00B100B10091009100710071503F150000D800D100D100B100B1009100910071        
501F150000D800D100D100B100B10091009100710071502F150000D800D100D1        
00B10091009100710071500F150000D800D100D100B100B10091009100710071        
0000000000D100D100B100B10091009100710071503F160000D800D100D100B1        
E0AC6824DF9B5713507F300281C8509104000088509103000088509F30028188        
81C878563412F0DEBC9AE0AC6824DF9B5713506F300281C878563412F0DEBC9A        
00D800D100D15061110000D878563412F0DEBC9AE0AC6824DF9B5713505F3002        
0A0000D800D100D15061120000D800D100D150711A0000D800D100D150510900        
1B0000D878563412F0DEBC9AE0AC6824DF9B5713504F300281D800D100D15051        
00D000D100D100B100B150530B0000D800D100D15061130000D800D100D15071        
00D100D15041010000D800D100D100B100B150731C0000D800D100D150410000        
020000D800D100D100B100B150530C0000D800D100D100B100B15063140000D8        
00D100B100B150731D0000D800D100D100B100B15043030000D800D100D15041        
00D800D100D100B100B15043040000D800D100D100B100B15063150000D800D1        
0700008850910600008850910500008800D100D100B100B10091009150570D00        
50930C00008850910B00008850910A0000885091090000885091080000885091        
008850931100008850931000008850930F00008850930E00008850930D000088        
1700008850971600008850971500008850971400008850931300008850931200        
00B10091009150771F0000D800D100D100B100B10091009150771E0000D85097        
00915067170000D800D100D100B100B1009100915067160000D800D100D100B1        
00D100D100B100B10091009100710071507F200000D800D100D100B100B10091        
0091009150570E0000D800D100D100B100B10091009100710071506F180000D8        
00D800D100D100B100B10091009100710071505F0F0000D800D100D100B100B1        
009100710071507F210000D800D100D100B100B10091009100710071505F1000        
00D100D100B100B10091009100710071506F190000D800D100D100B100B10091        
00B100B1009100915047060000D800D100D100B100B1009100915047050000D8        
507F220000D800D100D100B100B10091009100710071505F110000D800D100D1        
00B10091009100710071506F1A0000D800D100D100B100B10091009100710071        
080000D800D100D100B100B10091009100710071504F070000D800D100D100B1        
0091009100710071505F120000D800D100D100B100B10091009100710071504F        
00D800D100D100B100B10091009100710071504F090000D800D100D100B100B1        
009100710071506F1B0000D800D100D100B100B10091009100710071507F2300        
00D100D100B100B10091009100710071504F0A0000D800D100D100B100B10091        
1900008850971800008800D100D100B100B10091009100710071505F130000D8        
509F1E000088509F1D00008850971C00008850971B00008850971A0000885097        
0088509F23000088509F22000088509F21000088509F20000088509F1F000088        
29000088509E28000088509E27000088509F26000088509E25000088509F2400        
509C2E000088509E2D000088509E2C000088509E2B000088509E2A000088509E        
0071507F240000D8509C32000088509C31000088509C30000088509C2F000088        
00B100B10091009100710071507F250000D800D100D100B100B1009100910071        
506F1C0000D800D100D100B100B10091009100710071507F260000D800D100D1        
00B10091009100710071506F1D0000D800D100D100B100B10091009100710071        
270000D800D100D100B100B10091009100710071506F1E0000D800D100D100B1        
0091009100710071506F1F0000D800D100D100B100B10091009100710071507F        
00D800D100D100B100B10091009100710071505F140000D800D100D100B100B1        
009100710071505F160000D800D100D100B100B10091009100710071505F1500        
00D100D100B100B10091009100710071507F280000D800D100D100B100B10091        
00710071505F170000D800D100D100B100B10091009100710071506F200000D8        
00D100B100B10091009100710071504F0B0000D800D100D100B100B100910091        
0071507F290000D800D100D100B100B10091009100710071505F180000D800D1        
00B100B10091009100710071506F210000D800D100D100B100B1009100910071        
504F0D0000D800D100D100B100B10091009100710071504F0C0000D800D100D1        
00B10091009100710071505F190000D800D100D100B100B10091009100710071        
220000D800D100D100B100B10091009100710071507F2A0000D800D100D100B1        
0091009100710071504F0E0000D800D100D100B100B10091009100710071506F        
00D800D100D100B100B10091009100710071504F0F0000D800D100D100B100B1        
009100710071507F2B0000D800D100D100B100B10091009100710071505F1A00        
00D100D100B100B10091009100710071506F230000D800D100D100B100B10091        
1B0000D800D100D100B100B10091009100710071504F100000D85060230000E4        
0091009100710071504F110000D800D100D100B100B10091009100710071505F        
00E400D100D100B100B10091009100710071507F2C0000D800D100D100B100B1        
00D100D100B100B10091009100710071506F240000D850501B0000E450702C00        
1C0000D800D100D100B100B10091009100710071504F120000D85040110000E4        
0091009100710071504F130000D800D100D100B100B10091009100710071505F        
00D800D100D100B100B10091009100710071507F2D0000D800D100D100B100B1        
009100710071504F140000D800D100D100B100B10091009100710071506F2500        
36000088509C35000088509C34000088509C3300008800D100D100B100B10091        
50983B00008850983A000088509839000088509C38000088509837000088509C        
00D850906A01048850906500048850983E00008850983D00008850983C000088        
009100710071506F260000D800D100D100B100B10091009100710071507F2E00        
00D100D100B100B10091009100710071507F2F0000D800D100D100B100B10091        
00710071505F1D0000D800D100D100B100B10091009100710071506F270000D8        
00D100B100B10091009100710071505F1E0000D800D100D100B100B100910091        
0071507F300000D800D100D100B100B10091009100710071505F1F0000D800D1        
00B100B10091009100710071506F280000D800D100D100B100B1009100910071        
504F160000D800D100D100B100B10091009100710071504F150000D800D100D1        
00B10091009100710071505F200000D800D100D100B100B10091009100710071        
290000D800D100D100B100B10091009100710071507F310000D800D100D100B1        
0091009100710071504F170000D800D100D100B100B10091009100710071506F        
00D800D100D100B100B10091009100710071504F180000D800D100D100B100B1        
00000000000000000000000000D100D100B100B10091009100710071505F2100        
E0AC6824DF9B5713503F300281D8508F04000088508F03000088508F30028188        
81D878563412F0DEBC9AE0AC6824DF9B5713502F300281D878563412F0DEBC9A        
6824DF9B5713500F300281D878563412F0DEBC9AE0AC6824DF9B5713501F3002        
08000088508F07000088508F06000088508F0500008878563412F0DEBC9AE0AC        
00D000D100D100B100B10091009100710071503F000000D0508F09000088508F        
009100710071501F000000D000D100D100B100B10091009100710071502F0000        
00D100D100B100B10091009100710071500F000000D000D100D100B100B10091        
00D8508F0E000088508F0D000088508F0C000088508F0B000088508F0A000088        
009100710071502F010000D800D100D100B100B10091009100710071503F0100        
00D100D100B100B10091009100710071501F010000D800D100D100B100B10091        
00710071503F020000D800D100D100B100B10091009100710071500F010000D8        
00D100B100B10091009100710071502F020000D800D100D100B100B100910091        
0071500F020000D800D100D100B100B10091009100710071501F020000D800D1        
508F11000088508F10000088508F0F00008800D100D100B100B1009100910071        
0088508F16000088508F15000088508F14000088508F13000088508F12000088        
502F030000D800D100D100B100B10091009100710071503F030000D8508F1700        
00B10091009100710071501F030000D800D100D100B100B10091009100710071        
040000D800D100D100B100B10091009100710071503F040000D800D100D100B1        
0091009100710071501F040000D800D100D100B100B10091009100710071502F        
00D800D100D100B100B10091009100710071500F030000D800D100D100B100B1        
009100710071503F050000D800D100D100B100B10091009100710071500F0400        
00D100D100B100B10091009100710071502F050000D800D100D100B100B10091        
00710071500F050000D800D100D100B100B10091009100710071501F050000D8        
0088508F1A000088508F19000088508F1800008800D100D100B100B100910091        
20000088508F1F000088508F1E000088508F1D000088508F1C000088508F1B00        
00D800D100D100B100B10091009100710071503F060000D8508065000488508F        
009100710071503F070000D800D100D100B100B10091009100710071502F0600        
00D100D100B100B10091009100710071502F070000D800D100D100B100B10091        
00710071501F070000D800D100D100B100B10091009100710071501F060000D8        
00D100B100B10091009100710071500F060000D800D100D100B100B100910091        
0071502F080000D800D100D100B100B10091009100710071503F080000D800D1        
00B100B10091009100710071501F080000D800D100D100B100B1009100910071        
500F080000D800D100D100B100B10091009100710071500F070000D800D100D1        
00B10091009100710071503F090000D800D100D100B100B10091009100710071        
090000D800D100D100B100B10091009100710071502F090000D800D100D100B1        
0091009100710071500F090000D800D100D100B100B10091009100710071501F        
00D800D100D100B100B10091009100710071503F0A0000D800D100D100B100B1        
009100710071501F0A0000D800D100D100B100B10091009100710071502F0A00        
00D100D100B100B10091009100710071500F0A0000D800D100D100B100B10091        
00710071502F0B0000D800D100D100B100B10091009100710071503F0B0000D8        
00D100B100B10091009100710071501F0B0000D800D100D100B100B100910091        
0071503F0C0000D800D100D100B100B10091009100710071500F0B0000D800D1        
00B100B10091009100710071502F0C0000D800D100D100B100B1009100910071        
500F0C0000D800D100D100B100B10091009100710071501F0C0000D800D100D1        
00B10091009100710071503F0D0000D800D100D100B100B10091009100710071        
0D0000D800D100D100B100B10091009100710071502F0D0000D800D100D100B1        
0091009100710071500F0D0000D800D100D100B100B10091009100710071501F        
00D800D100D100B100B10091009100710071503F0E0000D800D100D100B100B1        
50200E0000E450300E0000E400D100D100B100B10091009100710071502F0E00        
0E0000D850100E0000E400D100D100B100B10091009100710071501F0E0000D8        
0071503F0F0000D850000E0000E400D100D100B100B10091009100710071500F        
00B100B10091009100710071502F0F0000D800D100D100B100B1009100910071        
500F0F0000D800D100D100B100B10091009100710071501F0F0000D800D100D1        
00710071503F100000D850806A01048800D100D100B100B10091009100710071        
00D100B100B10091009100710071502F100000D800D100D100B100B100910091        
0071500F100000D800D100D100B100B10091009100710071501F100000D800D1        
00B100B10091009100710071503F110000D800D100D100B100B1009100910071        
501F110000D800D100D100B100B10091009100710071502F110000D800D100D1        
00B10091009100710071500F110000D800D100D100B100B10091009100710071        
120000D800D100D100B100B10091009100710071503F120000D800D100D100B1        
0091009100710071501F120000D800D100D100B100B10091009100710071502F        
00D800D100D100B100B10091009100710071500F120000D800D100D100B100B1        
009100710071502F130000D800D100D100B100B10091009100710071503F1300        
00D100D100B100B10091009100710071501F130000D800D100D100B100B10091        
00710071503F140000D800D100D100B100B10091009100710071500F130000D8        
00D100B100B10091009100710071502F140000D800D100D100B100B100910091        
0071500F140000D800D100D100B100B10091009100710071501F140000D800D1        
00B100B10091009100710071503F150000D800D100D100B100B1009100910071        
501F150000D800D100D100B100B10091009100710071502F150000D800D100D1        
00B10091009100710071500F150000D800D100D100B100B10091009100710071        
0000000000D100D100B100B10091009100710071503F160000D800D100D100B1     EOP
000000000000000000000002000000000000000F004000400000250000004006 SOP    
0000000000000000000000000000A0030000000000000000000100050000020B     EOP
000000000000000000000003000000000000000F200020000000250000004006 SOP    
0000000000000000000000000000A0030000000000000000000000000000000B        
00710071506F2A0000D800D100D100B100B10091009100710071507F320000D8        
00D100B100B10091009100710071504F190000D800D100D100B100B100910091        
0071507F330000D800D100D100B100B10091009100710071505F220000D800D1        
00B100B10091009100710071506F2B0000D800D100D100B100B1009100910071        
505F230000D800D100D100B100B10091009100710071504F1A0000D800D100D1        
00710071507F340000D850901B02048800D100D100B100B10091009100710071        
00D100B100B10091009100710071506F2C0000D800D100D100B100B100910091        
0071505F240000D800D100D100B100B10091009100710071504F1B0000D800D1        
009100710071507F350000D850903002018800D100D100B100B1009100910071        
00D100D100B100B10091009100710071506F2D0000D800D100D100B100B10091        
00710071505F250000D800D100D100B100B10091009100710071504F1C0000D8        
00D100B100B10091009100710071507F360000D800D100D100B100B100910091        
0071504F1D0000D800D100D100B100B10091009100710071506F2E0000D800D1        
00B100B10091009100710071505F260000D800D100D100B100B1009100910071        
506F2F0000D800D100D100B100B10091009100710071507F370000D800D100D1        
00B10091009100710071504F1E0000D800D100D100B100B10091009100710071        
380000D800D100D100B100B10091009100710071505F270000D800D100D100B1        
0091009100710071506F300000D800D100D100B100B10091009100710071507F        
00D800D100D100B100B10091009100710071504F1F0000D800D100D100B100B1        
009100710071507F390000D800D100D100B100B10091009100710071505F2800        
00D100D100B100B10091009100710071506F310000D800D100D100B100B10091        
00710071505F290000D800D100D100B100B10091009100710071504F200000D8        
00D100B100B10091009100710071507F3A0000D800D100D100B100B100910091        
0071504F210000D800D100D100B100B10091009100710071506F320000D800D1        
505F2A0000D85040650004CC5040220000F800D100D100B100B1009100910071        
00710071507F3B0000D850406A0104CC00D100D100B100B10091009100710071        
00D100B100B10091009100710071506F330000D800D100D100B100B100910091        
5060650004CC50502B0000F85060340000F85070650004CC50703C0000F800D1        
04CC50701B0204CC50506A0104CC50606A0104CC5050650004CC50706A0104CC        
300201CC5050730004CC5070300201CC5050300201CC50601B0204CC50501B02        
5040730004CC5060730004CC5040300201CC5070730004CC50401B0204CC5060        
0270504FA00000C85091A50000885091A40000885091A3000088509073000488        
505FAC0000C85091A70000885091A600008802D002D002B002B0029002900270        
B20000C85091A90000885091A800008802D002D002B002B00290029002700270        
0290029002700270506FB60000C802D002D002B002B00290029002700270507F        
008802D002D002B002B00290029002700270504FA10000D802D002D002B002B0        
02B00290029002700270505FAD0000D85091AC0000885091AB0000885091AA00        
B70000D802D002D002B002B00290029002700270507FB30000D802D002D002B0        
0290029002700270504FA20000D802D002D002B002B00290029002700270506F        
5093B00000885093AF0000885091AE0000885091AD00008802D002D002B002B0        
B80000D802D002D002B002B00290029002700270507FB40000D85093B1000088        
0290029002700270505FAE0000D802D002D002B002B00290029002700270506F        
00D802D002D002B002B00290029002700270504FA30000D802D002D002B002B0        
029002700270507FB50000D802D002D002B002B00290029002700270505FAF00        
02D002D002B002B00290029002700270506FB90000D802D002D002B002B00290        
B30000885093B200008802D002D002B002B00290029002700270504FA40000D8        
509AB8000088509AB7000088509AB6000088509AB50000885092B40000885093        
02D002B002B00290029002700270507FB60000D8509EBA000088509EB9000088        
0270505FB00000D802D002D002B002B00290029002700270506FBA0000D802D0        
02B002B00290029002700270505FB10000D802D002D002B002B0029002900270        
506FBB0000D802D002D002B002B00290029002700270507FB70000D802D002D0        
02B00290029002700270504FA50000D802D002D002B002B00290029002700270        
B20000D802D002D002B002B00290029002700270504FA60000D802D002D002B0        
0290029002700270507FB80000D802D002D002B002B00290029002700270505F        
00D802D002D002B002B00290029002700270506FBC0000D802D002D002B002B0        
BD000088509EBC000088509EBB00008802B002B00290029002700270504EA700        
509CC2000088509EC1000088509EC0000088509EBF000088509EBE000088509E        
0088509CC7000088509CC6000088509CC5000088509CC4000088509CC3000088        
02D002D002B002B00290029002700270507FB90000D8509CC9000088509CC800        
02700270507FBA0000D802D002D002B002B00290029002700270506FBD0000D8        
02D002B002B00290029002700270506FBE0000D802D002D002B002B002900290        
0270505FB40000D802D002D002B002B00290029002700270505FB30000D802D0        
02B002B00290029002700270505EB50000D802D002D002B002B0029002900270        
02700270506FBF0000D802D002D002B002B00290029002700270507FBB0000D8        
00D802B002B00290029002700270505EB60000D802D002D002B002B002900290        
02B00290029002700270504EA90000D802B002B00290029002700270504EA800        
02B00290029002700270507FBC0000D80290029002700270504CAA0000D802B0        
B70000D802D002D002B002B00290029002700270506FC00000D802D002D002B0        
B80000D80290029002700270504CAB0000D802B002B00290029002700270505E        
0270507FBD0000D80290029002700270504CAC0000D80290029002700270505C        
02B002B00290029002700270506FC10000D802D002D002B002B0029002900270        
0290029002700270504CAD0000D80290029002700270505CB90000D802D002D0        
00D8027002705048B00000D8027002705048AF0000D8027002705048AE0000D8        
029002700270506FC20000D802D002D002B002B00290029002700270507FBE00        
04D05041E90000D80290029002700270505CBA0000D802D002D002B002B00290        
5041EB0000D804D004D05041EA0000D80290029002700270505CBB0000D804D0        
506EC30000D802D002D002B002B00290029002700270507FBF0000D804D004D0        
027002705058BD0000D8027002705058BC0000D802B002B00290029002700270        
0270506EC40000D804D004D004B004B05043ED0000D804D004D05041EC0000D8        
02D002D002B002B00290029002700270507FC00000D802B002B0029002900270        
04D05051F70000D804D004D004B004B05043EE0000D8027002705058BE0000D8        
000000000000509CCD000088509CCC000088509CCB000088509CCA00008804D0        
00710071501F160000D800D100D100B100B10091009100710071502F160000D8        
00D100B100B10091009100710071500F160000D800D100D100B100B100910091        
0071502F170000D800D100D100B100B10091009100710071503F170000D800D1        
00B100B10091009100710071501F170000D800D100D100B100B1009100910071        
50801B02048800D100D100B100B10091009100710071500F170000D800D100D1        
00710071502F180000D800D100D100B100B10091009100710071503F180000D8        
00D100B100B10091009100710071501F180000D800D100D100B100B100910091        
00D850803002018800D100D100B100B10091009100710071500F180000D800D1        
009100710071502F190000D800D100D100B100B10091009100710071503F1900        
00D100D100B100B10091009100710071501F190000D800D100D100B100B10091        
00710071503F1A0000D800D100D100B100B10091009100710071500F190000D8        
00D100B100B10091009100710071502F1A0000D800D100D100B100B100910091        
0071500F1A0000D800D100D100B100B10091009100710071501F1A0000D800D1        
00B100B10091009100710071503F1B0000D800D100D100B100B1009100910071        
501F1B0000D800D100D100B100B10091009100710071502F1B0000D800D100D1        
00B10091009100710071500F1B0000D800D100D100B100B10091009100710071        
1C0000D800D100D100B100B10091009100710071503F1C0000D800D100D100B1        
0091009100710071501F1C0000D800D100D100B100B10091009100710071502F        
00D800D100D100B100B10091009100710071500F1C0000D800D100D100B100B1        
009100710071502F1D0000D800D100D100B100B10091009100710071503F1D00        
650004CC50201E0000F85030650004CC50301E0000F800D100D100B100B10091        
04CC50306A0104CC00D100D100B100B10091009100710071501F1D0000D85020        
300201CC5010650004CC50101E0000F850201B0204CC50301B0204CC50206A01        
5020730004CC5030730004CC50101B0204CC50106A0104CC5020300201CC5030        
00D100B100B10091009100710071500F1D0000D85010730004CC5010300201CC        
5000300201CC50001B0204CC50006A0104CC5000650004CC50001E0000F800D1        
00C8508C8D000088508C8C000088508C8B0000885080730004885000730004CC        
029002700270502F880000C802D002D002B002B00290029002700270503F8800        
91000088508C90000088508C8F000088508C8E00008802D002D002B002B00290        
0270502F890000D802D002D002B002B00290029002700270503F890000D8508C        
0088508C9200008804D004D05001AF0000D802D002D002B002B0029002900270        
5011BD0000D8508C9500008804D004D05001B00000D8508C94000088508C9300        
502F8A0000D802D002D002B002B00290029002700270503F8A0000D804D004D0        
5001B10000D804D004D05011BE0000D802D002D002B002B00290029002700270        
508898000088508C97000088508C9600008804D004D05001B20000D804D004D0        
02D002B002B00290029002700270503F8B0000D850889A000088508899000088        
00D804D004D05011BF0000D802B002B00290029002700270502E8B0000D802D0        
5013C10000D802B002B00290029002700270502E8C0000D804D004D05011C000        
00D802D002D002B002B00290029002700270503F8C0000D804D004D004B004B0        
502E8D0000D804D004D004B004B05003B40000D804D004D004B004B05003B300        
5003B50000D804D004D004B004B05013C20000D802B002B00290029002700270        
50889E00008850889D00008850889C00008850889B00008804D004D004B004B0        
00885088A30000885088A20000885088A10000885088A000008850889F000088        
02D002D002B002B00290029002700270503F8D0000D85088A50000885088A400        
02B002B00290029002700270503F8E0000D80290029002700270502C8E0000D8        
0290029002700270502C900000D80290029002700270502C8F0000D802D002D0        
C50000D804D004D004B004B05013C40000D804D004D004B004B05013C30000D8        
8F0000D80290029002700270502C910000D804D004D004B004B0049004905017        
04B004B0049004905007B60000D802D002D002B002B00290029002700270503F        
04D004D004B004B0049004905017C60000D8027002705028920000D804D004D0        
B80000D8027002705028930000D804D004D004B004B0049004905007B70000D8        
02B002B00290029002700270503F900000D804D004D004B004B0049004905007        
04D004D004B004B0049004905017C70000D8027002705028940000D802D002D0        
BA0000D804D004D004B004B0049004905007B90000D804D004D05021CC0000D8        
0290029002700270503F910000D804D004D004B004B00490049004700470500F        
0490049004700470501FC80000D804D004D05021CD0000D802D002D002B002B0        
0490049004700470500FBB0000D804D004D05021CE0000D804D004D004B004B0        
5081B50000885081B40000885081B30000885081B200008804D004D004B004B0        
00885081BA0000885081B90000885081B80000885081B70000885081B6000088        
C00000885081BF0000885081BE0000885081BD0000885081BC0000885081BB00        
5083C50000885083C40000885083C30000885083C20000885083C10000885083        
00D85083CA0000885083C90000885083C80000885083C70000885083C6000088        
029002700270503F930000D802D002D002B002B00290029002700270503F9200        
02D002D002B002B00290029002700270503F940000D802D002D002B002B00290        
04B05023D10000D804D004D004B004B05023D00000D804D004D05021CF0000D8        
04B0049004905027D30000D804D004D004B004B05023D20000D804D004D004B0        
950000D804D004D004B004B00490049004700470501FC90000D804D004D004B0        
0490049004700470501FCA0000D802D002D002B002B00290029002700270503F        
501FCB0000D804D004D004B004B0049004905027D40000D804D004D004B004B0        
04B00490049004700470501FCC0000D804D004D004B004B00490049004700470        
D50000D802D002D002B002B00290029002700270503F960000D804D004D004B0        
04B004B00490049004700470501FCD0000D804D004D004B004B0049004905027        
500FBD0000D804D004D004B004B00490049004700470500FBC0000D804D004D0        
02B00290029002700270503F970000D804D004D004B004B00490049004700470        
0470501FCE0000D804D004D004B004B0049004905027D60000D802D002D002B0        
04B004B00490049004700470500FBE0000D804D004D004B004B0049004900470        
503F980000D804D004D004B004B00490049004700470500FBF0000D804D004D0        
04B00490049004700470502FD70000D802D002D002B002B00290029002700270        
C00000D804D004D004B004B00490049004700470501FCF0000D804D004D004B0        
000000000000000000000000000004D004D004B004B00490049004700470500F        
00710071506F2A0000D800D100D100B100B10091009100710071507F320000D8        
00D100B100B10091009100710071504F190000D800D100D100B100B100910091        
0071507F330000D800D100D100B100B10091009100710071505F220000D800D1        
00B100B10091009100710071506F2B0000D800D100D100B100B1009100910071        
505F230000D800D100D100B100B10091009100710071504F1A0000D800D100D1        
00710071507F340000D850101B02048800D100D100B100B10091009100710071        
00D100B100B10091009100710071506F2C0000D800D100D100B100B100910091        
0071505F240000D800D100D100B100B10091009100710071504F1B0000D800D1        
009100710071507F350000D850103002018800D100D100B100B1009100910071        
00D100D100B100B10091009100710071506F2D0000D800D100D100B100B10091        
00710071505F250000D800D100D100B100B10091009100710071504F1C0000D8        
00D100B100B10091009100710071507F360000D800D100D100B100B100910091        
0071504F1D0000D800D100D100B100B10091009100710071506F2E0000D800D1        
