000000000000000000000002000000000000000F12C012C00000250000004006 SOP    
0000000000000000000000000000A0030000000000000000000000000000020B        
E0AC6824DF9B5713507F300281C8501104000088501103000088501F30028188        
81C878563412F0DEBC9AE0AC6824DF9B5713506F300281C878563412F0DEBC9A        
00D800D100D15061110000D878563412F0DEBC9AE0AC6824DF9B5713505F3002        
0A0000D800D100D15061120000D800D100D150711A0000D800D100D150510900        
1B0000D878563412F0DEBC9AE0AC6824DF9B5713504F300281D800D100D15051        
00D000D100D100B100B150530B0000D800D100D15061130000D800D100D15071        
00D100D15041010000D800D100D100B100B150731C0000D800D100D150410000        
020000D800D100D100B100B150530C0000D800D100D100B100B15063140000D8        
00D100B100B150731D0000D800D100D100B100B15043030000D800D100D15041        
00D800D100D100B100B15043040000D800D100D100B100B15063150000D800D1        
0700008850110600008850110500008800D100D100B100B10091009150570D00        
50130C00008850110B00008850110A0000885011090000885011080000885011        
008850131100008850131000008850130F00008850130E00008850130D000088        
1700008850171600008850171500008850171400008850131300008850131200        
00B10091009150771F0000D800D100D100B100B10091009150771E0000D85017        
00915067170000D800D100D100B100B1009100915067160000D800D100D100B1        
00D100D100B100B10091009100710071507F200000D800D100D100B100B10091        
0091009150570E0000D800D100D100B100B10091009100710071506F180000D8        
00D800D100D100B100B10091009100710071505F0F0000D800D100D100B100B1        
009100710071507F210000D800D100D100B100B10091009100710071505F1000        
00D100D100B100B10091009100710071506F190000D800D100D100B100B10091        
00B100B1009100915047060000D800D100D100B100B1009100915047050000D8        
507F220000D800D100D100B100B10091009100710071505F110000D800D100D1        
00B10091009100710071506F1A0000D800D100D100B100B10091009100710071        
080000D800D100D100B100B10091009100710071504F070000D800D100D100B1        
0091009100710071505F120000D800D100D100B100B10091009100710071504F        
00D800D100D100B100B10091009100710071504F090000D800D100D100B100B1        
009100710071506F1B0000D800D100D100B100B10091009100710071507F2300        
00D100D100B100B10091009100710071504F0A0000D800D100D100B100B10091        
1900008850171800008800D100D100B100B10091009100710071505F130000D8        
501F1E000088501F1D00008850171C00008850171B00008850171A0000885017        
0088501F23000088501F22000088501F21000088501F20000088501F1F000088        
29000088501E28000088501E27000088501F26000088501E25000088501F2400        
501C2E000088501E2D000088501E2C000088501E2B000088501E2A000088501E        
0071507F240000D8501C32000088501C31000088501C30000088501C2F000088        
00B100B10091009100710071507F250000D800D100D100B100B1009100910071        
506F1C0000D800D100D100B100B10091009100710071507F260000D800D100D1        
00B10091009100710071506F1D0000D800D100D100B100B10091009100710071        
270000D800D100D100B100B10091009100710071506F1E0000D800D100D100B1        
0091009100710071506F1F0000D800D100D100B100B10091009100710071507F        
00D800D100D100B100B10091009100710071505F140000D800D100D100B100B1        
009100710071505F160000D800D100D100B100B10091009100710071505F1500        
00D100D100B100B10091009100710071507F280000D800D100D100B100B10091        
00710071505F170000D800D100D100B100B10091009100710071506F200000D8        
00D100B100B10091009100710071504F0B0000D800D100D100B100B100910091        
0071507F290000D800D100D100B100B10091009100710071505F180000D800D1        
00B100B10091009100710071506F210000D800D100D100B100B1009100910071        
504F0D0000D800D100D100B100B10091009100710071504F0C0000D800D100D1        
00B10091009100710071505F190000D800D100D100B100B10091009100710071        
220000D800D100D100B100B10091009100710071507F2A0000D800D100D100B1        
0091009100710071504F0E0000D800D100D100B100B10091009100710071506F        
00D800D100D100B100B10091009100710071504F0F0000D800D100D100B100B1        
009100710071507F2B0000D800D100D100B100B10091009100710071505F1A00        
00D100D100B100B10091009100710071506F230000D800D100D100B100B10091        
1B0000D800D100D100B100B10091009100710071504F100000D85060230000E4        
0091009100710071504F110000D800D100D100B100B10091009100710071505F        
00E400D100D100B100B10091009100710071507F2C0000D800D100D100B100B1        
00D100D100B100B10091009100710071506F240000D850501B0000E450702C00        
1C0000D800D100D100B100B10091009100710071504F120000D85040110000E4        
0091009100710071504F130000D800D100D100B100B10091009100710071505F        
00D800D100D100B100B10091009100710071507F2D0000D800D100D100B100B1        
009100710071504F140000D800D100D100B100B10091009100710071506F2500        
36000088501C35000088501C34000088501C3300008800D100D100B100B10091        
50183B00008850183A000088501839000088501C38000088501837000088501C        
00D850106A01048850106500048850183E00008850183D00008850183C000088        
009100710071506F260000D800D100D100B100B10091009100710071507F2E00        
00D100D100B100B10091009100710071507F2F0000D800D100D100B100B10091        
00710071505F1D0000D800D100D100B100B10091009100710071506F270000D8        
00D100B100B10091009100710071505F1E0000D800D100D100B100B100910091        
0071507F300000D800D100D100B100B10091009100710071505F1F0000D800D1        
00B100B10091009100710071506F280000D800D100D100B100B1009100910071        
504F160000D800D100D100B100B10091009100710071504F150000D800D100D1        
00B10091009100710071505F200000D800D100D100B100B10091009100710071        
290000D800D100D100B100B10091009100710071507F310000D800D100D100B1        
0091009100710071504F170000D800D100D100B100B10091009100710071506F        
00D800D100D100B100B10091009100710071504F180000D800D100D100B100B1        
00000000000000000000000000D100D100B100B10091009100710071505F2100        
E0AC6824DF9B5713503F300281D8500F04000088500F03000088500F30028188        
81D878563412F0DEBC9AE0AC6824DF9B5713502F300281D878563412F0DEBC9A        
6824DF9B5713500F300281D878563412F0DEBC9AE0AC6824DF9B5713501F3002        
08000088500F07000088500F06000088500F0500008878563412F0DEBC9AE0AC        
00D000D100D100B100B10091009100710071503F000000D0500F09000088500F        
009100710071501F000000D000D100D100B100B10091009100710071502F0000        
00D100D100B100B10091009100710071500F000000D000D100D100B100B10091        
00D8500F0E000088500F0D000088500F0C000088500F0B000088500F0A000088        
009100710071502F010000D800D100D100B100B10091009100710071503F0100        
00D100D100B100B10091009100710071501F010000D800D100D100B100B10091        
00710071503F020000D800D100D100B100B10091009100710071500F010000D8        
00D100B100B10091009100710071502F020000D800D100D100B100B100910091        
0071500F020000D800D100D100B100B10091009100710071501F020000D800D1        
500F11000088500F10000088500F0F00008800D100D100B100B1009100910071        
0088500F16000088500F15000088500F14000088500F13000088500F12000088        
502F030000D800D100D100B100B10091009100710071503F030000D8500F1700        
00B10091009100710071501F030000D800D100D100B100B10091009100710071        
040000D800D100D100B100B10091009100710071503F040000D800D100D100B1        
0091009100710071501F040000D800D100D100B100B10091009100710071502F        
00D800D100D100B100B10091009100710071500F030000D800D100D100B100B1        
009100710071503F050000D800D100D100B100B10091009100710071500F0400        
00D100D100B100B10091009100710071502F050000D800D100D100B100B10091        
00710071500F050000D800D100D100B100B10091009100710071501F050000D8        
0088500F1A000088500F19000088500F1800008800D100D100B100B100910091        
20000088500F1F000088500F1E000088500F1D000088500F1C000088500F1B00        
00D800D100D100B100B10091009100710071503F060000D8500065000488500F        
009100710071503F070000D800D100D100B100B10091009100710071502F0600        
00D100D100B100B10091009100710071502F070000D800D100D100B100B10091        
00710071501F070000D800D100D100B100B10091009100710071501F060000D8        
00D100B100B10091009100710071500F060000D800D100D100B100B100910091        
0071502F080000D800D100D100B100B10091009100710071503F080000D800D1        
00B100B10091009100710071501F080000D800D100D100B100B1009100910071        
500F080000D800D100D100B100B10091009100710071500F070000D800D100D1        
00B10091009100710071503F090000D800D100D100B100B10091009100710071        
090000D800D100D100B100B10091009100710071502F090000D800D100D100B1        
0091009100710071500F090000D800D100D100B100B10091009100710071501F        
00D800D100D100B100B10091009100710071503F0A0000D800D100D100B100B1        
009100710071501F0A0000D800D100D100B100B10091009100710071502F0A00        
00D100D100B100B10091009100710071500F0A0000D800D100D100B100B10091        
00710071502F0B0000D800D100D100B100B10091009100710071503F0B0000D8        
00D100B100B10091009100710071501F0B0000D800D100D100B100B100910091        
0071503F0C0000D800D100D100B100B10091009100710071500F0B0000D800D1        
00B100B10091009100710071502F0C0000D800D100D100B100B1009100910071        
500F0C0000D800D100D100B100B10091009100710071501F0C0000D800D100D1        
00B10091009100710071503F0D0000D800D100D100B100B10091009100710071        
0D0000D800D100D100B100B10091009100710071502F0D0000D800D100D100B1        
0091009100710071500F0D0000D800D100D100B100B10091009100710071501F        
00D800D100D100B100B10091009100710071503F0E0000D800D100D100B100B1        
50200E0000E450300E0000E400D100D100B100B10091009100710071502F0E00        
0E0000D850100E0000E400D100D100B100B10091009100710071501F0E0000D8        
0071503F0F0000D850000E0000E400D100D100B100B10091009100710071500F        
00B100B10091009100710071502F0F0000D800D100D100B100B1009100910071        
500F0F0000D800D100D100B100B10091009100710071501F0F0000D800D100D1        
00710071503F100000D850006A01048800D100D100B100B10091009100710071        
00D100B100B10091009100710071502F100000D800D100D100B100B100910091        
0071500F100000D800D100D100B100B10091009100710071501F100000D800D1        
00B100B10091009100710071503F110000D800D100D100B100B1009100910071        
501F110000D800D100D100B100B10091009100710071502F110000D800D100D1        
00B10091009100710071500F110000D800D100D100B100B10091009100710071        
120000D800D100D100B100B10091009100710071503F120000D800D100D100B1        
0091009100710071501F120000D800D100D100B100B10091009100710071502F        
00D800D100D100B100B10091009100710071500F120000D800D100D100B100B1        
009100710071502F130000D800D100D100B100B10091009100710071503F1300        
00D100D100B100B10091009100710071501F130000D800D100D100B100B10091        
00710071503F140000D800D100D100B100B10091009100710071500F130000D8        
00D100B100B10091009100710071502F140000D800D100D100B100B100910091        
0071500F140000D800D100D100B100B10091009100710071501F140000D800D1        
00B100B10091009100710071503F150000D800D100D100B100B1009100910071        
501F150000D800D100D100B100B10091009100710071502F150000D800D100D1        
00B10091009100710071500F150000D800D100D100B100B10091009100710071        
0000000000D100D100B100B10091009100710071503F160000D800D100D100B1     EOP
000000000000000000000002000000000000000F004000400000250000004006 SOP    
0000000000000000000000000000A0030000000000000000000100010000020B     EOP
000000000000000000000003000000000000000F148014800000250000004006 SOP    
0000000000000000000000000000A0030000000000000000000000000000000B        
00710071506F2A0000D800D100D100B100B10091009100710071507F320000D8        
00D100B100B10091009100710071504F190000D800D100D100B100B100910091        
0071507F330000D800D100D100B100B10091009100710071505F220000D800D1        
00B100B10091009100710071506F2B0000D800D100D100B100B1009100910071        
505F230000D800D100D100B100B10091009100710071504F1A0000D800D100D1        
00710071507F340000D850101B02048800D100D100B100B10091009100710071        
00D100B100B10091009100710071506F2C0000D800D100D100B100B100910091        
0071505F240000D800D100D100B100B10091009100710071504F1B0000D800D1        
009100710071507F350000D850103002018800D100D100B100B1009100910071        
00D100D100B100B10091009100710071506F2D0000D800D100D100B100B10091        
00710071505F250000D800D100D100B100B10091009100710071504F1C0000D8        
00D100B100B10091009100710071507F360000D800D100D100B100B100910091        
0071504F1D0000D800D100D100B100B10091009100710071506F2E0000D800D1        
00B100B10091009100710071505F260000D800D100D100B100B1009100910071        
506F2F0000D800D100D100B100B10091009100710071507F370000D800D100D1        
00B10091009100710071504F1E0000D800D100D100B100B10091009100710071        
380000D800D100D100B100B10091009100710071505F270000D800D100D100B1        
0091009100710071506F300000D800D100D100B100B10091009100710071507F        
00D800D100D100B100B10091009100710071504F1F0000D800D100D100B100B1        
009100710071507F390000D800D100D100B100B10091009100710071505F2800        
00D100D100B100B10091009100710071506F310000D800D100D100B100B10091        
00710071505F290000D800D100D100B100B10091009100710071504F200000D8        
00D100B100B10091009100710071507F3A0000D800D100D100B100B100910091        
0071504F210000D800D100D100B100B10091009100710071506F320000D800D1        
505F2A0000D85040650004CC5040220000F800D100D100B100B1009100910071        
00710071507F3B0000D850406A0104CC00D100D100B100B10091009100710071        
00D100B100B10091009100710071506F330000D800D100D100B100B100910091        
5060650004CC50502B0000F85060340000F85070650004CC50703C0000F800D1        
04CC50701B0204CC50506A0104CC50606A0104CC5050650004CC50706A0104CC        
300201CC5050730004CC5070300201CC5050300201CC50601B0204CC50501B02        
5040730004CC5060730004CC5040300201CC5070730004CC50401B0204CC5060        
0270504FA00000C85011A50000885011A40000885011A3000088501073000488        
505FAC0000C85011A70000885011A600008802D002D002B002B0029002900270        
B20000C85011A90000885011A800008802D002D002B002B00290029002700270        
0290029002700270506FB60000C802D002D002B002B00290029002700270507F        
008802D002D002B002B00290029002700270504FA10000D802D002D002B002B0        
02B00290029002700270505FAD0000D85011AC0000885011AB0000885011AA00        
B70000D802D002D002B002B00290029002700270507FB30000D802D002D002B0        
0290029002700270504FA20000D802D002D002B002B00290029002700270506F        
5013B00000885013AF0000885011AE0000885011AD00008802D002D002B002B0        
B80000D802D002D002B002B00290029002700270507FB40000D85013B1000088        
0290029002700270505FAE0000D802D002D002B002B00290029002700270506F        
00D802D002D002B002B00290029002700270504FA30000D802D002D002B002B0        
029002700270507FB50000D802D002D002B002B00290029002700270505FAF00        
02D002D002B002B00290029002700270506FB90000D802D002D002B002B00290        
B30000885013B200008802D002D002B002B00290029002700270504FA40000D8        
501AB8000088501AB7000088501AB6000088501AB50000885012B40000885013        
02D002B002B00290029002700270507FB60000D8501EBA000088501EB9000088        
0270505FB00000D802D002D002B002B00290029002700270506FBA0000D802D0        
02B002B00290029002700270505FB10000D802D002D002B002B0029002900270        
506FBB0000D802D002D002B002B00290029002700270507FB70000D802D002D0        
02B00290029002700270504FA50000D802D002D002B002B00290029002700270        
B20000D802D002D002B002B00290029002700270504FA60000D802D002D002B0        
0290029002700270507FB80000D802D002D002B002B00290029002700270505F        
00D802D002D002B002B00290029002700270506FBC0000D802D002D002B002B0        
BD000088501EBC000088501EBB00008802B002B00290029002700270504EA700        
501CC2000088501EC1000088501EC0000088501EBF000088501EBE000088501E        
0088501CC7000088501CC6000088501CC5000088501CC4000088501CC3000088        
02D002D002B002B00290029002700270507FB90000D8501CC9000088501CC800        
02700270507FBA0000D802D002D002B002B00290029002700270506FBD0000D8        
02D002B002B00290029002700270506FBE0000D802D002D002B002B002900290        
0270505FB40000D802D002D002B002B00290029002700270505FB30000D802D0        
02B002B00290029002700270505EB50000D802D002D002B002B0029002900270        
02700270506FBF0000D802D002D002B002B00290029002700270507FBB0000D8        
00D802B002B00290029002700270505EB60000D802D002D002B002B002900290        
02B00290029002700270504EA90000D802B002B00290029002700270504EA800        
02B00290029002700270507FBC0000D80290029002700270504CAA0000D802B0        
B70000D802D002D002B002B00290029002700270506FC00000D802D002D002B0        
B80000D80290029002700270504CAB0000D802B002B00290029002700270505E        
0270507FBD0000D80290029002700270504CAC0000D80290029002700270505C        
02B002B00290029002700270506FC10000D802D002D002B002B0029002900270        
0290029002700270504CAD0000D80290029002700270505CB90000D802D002D0        
00D8027002705048B00000D8027002705048AF0000D8027002705048AE0000D8        
029002700270506FC20000D802D002D002B002B00290029002700270507FBE00        
04D05041E90000D80290029002700270505CBA0000D802D002D002B002B00290        
5041EB0000D804D004D05041EA0000D80290029002700270505CBB0000D804D0        
506EC30000D802D002D002B002B00290029002700270507FBF0000D804D004D0        
027002705058BD0000D8027002705058BC0000D802B002B00290029002700270        
0270506EC40000D804D004D004B004B05043ED0000D804D004D05041EC0000D8        
02D002D002B002B00290029002700270507FC00000D802B002B0029002900270        
04D05051F70000D804D004D004B004B05043EE0000D8027002705058BE0000D8        
000000000000501CCD000088501CCC000088501CCB000088501CCA00008804D0        
00710071501F160000D800D100D100B100B10091009100710071502F160000D8        
00D100B100B10091009100710071500F160000D800D100D100B100B100910091        
0071502F170000D800D100D100B100B10091009100710071503F170000D800D1        
00B100B10091009100710071501F170000D800D100D100B100B1009100910071        
50001B02048800D100D100B100B10091009100710071500F170000D800D100D1        
00710071502F180000D800D100D100B100B10091009100710071503F180000D8        
00D100B100B10091009100710071501F180000D800D100D100B100B100910091        
00D850003002018800D100D100B100B10091009100710071500F180000D800D1        
009100710071502F190000D800D100D100B100B10091009100710071503F1900        
00D100D100B100B10091009100710071501F190000D800D100D100B100B10091        
00710071503F1A0000D800D100D100B100B10091009100710071500F190000D8        
00D100B100B10091009100710071502F1A0000D800D100D100B100B100910091        
0071500F1A0000D800D100D100B100B10091009100710071501F1A0000D800D1        
00B100B10091009100710071503F1B0000D800D100D100B100B1009100910071        
501F1B0000D800D100D100B100B10091009100710071502F1B0000D800D100D1        
00B10091009100710071500F1B0000D800D100D100B100B10091009100710071        
1C0000D800D100D100B100B10091009100710071503F1C0000D800D100D100B1        
0091009100710071501F1C0000D800D100D100B100B10091009100710071502F        
00D800D100D100B100B10091009100710071500F1C0000D800D100D100B100B1        
009100710071502F1D0000D800D100D100B100B10091009100710071503F1D00        
650004CC50201E0000F85030650004CC50301E0000F800D100D100B100B10091        
04CC50306A0104CC00D100D100B100B10091009100710071501F1D0000D85020        
300201CC5010650004CC50101E0000F850201B0204CC50301B0204CC50206A01        
5020730004CC5030730004CC50101B0204CC50106A0104CC5020300201CC5030        
00D100B100B10091009100710071500F1D0000D85010730004CC5010300201CC        
5000300201CC50001B0204CC50006A0104CC5000650004CC50001E0000F800D1        
00C8500C8D000088500C8C000088500C8B0000885000730004885000730004CC        
029002700270502F880000C802D002D002B002B00290029002700270503F8800        
91000088500C90000088500C8F000088500C8E00008802D002D002B002B00290        
0270502F890000D802D002D002B002B00290029002700270503F890000D8500C        
0088500C9200008804D004D05001AF0000D802D002D002B002B0029002900270        
5011BD0000D8500C9500008804D004D05001B00000D8500C94000088500C9300        
502F8A0000D802D002D002B002B00290029002700270503F8A0000D804D004D0        
5001B10000D804D004D05011BE0000D802D002D002B002B00290029002700270        
500898000088500C97000088500C9600008804D004D05001B20000D804D004D0        
02D002B002B00290029002700270503F8B0000D850089A000088500899000088        
00D804D004D05011BF0000D802B002B00290029002700270502E8B0000D802D0        
5013C10000D802B002B00290029002700270502E8C0000D804D004D05011C000        
00D802D002D002B002B00290029002700270503F8C0000D804D004D004B004B0        
502E8D0000D804D004D004B004B05003B40000D804D004D004B004B05003B300        
5003B50000D804D004D004B004B05013C20000D802B002B00290029002700270        
50089E00008850089D00008850089C00008850089B00008804D004D004B004B0        
00885008A30000885008A20000885008A10000885008A000008850089F000088        
02D002D002B002B00290029002700270503F8D0000D85008A50000885008A400        
02B002B00290029002700270503F8E0000D80290029002700270502C8E0000D8        
0290029002700270502C900000D80290029002700270502C8F0000D802D002D0        
C50000D804D004D004B004B05013C40000D804D004D004B004B05013C30000D8        
8F0000D80290029002700270502C910000D804D004D004B004B0049004905017        
04B004B0049004905007B60000D802D002D002B002B00290029002700270503F        
04D004D004B004B0049004905017C60000D8027002705028920000D804D004D0        
B80000D8027002705028930000D804D004D004B004B0049004905007B70000D8        
02B002B00290029002700270503F900000D804D004D004B004B0049004905007        
04D004D004B004B0049004905017C70000D8027002705028940000D802D002D0        
BA0000D804D004D004B004B0049004905007B90000D804D004D05021CC0000D8        
0290029002700270503F910000D804D004D004B004B00490049004700470500F        
0490049004700470501FC80000D804D004D05021CD0000D802D002D002B002B0        
0490049004700470500FBB0000D804D004D05021CE0000D804D004D004B004B0        
5001B50000885001B40000885001B30000885001B200008804D004D004B004B0        
00885001BA0000885001B90000885001B80000885001B70000885001B6000088        
C00000885001BF0000885001BE0000885001BD0000885001BC0000885001BB00        
5003C50000885003C40000885003C30000885003C20000885003C10000885003        
00D85003CA0000885003C90000885003C80000885003C70000885003C6000088        
029002700270503F930000D802D002D002B002B00290029002700270503F9200        
02D002D002B002B00290029002700270503F940000D802D002D002B002B00290        
04B05023D10000D804D004D004B004B05023D00000D804D004D05021CF0000D8        
04B0049004905027D30000D804D004D004B004B05023D20000D804D004D004B0        
950000D804D004D004B004B00490049004700470501FC90000D804D004D004B0        
0490049004700470501FCA0000D802D002D002B002B00290029002700270503F        
501FCB0000D804D004D004B004B0049004905027D40000D804D004D004B004B0        
04B00490049004700470501FCC0000D804D004D004B004B00490049004700470        
D50000D802D002D002B002B00290029002700270503F960000D804D004D004B0        
04B004B00490049004700470501FCD0000D804D004D004B004B0049004905027        
500FBD0000D804D004D004B004B00490049004700470500FBC0000D804D004D0        
02B00290029002700270503F970000D804D004D004B004B00490049004700470        
0470501FCE0000D804D004D004B004B0049004905027D60000D802D002D002B0        
04B004B00490049004700470500FBE0000D804D004D004B004B0049004900470        
503F980000D804D004D004B004B00490049004700470500FBF0000D804D004D0        
04B00490049004700470502FD70000D802D002D002B002B00290029002700270        
C00000D804D004D004B004B00490049004700470501FCF0000D804D004D004B0        
000000000000000000000000000004D004D004B004B00490049004700470500F     EOP
000000000000000000000003000000000000000F004000400000250000004006 SOP    
0000000000000000000000000000A0030000000000000000000100010000000B     EOP
000000000000000000000004000000000000000F15E015E00000250000004006 SOP    
0000000000000000000000000000A0030000000000000000000000000000000B        
00885018D20000885018D10000885018D0000088501CCF000088501CCE000088        
F00000885011EF0000885011EE0000885011ED0000885011EC0000885018D300        
5011F50000885011F40000885011F30000885011F20000885011F10000885011        
00885013FA0000885011F90000885011F80000885011F70000885011F6000088        
000100885013FF0000885013FE0000885013FD0000885013FC0000885013FB00        
5013050100885013040100885013030100885013020100885013010100885013        
00D850170A010088501709010088501308010088501307010088501306010088        
507FC20000D85070C10000E402D002D002B002B00290029002700270507FC100        
02B00290029002700270507FC30000D802D002D002B002B00290029002700270        
0270507FC40000D802B002B00290029002700270506EC50000D802D002D002B0        
C70000D80290029002700270506CC60000D802D002D002B002B0029002900270        
0270506CC90000D80290029002700270506CC80000D80290029002700270506C        
507FC50000D8027002705068CB0000D8027002705068CA0000D8029002900270        
5061060100D8027002705068CC0000D802D002D002B002B00290029002700270        
04D05051F80000D804D004D05061080100D804D004D05061070100D804D004D0        
04D004D05061090100D804D004D05051FA0000D804D004D05051F90000D804D0        
04B004B05053FB0000D802D002D002B002B00290029002700270507FC60000D8        
04D004D004B004B050630A0100D804D004D004B004B05053FC0000D804D004D0        
FF0000D804D004D004B004B05053FE0000D804D004D004B004B05053FD0000D8        
02B002B00290029002700270507FC70000D804D004D004B004B0049004905057        
04B004B0049004905057000100D804D004D004B004B050630B0100D802D002D0        
04B004B050630C0100D804D004D004B004B0049004905057010100D804D004D0        
507FC80000D804D004D004B004B00490049004700470505F020100D804D004D0        
00D804D004D004B004B05043EF0000D802D002D002B002B00290029002700270        
04B00490049050670D0100D804D004D004B004B00490049004700470505F0301        
04905047F10000D804D004D004B004B0049004905047F00000D804D004D004B0        
02D002D002B002B00290029002700270507FC90000D804D004D004B004B00490        
0490049050670E0100D804D004D004B004B00490049004700470505F040100D8        
5047F30000D804D004D004B004B0049004905047F20000D804D004D004B004B0        
02D002B002B00290029002700270507FCA0000D804D004D004B004B004900490        
049004700470505F050100D804D004D004B004B00490049050670F0100D802D0        
04D004D004B004B00490049004700470504FF40000D804D004D004B004B00490        
049004905067100100D804D004D004B004B00490049004700470504FF50000D8        
00D802D002D002B002B00290029002700270507FCB0000D804D004D004B004B0        
049004700470504FF60000D804D004D004B004B00490049004700470505F0601        
04D004D004B004B00490049004700470504FF70000D804D004D004B004B00490        
02700270507FCC0000D804D004D004B004B00490049004700470504FF80000D8        
04D004B004B00490049004700470506F110100D802D002D002B002B002900290        
0470504FF90000D804D004D004B004B00490049004700470505F070100D804D0        
04B004B00490049004700470504FFA0000D804D004D004B004B0049004900470        
506F120100D802D002D002B002B00290029002700270507FCD0000D804D004D0        
04B00490049004700470505F080100D804D004D004B004B00490049004700470        
FC0000D804D004D004B004B00490049004700470504FFB0000D804D004D004B0        
0290029002700270507FCE0000D804D004D004B004B00490049004700470504F        
00D804D004D004B004B00490049004700470506F130100D802D002D002B002B0        
049004700470504FFD0000D804D004D004B004B00490049004700470505F0901        
04B00490049004700470506F140100D85040FD0000E404D004D004B004B00490        
0A0100D802D002D002B002B00290029002700270507FCF0000D804D004D004B0        
0490049004700470504FFE0000D804D004D004B004B00490049004700470505F        
50170E01008850170D01008850170C01008850170B01008804D004D004B004B0        
008850161301008850161201008850161101008850171001008850170F010088        
1901008850161801008850161701008850161601008850161501008850161401        
50161E01008850161D01008850161C01008850161B01008850161A0100885016        
008850142301008850142201008850142101008850162001008850141F010088        
2901008850142801008850142701008850142601008850142501008850142401        
50105D01048850142D01008850142C01008850142B01008850142A0100885014        
00885010D40004885010CE0004885010300201885010010204885010B5010488        
5070D10000F802D002D002B002B00290029002700270507FD00000D850184201        
04CC5070CE0004CC5070300201CC5070010204CC5070B50104CC50705D0104CC        
506F150100D840D040D040B040B04090409040704070507F3F0100C85070D400        
04B00490049004700470506F160100D804D004D004B004B00490049004700470        
400100D804D004D004B004B00490049004700470506F170100D804D004D004B0        
0490049004700470506F180100D840D040D040B040B04090409040704070507F        
00D804D004D004B004B00490049004700470506F190100D804D004D004B004B0        
049004700470506F1A0100D804D004D004B004B00490049004700470505F0B01        
40D040D040B040B04090409040704070507F410100D804D004D004B004B00490        
04D004B004B00490049004700470505F0C0100D850500B0100E450601A0100E4        
0470505F0E0100D804D004D004B004B00490049004700470505F0D0100D804D0        
40B040B04090409040704070507F420100D804D004D004B004B0049004900470        
505F0F0100D804D004D004B004B00490049004700470506F1B0100D840D040D0        
04B00490049004700470505F100100D804D004D004B004B00490049004700470        
430100D804D004D004B004B00490049004700470505F110100D804D004D004B0        
0490049004700470506F1C0100D840D040D040B040B04090409040704070507F        
00D804D004D004B004B00490049004700470505F120100D804D004D004B004B0        
049004700470504F000100D804D004D004B004B00490049004700470504FFF00        
1D0100D840B040B04090409040704070507E440100D804D004D004B004B00490        
0490049004700470505F130100D804D004D004B004B00490049004700470506F        
00D804D004D004B004B00490049004700470504F010100D804D004D004B004B0        
04B00490049004700470504F020100D840B040B04090409040704070507E4501        
030100D804D004D004B004B00490049004700470506F1E0100D804D004D004B0        
4090409040704070507E460100D804D004D004B004B00490049004700470504F        
504F040100D804D004D004B004B00490049004700470505F140100D840B040B0        
04B00490049004700470506F1F0100D804D004D004B004B00490049004700470        
0470505F150100D840B040B04090409040704070507E470100D804D004D004B0        
04B004B00490049004700470504F050100D804D004D004B004B0049004900470        
506F200100D804D004D004B004B00490049004700470504F060100D804D004D0        
0000000000000000000000000000000004D004D004B004B00490049004700470        
0490049004700470500FC10000D802B002B00290029002700270503E990000D8        
00D804D004D004B004B00490049004700470502FD80000D804D004D004B004B0        
049004700470500FC20000D804D004D004B004B00490049004700470501FD000        
C30000D802B002B00290029002700270503E9A0000D804D004D004B004B00490        
0490049004700470502FD90000D804D004D004B004B00490049004700470500F        
00D804D004D004B004B00490049004700470501FD10000D804D004D004B004B0        
CB0000885000C30000E45010D10000E402B002B00290029002700270503E9B00        
5007D00000885007CF0000885003CE0000885003CD0000885003CC0000885003        
00885007D50000885007D40000885007D30000885007D20000885007D1000088        
DB0000885006DA0000885006D90000885006D80000885006D70000885007D600        
500EE0000088500EDF000088500EDE000088500EDD0000885006DC0000885006        
0088500CE5000088500EE4000088500EE3000088500EE2000088500EE1000088        
EB000088500CEA000088500CE9000088500CE8000088500CE7000088500EE600        
500CF0000088500CEF000088500CEE000088500CED000088500CEC000088500C        
00D85008F50000885008F4000088500CF3000088500CF2000088500CF1000088        
503C9E0000D80290029002700270503C9D0000D80290029002700270503C9C00        
027002705038A00000D80290029002700270503C9F0000D80290029002700270        
00D804D004D05031DA0000D8027002705038A20000D8027002705038A10000D8        
00D804D004D05031DB0000D804D004D004B004B00490049004700470502FDA00        
049004700470502FDC0000D804D004D004B004B00490049004700470502FDB00        
049004700470502FDD0000D804D004D05031DC0000D804D004D004B004B00490        
04D004D004B004B00490049004700470502FDE0000D804D004D004B004B00490        
04D004D004B004B00490049004700470502FDF0000D804D004D05031DD0000D8        
04B004B05033DE0000D804D004D004B004B00490049004700470501FD20000D8        
501FD40000D804D004D004B004B00490049004700470501FD30000D804D004D0        
04B00490049004700470502FE00000D804D004D004B004B00490049004700470        
501FD50000D85020E00000E404D004D004B004B05033DF0000D804D004D004B0        
04B00490049004700470501FD60000D804D004D004B004B00490049004700470        
049004700470501FD70000D804D004D004B004B05033E00000D804D004D004B0        
04D004D004B004B00490049004700470502FE10000D804D004D004B004B00490        
04B004B00490049004700470501FD80000D804D004D004B004B05033E10000D8        
500FC40000D804D004D004B004B00490049004700470501FD90000D804D004D0        
04B00490049004700470500FC50000D804D004D004B004B00490049004700470        
0470502FE20000D804D004D004B004B0049004905037E20000D804D004D004B0        
04B004B00490049004700470501FDA0000D804D004D004B004B0049004900470        
5037E30000D804D004D004B004B00490049004700470500FC60000D804D004D0        
04D004B004B00490049004700470502FE30000D804D004D004B004B004900490        
0470500FC70000D804D004D004B004B00490049004700470501FDB0000D804D0        
04D004D004B004B0049004905037E40000D804D004D004B004B0049004900470        
04700470502FE40000D804D004D004B004B00490049004700470500FC80000D8        
04D004B004B00490049004700470501FDC0000D804D004D004B004B004900490        
0470503FE50000D804D004D004B004B00490049004700470500FC90000D804D0        
04B004B00490049004700470500FCA0000D804D004D004B004B0049004900470        
501FDD0000D804D004D004B004B00490049004700470502FE50000D804D004D0        
04B00490049004700470500FCB0000D804D004D004B004B00490049004700470        
CC0000D804D004D004B004B00490049004700470503FE60000D804D004D004B0        
0490049004700470502FE60000D804D004D004B004B00490049004700470500F        
00D804D004D004B004B00490049004700470501FDE0000D804D004D004B004B0        
049004700470503FE70000D804D004D004B004B00490049004700470500FCD00        
04D004D004B004B00490049004700470500FCE0000D804D004D004B004B00490        
04700470501FDF0000D804D004D004B004B00490049004700470502FE70000D8        
04D004B004B00490049004700470500FCF0000D804D004D004B004B004900490        
0470500FD00000D804D004D004B004B00490049004700470503FE80000D804D0        
04B004B00490049004700470502FE80000D804D004D004B004B0049004900470        
500FD10000D804D004D004B004B00490049004700470501FE00000D804D004D0        
04B00490049004700470503FE90000D804D004D004B004B00490049004700470        
D30000D804D004D004B004B00490049004700470500FD20000D804D004D004B0        
0490049004700470502FE90000D804D004D004B004B00490049004700470500F        
00D804D004D004B004B00490049004700470501FE10000D804D004D004B004B0        
50105D0104CC5010E20000F804D004D004B004B00490049004700470503FEA00        
010204CC04D004D004B004B00490049004700470502FEA0000D85010B50104CC        
5000300201CC5000010204CC5000B50104CC5010300201CC50005D0104CC5010        
CE0004CC5010CE0004CC04D004D004B004B00490049004700470503FEB0000D8        
04CC04D004D004B004B00490049004700470502FEB0000D85010D40004CC5000        
FA0000885008F90000885008F80000885008F70000885008F60000885000D400        
5008FF0000885008FE0000885008FD0000885008FC0000885008FB0000885008        
04885000B501048850005D010488500803010088500801010088500800010088        
EC0000D85001820100885000D40004885000CE00048850003002018850000102        
0490049004700470503FED0000D804D004D004B004B00490049004700470503F        
00D804D004D004B004B00490049004700470502FEC0000D804D004D004B004B0        
00D800D100D150017F0100D804D004D004B004B00490049004700470502FED00        
5011940100D85030EE0000E404D004D004B004B00490049004700470503FEE00        
5011950100D804D004D004B004B00490049004700470502FEE0000D800D100D1        
00D15011960100D800D100D15001810100D800D100D15001800100D800D100D1        
04700470503FEF0000D800D100D15001830100D800D100D15001820100D800D1        
04D004B004B00490049004700470502FEF0000D804D004D004B004B004900490        
00D100D15011980100D800D100D15001840100D800D100D15011970100D804D0        
50018501008850018401008850018301008800D100D100B100B15003850100D8        
008850018A010088500189010088500188010088500187010088500186010088        
9001008850018F01008850018E01008850018D01008850018C01008850018B01        
049004700470503FF00000D85001930100885001920100885001910100885001        
04D004D004B004B00490049004700470503FF10000D804D004D004B004B00490        
B50104CC50205D0104CC04D004D004B004B00490049004700470502FF00000D8        
049004700470503FF20000D85020CE0004CC5020300201CC5020010204CC5020        
00D800D100D100B100B15013990100D85020D40004CC04D004D004B004B00490        
000000000000000000000000000000000000000000D100D100B100B150139A01     EOP
000000000000000000000004000000000000000F004000400000250000004006 SOP    
0000000000000000000000000000A0030000000000000000000100010000000B     EOP
000000000000000000000005000000000000000F158015800000250000004006 SOP    
0000000000000000000000000000A0030000000000000000000000000000000B        
0490049004700470505F160100D840B040B04090409040704070507E480100D8        
00D804D004D004B004B00490049004700470504F070100D804D004D004B004B0        
04D004B004B00490049004700470504F080100D84090409040704070507C4901        
4070507C4A0100D804D004D004B004B00490049004700470506F210100D804D0        
090100D804D004D004B004B00490049004700470505F170100D8409040904070        
0490049004700470504F0A0100D804D004D004B004B00490049004700470504F        
04700470506F220100D84090409040704070507C4B0100D804D004D004B004B0        
04D004B004B00490049004700470505F180100D804D004D004B004B004900490        
04B00490049004700470504F0B0100D84090409040704070507C4C0100D804D0        
230100D804D004D004B004B00490049004700470504F0C0100D804D004D004B0        
4090409040704070507C4D0100D804D004D004B004B00490049004700470506F        
4070407050784E0100D804D004D004B004B00490049004700470505F190100D8        
4F0100D850405D0104CC04D004D004B004B00490049004700470504F0D0100D8        
1A0100D804D004D004B004B00490049004700470506F240100D8407040705078        
B50104CC407040705078500100D804D004D004B004B00490049004700470505F        
00D8407040705078510100D85040CE0004CC5040300201CC5040010204CC5040        
5071880100D85040D40004CC04D004D004B004B00490049004700470506F2501        
50501C0100F804D004D004B004B00490049004700470505F1B0100D880D080D0        
430100885040300201CC50505D0104CC80D080D05071890100D850401E0204CC        
5018480100885018470100885018460100885018450100885018440100885018        
008850184D01008850184C01008850184B01008850184A010088501849010088        
5301008850185201008850185101008850185001008850184F01008850184E01        
50188E01008850188D01008850188C01008850188B0100885018540100885018        
008850189301008850189201008850189101008850189001008850188F010088        
9901008850189801008850189701008850189601008850189501008850189401        
50189E01008850189D01008850189C01008850189B01008850189A0100885018        
00885018A30100885018A20100885018A10100885018A001008850189F010088        
A90100885018A80100885018A70100885018A60100885018A50100885018A401        
5018AE0100885018AD0100885018AC0100885018AB0100885018AA0100885018        
008850103002018850101E0204885018B10100885018B00100885018AF010088        
4400008850114300008850114200008850114100008850114000008850113F00        
5011490000885011480000885011470000885011460000885011450000885011        
008850104D00048850114D00008850114C00008850114B00008850114A000088        
5300008850115200008850115100008850115000008850114F00008850114E00        
50718A0100D85011570000885011560000885011550000885011540000885011        
80B050738D0100D880D080D050718C0100D880D080D050718B0100D880D080D0        
80D080B080B050738F0100D880D080D080B080B050738E0100D880D080D080B0        
00D880D080D080B080B05073910100D880D080D080B080B05073900100D880D0        
80D080B080B0809080905077930100D880D080D080B080B08090809050779201        
80B0809080905077950100D880D080D080B080B0809080905077940100D880D0        
270100D804D004D004B004B00490049004700470506F260100D880D080D080B0        
0490049004700470506F280100D804D004D004B004B00490049004700470506F        
00D804D004D004B004B00490049004700470506F290100D804D004D004B004B0        
049004700470506F2A0100D880D080D080B080B08090809080708070507F9601        
300201CC5060010204CC5060B50104CC50605D0104CC04D004D004B004B00490        
80B080B08090809080708070507F970100D85060D40004CC5060CE0004CC5060        
00D400D45061D60000C850604D0004CC5060300201CC50601E0204CC80D080D0        
00D800D400D45061D90000D800D400D45061D80000D800D400D45061D70000D8        
8090809080708070507F980100D800D400D45061DB0000D800D400D45061DA00        
00B400B45063DD0000D800D400D400B400B45063DC0000D880D080D080B080B0        
D40004CC5050CE0004CC5050300201CC5050010204CC5050B50104CC00D400D4        
80708070507F990100D850501E0204CC00D400D400B400B45063DE0000D85050        
0072505F790000C850504D0004CC5050300201CC80D080D080B080B080908090        
7A0000D800D400D400B400B45063DF0000D800D200D200B200B2009200920072        
0092009200720072505F7B0000D800D200D200B200B20092009200720072505F        
00D880D080D080B080B08090809080708070507F9A0100D800D200D200B200B2        
00D200B200B20092009200720072505F7C0000D800D400D400B400B45063E000        
009200720072505E7E0000D800B200B20092009200720072505E7D0000D800D2        
E10000D880D080D080B080B08090809080708070507F9B0100D800B200B20092        
00B200B20092009200720072505E7F0000D800D400D400B400B4009400945067        
00B400B4009400945067E20000D800B200B20092009200720072505E800000D8        
80708070507F9C0100D800B200B20092009200720072505E810000D800D400D4        
505C830000D80092009200720072505C820000D880D080D080B080B080908090        
505C840000D800D400D400B400B4009400945067E30000D80092009200720072        
00720072505C860000D80092009200720072505C850000D80092009200720072        
505C870000D880D080D080B080B08090809080708070507F9D0100D800920092        
5058880000D800D400D400B400B4009400945067E40000D80092009200720072        
007250588B0000D80072007250588A0000D8007200725058890000D800720072        
80D080B080B08090809080708070507F9E0100D80072007250588C0000D80072        
5051BF0000D800D400D400B400B4009400945067E50000D850709E0100E480D0        
5051C00000D800D200D200B200B20092009200720072504F3C0000C800D400D4        
00720072504F3D0000D800D400D400B400B4009400945067E60000D800D400D4        
80D080B080B08090809080708070507F9F0100D800D200D200B200B200920092        
00720072504F3E0000D800D400D45051C20000D800D400D45051C10000D880D0        
00D200B200B20092009200720072504F3F0000D800D200D200B200B200920092        
8070507FA00100D800D400D400B400B40094009400740074506FE70000D800D2        
00D45051C40000D800D400D45051C30000D880D080D080B080B0809080908070        
0072504F410000D800D200D200B200B20092009200720072504F400000D800D4        
00B400B40094009400740074506FE80000D800D200D200B200B2009200920072        
5053C50000D880D080D080B080B08090809080708070507FA10100D800D400D4        
00D800D200D200B200B20092009200720072504F420000D800D400D400B400B4        
00D400B400B40094009400740074506FE90000D800D400D400B400B45053C600        
8070507FA20100D800D200D200B200B20092009200720072504F430000D800D4        
00000000000000000000000000000000000080D080D080B080B0809080908070        
00B150139C0100D800D100D100B100B150139B0100D8007100715028F70100C8        
049004700470503FF30000D800D100D100B100B150139D0100D800D100D100B1        
00D100B100B15003860100D8007100715028F80100D804D004D004B004B00490        
00D100B100B15003870100D800D100D100B100B10091009150179E0100D800D1        
00D800D100D100B100B15003890100D800D100D100B100B15003880100D800D1        
50179F0100D850201E0204C804D004D004B004B00490049004700470503FF400        
00D800D100D100B100B10091009150078A0100D800D100D100B100B100910091        
00D100B100B10091009150078C0100D800D100D100B100B10091009150078B01        
00D250212B0200D804D004D004B004B00490049004700470503FF50000D800D1        
00D800D200D250212C0200D800D100D100B100B1009100915017A00100D800D2        
9601008850019501008850019401008800D100D100B100B10091009150078D01        
50039B01008850039A0100885003990100885003980100885003970100885001        
00885003A001008850039F01008850039E01008850039D01008850039C010088        
A60100885003A50100885003A40100885003A30100885003A20100885003A101        
5002AB0100885002AA0100885003A90100885003A80100885003A70100885003        
0470503FF60000D85002AF0100885002AE0100885002AD0100885002AC010088        
04B004B00490049004700470503FF70000D804D004D004B004B0049004900470        
50212D0200D804D004D004B004B00490049004700470503FF80000D804D004D0        
00B25023300200D800D200D250212F0200D800D200D250212E0200D800D200D2        
503FF90000D800D200D200B200B25023000000D85020300201D800D200D200B2        
00D800D200D200B200B25023010000D804D004D004B004B00490049004700470        
00D800D200D200B200B25023020000D800D100D100B100B1009100915017A101        
00B10091009100710071501FA30100D800D100D100B100B1009100915017A201        
030000D804D004D004B004B00490049004700470503FFA0000D800D100D100B1        
00D100D100B100B10091009100710071501FA40100D800D200D200B200B25023        
00B200B25023040000D800D100D100B100B10091009100710071501FA50100D8        
503FFB0000D800D100D100B100B10091009100710071501FA60100D800D200D2        
00D100B100B10091009150078E0100D804D004D004B004B00490049004700470        
00925027050000D800D100D100B100B10091009100710071500F8F0100D800D1        
00D100D100B100B10091009100710071501FA70100D800D200D200B200B20092        
00710071500F900100D804D004D004B004B00490049004700470503FFC0000D8        
00D800D200D200B200B2009200925027060000D800D100D100B100B100910091        
009100710071501FA80100D800D100D100B100B10091009100710071500F9101        
00D100D100B100B10091009100710071500F920100D800D100D100B100B10091        
009200925027070000D804D004D004B004B00490049004700470503FFD0000D8        
00D800D100D100B100B10091009100710071500F930100D800D200D200B200B2        
009100710071500F940100D800D100D100B100B10091009100710071501FA901        
04D004D004B004B00490049004700470503FFE0000D800D100D100B100B10091        
00D850305D0104CC00D200D200B200B2009200925027080000D85030FF0000F8        
5027090000D85030B50104CC00D100D100B100B10091009100710071500F9501        
0091009100710071501FAA0100D85030010204CC00D200D200B200B200920092        
500F960100D85030CE0004CC5010AA0100E45030300201CC00D100D100B100B1        
00720072502F0A0000D85030D40004CC00D100D100B100B10091009100710071        
0091009100710071501FAB0100D850301E0204CC00D200D200B200B200920092        
009100710071500F970100D85000960100E45030300201CC00D100D100B100B1        
00B10091009100710071500F980100D850304D0004CC00D100D100B100B10091        
AC0100D800D200D200B200B20092009200720072502F0B0000D800D100D100B1        
00885002B10100885002B001008800D100D100B100B10091009100710071501F        
B70100885002B60100885002B50100885002B40100885002B30100885002B201        
5002BC0100885002BB0100885002BA0100885002B90100885002B80100885002        
008850042E02008850001E0204885004FB0100885004FA0100885002BD010088        
0200008850040100008850040000008850003002018850043002008850042F02        
5004070000885004060000885004050000885004040000885004030000885004        
008850040C00008850040B00008850040A000088500409000088500408000088        
1200008850041100008850041000008850040F00008850040E00008850040D00        
5004170000885004160000885004150000885004140000885004130000885004        
008850041C00008850041B00008850041A000088500419000088500418000088        
2200008850042100008850042000008850041F00008850041E00008850041D00        
00D85031170100D800D800D85031160100D850004D0004885004230000885004        
00D800D850311A0100D800D800D85031190100D800D800D85031180100D800D8        
00B850331D0100D800D800D800B800B850331C0100D800D800D850311B0100D8        
0D0000D800D200D200B200B20092009200720072502F0C0000D800D800D800B8        
00D800D800B800B850331E0100D800D200D200B200B20092009200720072502F        
00720072502F0F0000D800D200D200B200B20092009200720072502F0E0000D8        
502F100000D800D800D800B800B850331F0100D800D200D200B200B200920092        
00720072502F110000D85020100000E400D200D200B200B20092009200720072        
502F120000D800D800D800B800B85033200100D800D200D200B200B200920092        
00B10091009100710071501FAD0100D800D200D200B200B20092009200720072        
210100D800D100D100B100B10091009100710071501FAE0100D800D100D100B1        
00D100D100B100B10091009100710071501FAF0100D800D800D800B800B85033        
00720072502F130000D800D100D100B100B10091009100710071501FB00100D8        
00D800D800D800B800B8009800985037220100D800D200D200B200B200920092        
009100710071501FB20100D800D100D100B100B10091009100710071501FB101        
00D100D100B100B10091009100710071501FB30100D800D100D100B100B10091        
0092009200720072502F140000D800D800D800B800B8009800985037230100D8        
00D800D100D100B100B10091009100710071501FB40100D800D200D200B200B2        
00B8009800985037240100D800D100D100B100B10091009100710071501FB501        
B60100D800D200D200B200B20092009200720072502F150000D800D800D800B8        
0091009100710071500F990100D800D100D100B100B10091009100710071501F        
00D800D100D100B100B10091009100710071500F9A0100D800D100D100B100B1        
00B10091009100710071501FB70100D800D800D800B800B80098009850372501        
9B0100D800D200D200B200B20092009200720072502F160000D800D100D100B1        
00B800B8009800985037260100D800D100D100B100B10091009100710071500F        
501FB80100D800D100D100B100B10091009100710071500F9C0100D800D800D8        
00B20092009200720072502F170000D800D100D100B100B10091009100710071        
000000000000000000000000000000000000000000000000000000D200D200B2     EOP
000000000000000000000005000000000000000F004000400000250000004006 SOP    
0000000000000000000000000000A0030000000000000000000100010000000B     EOP
000000000000000000000006000000000000000F156015600000250000004006 SOP    
0000000000000000000000000000A0030000000000000000000000000000000B        
00B200B20092009200720072504F440000D800D400D400B400B45053C70000D8        
7C00008850115B00008850115A00008850115900008850115800008800D200D2        
50128100008850128000008850127F00008850127E00008850127D0000885012        
0088501286000088501285000088501284000088501283000088501282000088        
8C00008850128B00008850128A00008850128900008850128800008850128700        
5012C30000885012C200008850128F00008850128E00008850128D0000885012        
00885012C80000885012C70000885012C60000885012C50000885012C4000088        
CE0000885012CD0000885012CC0000885012CB0000885012CA0000885012C900        
5012D30000885012D20000885012D10000885012D00000885012CF0000885012        
00885012D80000885012D70000885012D60000885012D50000885012D4000088        
DE0000885016DD0000885016DC0000885016DB0000885016DA0000885016D900        
5016E30000885016E20000885016E10000885016E00000885016DF0000885016        
00885016E80000885016E70000885016E60000885016E50000885016E4000088        
EE0000885014ED0000885014EC0000885016EB0000885014EA0000885016E900        
5014F30000885014F20000885014F10000885014F00000885014EF0000885014        
00885014F80000885014F70000885014F60000885014F50000885014F4000088        
FE0000885014FD0000885014FC0000885014FB0000885014FA0000885014F900        
507FA30100D85010300201885010BF0104885014000100885014FF0000885014        
80B08090809080708070507FA40100D880D080D080B080B08090809080708070        
A60100D880D080D080B080B08090809080708070507FA50100D880D080D080B0        
8090809080708070507FA70100D880D080D080B080B08090809080708070507F        
00D880D080D080B080B08090809080708070507FA80100D880D080D080B080B0        
809080708070507FAA0100D880D080D080B080B08090809080708070507FA901        
00D400D400B400B40094009400740074506FEA0000D880D080D080B080B08090        
00740074506FEC0000D800D400D400B400B40094009400740074506FEB0000D8        
80D080B080B08090809080708070507FAB0100D800D400D400B400B400940094        
00D85060ED0000E400D400D400B400B40094009400740074506FED0000D880D0        
009400740074506FEF0000D800D400D400B400B40094009400740074506FEE00        
80D080D080B080B08090809080708070507FAC0100D800D400D400B400B40094        
00740074506FF10000D800D400D400B400B40094009400740074506FF00000D8        
00D400B400B40094009400740074506FF20000D800D400D400B400B400940094        
8070507FAD0100D800D400D400B400B40094009400740074506FF30000D800D4        
00B400B40094009400740074506FF40000D880D080D080B080B0809080908070        
00D400D400B400B45053C90000D800D400D400B400B45053C80000D800D400D4        
00D400D400B400B4009400945057CB0000D800D400D400B400B45053CA0000D8        
00740074506FF50000D880D080D080B080B08090809080708070507FAE0100D8        
00945057CC0000D85070300201CC50701E0204CC00D400D400B400B400940094        
00D400B400B4009400945057CD0000D850704D0004CC00D400D400B400B40094        
00D85070BF0104CC00D400D400B400B40094009400740074506FF60000D800D4        
009400945057CF0000D85070300201CC00D400D400B400B4009400945057CE00        
00D800D400D400B400B40094009400740074505FD00000D800D400D400B400B4        
009400740074506FF70000D800D400D400B400B40094009400740074505FD100        
00D400D400B400B40094009400740074505FD20000D800D400D400B400B40094        
049004905077E80000C800D400D400B400B40094009400740074505FD30000D8        
00D800D400D400B400B40094009400740074505FD40000D804D004D004B004B0        
009400740074505FD50000D800D400D400B400B40094009400740074506FF800        
D60000D804D004D004B004B0049004905077E90000D800D400D400B400B40094        
0074505FD70000D85050D60000E400D400D400B400B40094009400740074505F        
00B400B40094009400740074506FF90000D800D400D400B400B4009400940074        
00740074505FD80000D804D004D004B004B0049004905077EA0000D800D400D4        
00D400B400B40094009400740074505FD90000D800D400D400B400B400940094        
04905077EB0000D800D200D200B200B20092009200720072504F450000D800D4        
00D400D400B400B40094009400740074506FFA0000D804D004D004B004B00490        
00720072504F460000D800D400D400B400B40094009400740074505FDA0000D8        
00D200B200B20092009200720072504F470000D800D200D200B200B200920092        
0470507FEC0000D800D400D400B400B40094009400740074506FFB0000D800D2        
00B400B40094009400740074505FDB0000D804D004D004B004B0049004900470        
504F490000D800D200D200B200B20092009200720072504F480000D800D400D4        
00B40094009400740074506FFC0000D800D200D200B200B20092009200720072        
DC0000D804D004D004B004B00490049004700470507FED0000D800D400D400B4        
0092009200720072504F4A0000D800D400D400B400B40094009400740074505F        
00B200B20092009200720072504F4B0000D850404A0000E400D200D200B200B2        
506FFD0000D804D004D004B004B00490049004700470507FEE0000D800D200D2        
DD0000D85060300201CC5060BF0104CC00D400D400B400B40094009400740074        
0072504F4C0000D850604E0104CC00D400D400B400B40094009400740074505F        
04B004B00490049004700470507FEF0000D800D200D200B200B2009200920072        
504F4D0000D800D400D400B400B40094009400740074505FDE0000D804D004D0        
00720072504F4E0000D850404D0004D800D200D200B200B20092009200720072        
00D200B200B20092009200720072504F4F0000D800D200D200B200B200920092        
0870506F830100C804D004D004B004B00490049004700470507FF00000D800D2        
00B400B40094009400740074505FDF0000D808D008D008B008B0089008900870        
504F510000D800D200D200B200B20092009200720072504F500000D800D400D4        
04B00490049004700470507FF10000D800D200D200B200B20092009200720072        
E00000D808D008D008B008B00890089008700870506F840100D804D004D004B0        
0092009200720072504F520000D800D400D400B400B40094009400740074505F        
00D800D200D200B200B20092009200720072504F530000D800D200D200B200B2        
089008700870506F850100D804D004D004B004B00490049004700470507FF200        
00D400D400B400B40094009400740074505FE10000D808D008D008B008B00890        
00720072504F550000D800D200D200B200B20092009200720072504F540000D8        
008850119500008850119400008850119300008800D200D200B200B200920092        
9B00008850119A00008850119900008850119800008850119700008850119600        
5011A000008850119F00008850119E00008850119D00008850119C0000885011        
00885011A50000885011A40000885011A30000885011A20000885011A1000088        
AB0000885011AA0000885011A90000885011A80000885011A70000885011A600        
0000000000000000000000000000000000005011AD0000885011AC0000885011        
00780078503F270100D800D100D100B100B10091009100710071500F9D0100D8        
00D100B100B10091009100710071500F9E0100D800D800D800B800B800980098        
0072502F180000D800D100D100B100B10091009100710071500F9F0100D800D1        
00B100B10091009100710071501FB90100D800D200D200B200B2009200920072        
500FA00100D800D800D800B800B80098009800780078503F280100D800D100D1        
00B10091009100710071500FA10100D800D100D100B100B10091009100710071        
BA0100D800D200D200B200B20092009200720072502F190000D800D100D100B1        
0098009800780078503F290100D800D100D100B100B10091009100710071501F        
500FA20100D850104D0004CC5010300201CC50101E0204CC00D800D800B800B8        
00B20092009200720072502F1A0000D800D100D100B100B10091009100710071        
0098009800780078503F2A0100D85010300201CC5010BF0104CC00D200D200B2        
00D800D100D100B100B10091009100710071500FA30100D800D800D800B800B8        
009200720072502F1B0000D800D100D100B100B10091009100710071500FA401        
00D100D100B100B10091009100710071500FA50100D800D200D200B200B20092        
00710071500FA60100D800D800D800B800B80098009800780078503F2B0100D8        
0072502F1C0000D85000300201CC50001E0204CC00D100D100B100B100910091        
5000300201CC5000BF0104CC50004D0004CC00D200D200B200B2009200920072        
00D800D800B800B80098009800780078503F2C0100D804D004D050011F0000D8        
00D804D004D05001210000D804D004D05011390000D804D004D05001200000D8        
00D804D004D050113A0000D800D200D200B200B20092009200720072502F1D00        
0098009800780078503F2D0100D804D004D05001230000D804D004D050012200        
04D05001240000D804D004D050113B0000D850302D0100E400D800D800B800B8        
04D050113C0000D800D200D200B200B20092009200720072502F1E0000D804D0        
008850081B01008850081A01008850081901008804D004D05001250000D804D0        
2101008850082001008850081F01008850081E01008850081D01008850081C01        
5008260100885008250100885008240100885008230100885008220100885008        
008850082B01008850082A010088500829010088500828010088500827010088        
3101008850083001008850082F01008850082E01008850082D01008850082C01        
5008360100885008350100885008340100885008330100885008320100885008        
008850083B01008850083A010088500839010088500838010088500837010088        
4201008850084001008850083F01008850083E01008850083D01008850083C01        
5001240000885001230000885001220000885000300201885000BF0104885008        
0088500129000088500128000088500127000088500126000088500125000088        
2F00008850012E00008850012D00008850012C00008850012B00008850012A00        
5001340000885001330000885001320000885001310000885001300000885001        
0088500139000088500138000088500137000088500136000088500135000088        
3F00008850033E00008850033D00008850033C00008850013B00008850013A00        
5003440000885003430000885003420000885003410000885003400000885003        
2F0100D800D800D800B800B80098009800780078503F2E0100D8500345000088        
0098009800780078503F300100D800D800D800B800B80098009800780078503F        
00D800D800D800B800B80098009800780078503F310100D800D800D800B800B8        
009800780078503F330100D800D800D800B800B80098009800780078503F3201        
00D800D800B800B80098009800780078503F340100D800D800D800B800B80098        
00720072502F200000D800D200D200B200B20092009200720072502F1F0000D8        
00D800B800B80098009800780078503F350100D800D200D200B200B200920092        
049004700470502CA00000C85020300201CC5020BF0104CC50204D0004CC00D8        
00D80490049004700470502CA20000D80490049004700470502CA10000D80490        
00D800D800D800B800B80098009800780078503F360100D8047004705028A300        
A70000D8047004705028A60000D8047004705028A50000D8047004705028A400        
5021D70000D808D008D05021D60000D8047004705028A80000D8047004705028        
00B800B80098009800780078503F370100D808D008D05021D80000D808D008D0        
04D050113D0000D808D008D05021DA0000D808D008D05021D90000D800D800D8        
04D004D050113F0000D804D004D050113E0000D808D008D05021DB0000D804D0        
00B800B80098009800780078503F380100D804D004D004B004B05013400000D8        
420000D804D004D004B004B05013410000D808D008D05021DC0000D800D800D8        
04B05013430000D808D008D008B008B05023DD0000D804D004D004B004B05013        
009800780078503F390100D804D004D004B004B05013440000D804D004D004B0        
04B05013450000D808D008D008B008B05023DE0000D800D800D800B800B80098        
04B0049004905017470000D804D004D004B004B05013460000D804D004D004B0        
08B05023DF0000D804D004D004B004B0049004905017480000D804D004D004B0        
490000D800D800D800B800B80098009800780078503F3A0100D808D008D008B0        
4A0000D808D008D008B008B05023E00000D804D004D004B004B0049004905017        
04D004D004B004B00490049050174B0000D804D004D004B004B0049004905017        
0098009800780078503F3B0100D804D004D004B004B00490049050174C0000D8        
04700470501F4D0000D808D008D008B008B05023E10000D800D800D800B800B8        
04D004B004B00490049004700470501F4E0000D804D004D004B004B004900490        
04B00490049004700470501F4F0000D808D008D008B008B05023E20000D804D0        
E30000D800D800D800B800B80098009800780078503F3C0100D804D004D004B0        
04D004D004B004B00490049004700470501F500000D808D008D008B008B05023        
04B004B00490049004700470501F510000D804D004D004B004B05003260000D8        
5027E40000D800D800D800B800B80098009800780078503F3D0100D804D004D0        
04D004D004B004B05003270000D850303E0100F808D008D008B008B008900890        
501F520000D85030300201CC04D004D004B004B05003280000D85030BF0104CC        
089008905027E50000D850304E0104CC04D004D004B004B00490049004700470        
2A0000D804D004D004B004B05003290000D85010520000E408D008D008B008B0        
08905027E60000D804D004D004B004B050032B0000D804D004D004B004B05003        
C40100C804D004D004B004B00490049050072C0000D808D008D008B008B00890        
04D004D004B004B00490049004700470501F530000D81090109010701070503C        
E70000D8107010705038C50100D804D004D004B004B00490049050072D0000D8        
04D004D004B004B00490049050072E0000D808D008D008B008B0089008905027        
04D004D004B004B00490049004700470501F540000D8107010705038C60100D8        
2F0000D808D008D008B008B0089008905027E80000D8107010705038C70100D8        
04905007300000D8107010705038C80100D804D004D004B004B0049004905007        
04D004D004B004B00490049004700470501F550000D804D004D004B004B00490     EOP
000000000000000000000006000000000000000F004000400000250000004006 SOP    
0000000000000000000000000000A0030000000000000000000100010000000B     EOP
000000000000000000000007000000000000000F14E014E00000250000004006 SOP    
0000000000000000000000000000A0030000000000000000000000000000000B        
00885011B20000885011B10000885011B00000885011AF0000885011AE000088        
EB0000885011B80000885011B60000885011B50000885011B40000885011B300        
5018F00000885018EF0000885018EE0000885018ED0000885018EC0000885018        
00885018F50000885018F40000885018F30000885018F20000885018F1000088        
FB0000885018FA0000885018F90000885018F80000885018F70000885018F600        
5018000100885018FF0000885018FE0000885018FD0000885018FC0000885018        
0088501805010088501804010088501803010088501802010088501801010088        
4E01048850180A01008850180901008850180801008850180701008850180601        
50148A0100885014890100885014880100885014870100885014860100885010        
008850148F01008850148E01008850148D01008850148C01008850148B010088        
9501008850149401008850149301008850149201008850149101008850149001        
50149A0100885014990100885014980100885014970100885014960100885014        
04700470507FF40000D804D004D004B004B00490049004700470507FF30000D8        
04D004B004B00490049004700470507FF50000D804D004D004B004B004900490        
0470507FF70000D804D004D004B004B00490049004700470507FF60000D804D0        
04B004B00490049004700470507FF80000D804D004D004B004B0049004900470        
04D004D004B004B00490049004700470507FF90000D85070F80000E404D004D0        
04700470507FFB0000D804D004D004B004B00490049004700470507FFA0000D8        
08D008B008B00890089008700870506F860100D804D004D004B004B004900490        
089008700870506E880100D808B008B00890089008700870506E870100D808D0        
0870506E8A0100D808B008B00890089008700870506E890100D808B008B00890        
04D004D004B004B00490049004700470507FFC0000D808B008B0089008900870        
0890089008700870506E8C0100D808B008B00890089008700870506E8B0100D8        
08700870506C8E0100D808B008B00890089008700870506E8D0100D808B008B0        
0490049004700470507FFD0000D80890089008700870506C8F0100D808900890        
08700870506C910100D80890089008700870506C900100D804D004D004B004B0        
0890089008700870506C930100D80890089008700870506C920100D808900890        
0470507FFE0000D8087008705068950100D80890089008700870506C940100D8        
08705068970100D8087008705068960100D804D004D004B004B0049004900470        
08705068980100D800D400D400B400B40094009400740074505FE20000D80870        
0074505FE40000D800D400D400B400B40094009400740074505FE30000D80870        
04B004B00490049004700470507FFF0000D800D400D400B400B4009400940074        
00B400B40094009400740074505FE50000D8087008705068990100D804D004D0        
00B400B40094009400740074505FE60000D80870087050689A0100D800D400D4        
04B004B00490049004700470507F000100D80870087050689B0100D800D400D4        
5050300201CC10D010D05061CA0100D85050BF0104CC5050E70000F804D004D0        
20D020B020B02090209020702070505F200000C85050300201CC50504E0104CC        
20D020B020B02090209020702070505F210000D810D010D05061CB0100D820D0        
10D05061CC0100D804D004D004B004B00490049004700470507F010100D820D0        
10D05061CD0100D820D020D020B020B02090209020702070505F220000D810D0        
2070505F240000D820D020D020B020B02090209020702070505F230000D810D0        
04B004B00490049004700470507F020100D820D020D020B020B0209020902070        
2070505F250000D810D010D05061CF0100D810D010D05061CE0100D804D004D0        
20B020B02090209020702070505F260000D820D020D020B020B0209020902070        
04B004B00490049004700470507F030100D810D010D05061D00100D820D020D0        
5061D10100D820D020D020B020B02090209020702070505F270000D804D004D0        
505F290000D820D020D020B020B02090209020702070505F280000D810D010D0        
00D810D010D010B010B05063D20100D820D020D020B020B02090209020702070        
209020702070505F2A0000D804D004D004B004B00490049004700470507F0401        
00D200D200B200B20092009200720072504F560000D820D020D020B020B02090        
20B020B02090209020702070505F2B0000D810D010D010B010B05063D30100D8        
5063D40100D804D004D004B004B00490049004700470507F050100D820D020D0        
00D800D200D200B200B20092009200720072504F570000D810D010D010B010B0        
209020702070505F2C0000D800D200D200B200B20092009200720072504F5800        
0470507F060100D810D010D010B010B05063D50100D820D020D020B020B02090        
5063D60100D85040BF0104CC5040590000F804D004D004B004B0049004900470        
2D0000D804D004D004B004B05043900000C85040300201CC10D010D010B010B0        
0490049004700470507F070100D820D020D020B020B02090209020702070505F        
910000D85070080100F810D010D010B010B05063D70100D804D004D004B004B0        
01CC04D004D004B004B05043920000D850704E0104CC04D004D004B004B05043        
2090209020702070505F2E0000D810D010D010B010B05063D80100D850703002        
EA0004CC04D004D004B004B05043930000D85070B10004CC20D020D020B020B0        
9D01008850149C01008850149B01008804D004D004B004B05043940000D85070        
5014D00100885014CF0100885014CE0100885014CD01008850149E0100885014        
00885014D50100885014D40100885014D30100885014D20100885014D1010088        
DB0100885014DA0100885014D90100885014D80100885014D70100885014D601        
5014E00100885014DF0100885014DE0100885014DD0100885014DC0100885014        
00885014E50100885014E40100885014E30100885014E20100885014E1010088        
EB0100885014EA0100885014E90100885014E80100885014E70100885014E601        
5014F00100885014EF0100885014EE0100885014ED0100885014EC0100885014        
00885014F50100885014F40100885014F30100885014F20100885014F1010088        
250000885012240000885012230000885010300201885014F70100885014F601        
50122A0000885012290000885012280000885012270000885012260000885012        
008850122F00008850122E00008850122D00008850122C00008850122B000088        
3500008850123400008850123300008850123200008850123100008850123000        
50123A0000885012390000885012380000885012370000885012360000885012        
008850123F00008850123E00008850123D00008850123C00008850123B000088        
340100885011330100885010EA0004885010B100048850124100008850124000        
5011390100885011380100885011370100885011360100885011350100885011        
80D080B080B08090809080708070507F700100C850113B01008850113A010088        
8070507F720100D880D080D080B080B08090809080708070507F710100D880D0        
00000000000000000000000000000000000080D080D080B080B0809080908070        
310000D808D008D008B008B0089008905027E90000D8107010705038C90100D8        
04905007320000D8107010705038CA0100D804D004D004B004B0049004905007        
CB0100D808D008D008B008B0089008905027EA0000D804D004D004B004B00490        
330000D804D004D004B004B00490049004700470501F560000D8107010705038        
008850034700008850034600008804D004D004B004B00490049004700470500F        
4D00008850024C00008850024B00008850034A00008850034900008850034800        
50025200008850025100008850025000008850024F00008850024E0000885002        
0088500257000088500256000088500255000088500254000088500253000088        
5D00008850025C00008850025B00008850025A00008850025900008850025800        
50026200008850026100008850026000008850025F00008850025E0000885002        
00885004A40000885004A3000088500265000088500264000088500263000088        
AA0000885004A90000885004A80000885004A70000885004A60000885004A500        
5004DC0000885004DB0000885004DA0000885004D90000885004AB0000885004        
00885004E10000885004E00000885004DF0000885004DE0000885004DD000088        
E70000885004E60000885004E50000885004E40000885004E30000885004E200        
5004EC0000885004EB0000885004EA0000885004E90000885004E80000885004        
00885004F10000885004F00000885004EF0000885004EE0000885004ED000088        
F70000885004F60000885004F50000885004F40000885004F30000885004F200        
5004FC0000885004FB0000885004FA0000885004F90000885004F80000885004        
00885004010100885004000100885004FF0000885004FE0000885004FD000088        
CA0100885008C90100885008C80100885008C701008850004E01048850040201        
5031F80100D85008CE0100885008CD0100885008CC0100885008CB0100885008        
20D05031FB0100D820D020D05031FA0100D820D020D05031F90100D820D020D0        
20D020D05031FE0100D820D020D05031FD0100D820D020D05031FC0100D820D0        
20B05033010200D820D020D020B020B05033000200D820D020D05031FF0100D8        
20D020B020B05033030200D820D020D020B020B05033020200D820D020D020B0        
00D820D020D020B020B05033050200D820D020D020B020B05033040200D820D0        
00D820D020D020B020B0209020905037070200D820D020D020B020B050330602        
089008700870502FEC0000D808D008D008B008B00890089008700870502FEB00        
ED0000D820D020D020B020B0209020905037080200D808D008D008B008B00890        
0890089008700870502FEE0000D808D008D008B008B00890089008700870502F        
00D808D008D008B008B00890089008700870502FEF0000D808D008D008B008B0        
08700870502FF00000D85020EF0000E420D020D020B020B02090209050370902        
08D008B008B00890089008700870502FF10000D808D008D008B008B008900890        
209050370A0200D808D008D008B008B00890089008700870502FF20000D808D0        
08D008D008B008B00890089008700870502FF30000D820D020D020B020B02090        
08700870502FF50000D808D008D008B008B00890089008700870502FF40000D8        
04D004B004B00490049004700470501F570000D808D008D008B008B008900890        
089008700870502FF60000D820D020D020B020B02090209050370B0200D804D0        
04D004D004B004B00490049004700470501F580000D808D008D008B008B00890        
2090209050370C0200D804D004D004B004B00490049004700470501F590000D8        
00D804D004D004B004B00490049004700470501F5A0000D820D020D020B020B0        
049004700470501F5B0000D808D008D008B008B00890089008700870502FF700        
5C0000D820D020D020B020B02090209050370D0200D804D004D004B004B00490        
0490049004700470501F5D0000D804D004D004B004B00490049004700470501F        
00D804D004D004B004B00490049004700470501F5E0000D804D004D004B004B0        
209020702070503F0E0200D808D008D008B008B00890089008700870502FF800        
04D004D004B004B00490049004700470501F5F0000D820D020D020B020B02090        
04700470501F610000D804D004D004B004B00490049004700470501F600000D8        
08D008B008B00890089008700870502FF90000D804D004D004B004B004900490        
0470501F620000D820D020D020B020B02090209020702070503F0F0200D808D0        
5010B10004CC5010300201CC50104E0104CC04D004D004B004B0049004900470        
100100D808D008D008B008B00890089008700870502FFA0000D85010EA0004CC        
110100D820D020D020B020B02090209020702070503F100200D800D100D15011        
5011140100D800D100D15011130100D800D100D15011120100D800D100D15011        
08B008B00890089008700870502FFB0000D800D100D15011150100D800D100D1        
503F110200D804D004D004B004B00490049004700470500F340000D808D008D0        
500F350000D800D100D15011160100D820D020D020B020B02090209020702070        
502FFC0000D800D100D15011170100D804D004D004B004B00490049004700470        
04B00490049004700470500F360000D808D008D008B008B00890089008700870        
120200E420D020D020B020B02090209020702070503F120200D804D004D004B0        
04B00490049004700470500F370000D800D100D100B100B15013180100D85030        
190100D808D008D008B008B00890089008700870502FFD0000D804D004D004B0        
04D004D004B004B00490049004700470500F380000D800D100D100B100B15013        
00B100B150131A0100D820D020D020B020B02090209020702070503F130200D8        
08D008D008B008B00890089008700870502FFE0000D85000380000E400D100D1        
00B100B150131B0100D804D004D004B004B00490049004700470500F390000D8        
503F140200D804D004D004B004B00490049004700470500F3A0000D800D100D1        
00D800D100D100B100B150131C0100D820D020D020B020B02090209020702070        
500F3B0000D850204E0104CC08D008D008B008B00890089008700870502FFF00        
20702070503F150200D85020300201CC04D004D004B004B00490049004700470        
00D100D100B100B150131D0100D85020B10004CC20D020D020B020B020902090        
1E0100D85020EA0004CC04D004D004B004B00490049004700470500F3C0000D8        
04D004D004B004B00490049004700470500F3D0000D800D100D100B100B15013        
00885008FF0100885008FE0100885008FD0100885008FC0100885008FB010088        
0502008850080402008850080302008850080202008850080102008850080002        
50080A0200885008090200885008080200885008070200885008060200885008        
008850080F02008850080E02008850080D02008850080C02008850080B020088        
1502008850081402008850081302008850081202008850081102008850081002        
50081A0200885008190200885008180200885008170200885008160200885008        
008850081F02008850081E02008850081D02008850081C02008850081B020088        
2502008850082402008850082302008850082202008850082102008850082002        
0000000000000000000000000000000000000000000000000000000000005008     EOP
000000000000000000000007000000000000000F004000400000250000004006 SOP    
0000000000000000000000000000A0030000000000000000000100010000000B     EOP
000000000000000000000008000000000000000F156015600000250000004006 SOP    
0000000000000000000000000000A0030000000000000000000000000000000B        
80708070507F740100D880D080D080B080B08090809080708070507F730100D8        
80D080B080B08090809080708070507F750100D880D080D080B080B080908090        
10905067D90100D880D080D080B080B08090809080708070507F760100D880D0        
770100D810D010D010B010B0109010905067DA0100D810D010D010B010B01090        
10B010B0109010905067DB0100D880D080D080B080B08090809080708070507F        
109010905067DD0100D810D010D010B010B0109010905067DC0100D810D010D0        
5067DF0100D810D010D010B010B0109010905067DE0100D810D010D010B010B0        
80D080B080B08090809080708070507F780100D810D010D010B010B010901090        
1070506FE10100D810D010D010B010B01090109010701070506FE00100D880D0        
10B010B01090109010701070506FE20100D810D010D010B010B0109010901070        
507F790100D810D010D010B010B01090109010701070506FE30100D810D010D0        
10B01090109010701070506FE40100D880D080D080B080B08090809080708070        
20D020B020B02090209020702070505F2F0000D85060E40100E410D010D010B0        
00D820D020D020B020B02090209020702070505F300000D850502F0000E420D0        
809080708070507F7A0100D810D010D010B010B01090109010701070506FE501        
20D020D020B020B02090209020702070505F310000D880D080D080B080B08090        
20702070505F330000D820D020D020B020B02090209020702070505F320000D8        
10D010B010B01090109010701070506FE60100D820D020D020B020B020902090        
2070505F340000D880D080D080B080B08090809080708070507F7B0100D810D0        
20B020B02090209020702070505F350000D820D020D020B020B0209020902070        
1090109010701070506FE70100D804D004D004B004B05043950000D820D020D0        
00D880D080D080B080B08090809080708070507F7C0100D810D010D010B010B0        
20B02090209020702070505F360000D804D004D004B004B00490049050479600        
2070505F370000D804D004D004B004B0049004905047970000D820D020D020B0        
04D004D004B004B0049004905047980000D820D020D020B020B0209020902070        
10701070506FE80100D880D080D080B080B08090809080708070507F7D0100D8        
00D804D004D004B004B0049004905047990000D810D010D010B010B010901090        
04B00490049050479A0000D820D020D020B020B02090209020702070505F3800        
E90100D880D080D080B080B08090809080708070507F7E0100D804D004D004B0        
04B004B00490049050479B0000D810D010D010B010B01090109010701070506F        
506FEA0100D820D020D020B020B02090209020702070505F390000D804D004D0        
80B08090809080708070507F7F0100D810D010D010B010B01090109010701070        
00D850707F0100E404D004D004B004B00490049050479C0000D880D080D080B0        
209020702070505F3B0000D820D020D020B020B02090209020702070505F3A00        
04D004D004B004B00490049004700470504F9D0000D820D020D020B020B02090        
80708070507F800100D810D010D010B010B01090109010701070506FEB0100D8        
04D004B004B00490049004700470504F9E0000D880D080D080B080B080908090        
1070506FEC0100D820D020D020B020B02090209020702070505F3C0000D804D0        
04B004B00490049004700470504F9F0000D810D010D010B010B0109010901070        
505F3D0000D880D080D080B080B08090809080708070507F810100D804D004D0        
04B00490049004700470504FA00000D820D020D020B020B02090209020702070        
3E0000D810D010D010B010B01090109010701070506FED0100D804D004D004B0        
0490049004700470504FA10000D820D020D020B020B02090209020702070505F        
00F880D080D080B080B08090809080708070507F820100D804D004D004B004B0        
04D004D004B004B00490049004700470504FA20000D85050B10004CC50503F00        
830100D85050EA0004CC10D010D010B010B01090109010701070506FEE0100D8        
00D85050510004CC5050300201CC80D080D080B080B08090809080708070507F        
009400740074505FA30000C804D004D004B004B00490049004700470504FA300        
10D010D010B010B01090109010701070506FEF0100D800D400D400B400B40094        
80708070507F840100D800D400D400B400B40094009400740074505FA40000D8        
008850113D01008850113C0100885040A30000E480D080D080B080B080908090        
4301008850114201008850114101008850114001008850113F01008850113E01        
5011480100885011470100885011460100885011450100885011440100885011        
0088501976010088501975010088501974010088501873010088501149010088        
7C01008850197B01008850197A01008850197901008850197801008850197701        
50198101008850198001008850197F01008850197E01008850197D0100885019        
0088501986010088501985010088501984010088501983010088501982010088        
8C01008850198B01008850198A01008850198901008850198801008850198701        
50199101008850199001008850198F01008850198E01008850198D0100885019        
0088501196010088501195010088501194010088501193010088501192010088        
9C01008850119B01008850119A01008850119901008850119801008850119701        
5010300201885011A101008850119F01008850119E01008850119D0100885011        
00885012A90000885012A80000885012A70000885012A6000088501051000488        
AF0000885012AE0000885012AD0000885012AC0000885012AB0000885012AA00        
5012B40000885012B30000885012B20000885012B10000885012B00000885012        
00885012B90000885012B80000885012B70000885012B60000885012B5000088        
BF0000885012BE0000885012BD0000885012BC0000885012BB0000885012BA00        
504FA40000D85012C30000885012C20000885012C10000885012C00000885012        
04B00490049004700470504FA50000D804D004D004B004B00490049004700470        
A70000D804D004D004B004B00490049004700470504FA60000D804D004D004B0        
0490049004700470504FA80000D804D004D004B004B00490049004700470504F        
00D804D004D004B004B00490049004700470504FA90000D804D004D004B004B0        
049004700470504FAB0000D804D004D004B004B00490049004700470504FAA00        
04D004D004B004B00490049004700470504FAC0000D804D004D004B004B00490        
80708070507F850100D804D004D004B004B00490049004700470504FAD0000D8        
80D080B080B08090809080708070507F860100D880D080D080B080B080908090        
8070507F870100D804D004D004B004B00490049004700470504FAE0000D880D0        
80B080B08090809080708070507F880100D880D080D080B080B0809080908070        
507F8A0100D880D080D080B080B08090809080708070507F890100D880D080D0        
04B00490049004700470504FAF0000D880D080D080B080B08090809080708070        
8C0100D880D080D080B080B08090809080708070507F8B0100D804D004D004B0        
8090809080708070507F8D0100D880D080D080B080B08090809080708070507F        
00D880D080D080B080B08090809080708070507F8E0100D880D080D080B080B0        
5070300201CC50708F0100F804D004D004B004B00490049004700470504FB000        
10D010B010B01090109010701070506FF00100D85070EF0004CC5070510004CC        
000000000000000010D010D010B010B01090109010701070506FF10100D810D0        
00885001F30000885001F20000885000EA0004885000B1000488500030020188        
F90000885001F80000885001F70000885001F60000885001F50000885001F400        
5001FE0000885001FD0000885001FC0000885001FB0000885001FA0000885001        
00885001030100885001020100885001010100885001000100885001FF000088        
0901008850010801008850010701008850010601008850010501008850010401        
50010E01008850010D01008850010C01008850010B01008850010A0100885001        
008850031301008850011201008850011101008850011001008850010F010088        
1901008850031801008850031701008850031601008850031501008850031401        
50021E01008850031D01008850031C01008850031B01008850031A0100885003        
170200D820D020D020B020B02090209020702070503F160200D850031F010088        
2090209020702070503F180200D820D020D020B020B02090209020702070503F        
00D820D020D020B020B02090209020702070503F190200D820D020D020B020B0        
209020702070503F1B0200D820D020D020B020B02090209020702070503F1A02        
20D020D020B020B02090209020702070503F1C0200D820D020D020B020B02090        
20702070503F1E0200D820D020D020B020B02090209020702070503F1D0200D8        
00B200B25023BB0100D800D200D25021BA0100C820D020D020B020B020902090        
00D200D200B200B25023BD0100D800D200D200B200B25023BC0100D800D200D2        
20B020B02090209020702070503F1F0200D800D200D200B200B25023BE0100D8        
00D200D200B200B25023C00100D800D200D200B200B25023BF0100D820D020D0        
C30100D800D200D200B200B25023C20100D800D200D200B200B25023C10100D8        
200200D800D200D200B200B2009200925027C40100D800D200D200B200B25023        
00B200B2009200925027C50100D820D020D020B020B02090209020702070503F        
009200925027C70100D800D200D200B200B2009200925027C60100D800D200D2        
5027C90100D800D200D200B200B2009200925027C80100D800D200D200B200B2        
20D020B020B02090209020702070503F210200D800D200D200B200B200920092        
00D100B100B1009100915017200100D800D100D100B100B150131F0100D820D0        
00B1009100915017210100D800D200D200B200B2009200925027CA0100D800D1        
2070503F220200D800D100D100B100B1009100915017220100D800D100D100B1        
00B2009200925027CB0100D85030300201EC20D020D020B020B0209020902070        
04CC00D100D100B100B1009100915017230100D85030B10004CC00D200D200B2        
250100D85030300201CC00D100D100B100B1009100915017240100D85030EA00        
00D100D100B100B1009100915017260100D800D100D100B100B1009100915017        
270100D800D200D200B200B20092009200720072502FCC0100D85030510004CC        
00B100B10091009100710071501F280100D800D100D100B100B1009100915017        
5031AB0000C800D100D100B100B10091009100710071501F290100D800D100D1        
5031AC0000D800D200D200B200B20092009200720072502FCD0100D800D800D8        
501F2B0100D800D100D100B100B10091009100710071501F2A0100D800D800D8        
50102B0100E400D800D85031AD0000D800D100D100B100B10091009100710071        
00D800D85031AE0000D800D100D100B100B10091009100710071501F2C0100D8        
00710071501F2D0100D800D200D200B200B20092009200720072502FCE0100D8        
00710071501F2E0100D800D800D85031AF0000D800D100D100B100B100910091        
00D100B100B10091009100710071501F2F0100D800D100D100B100B100910091        
00D200B200B20092009200720072502FCF0100D800D800D85031B00000D800D1        
00D100B100B10091009100710071501F300100D800D800D85031B10000D800D2        
00D85031B20000D800D100D100B100B10091009100710071501F310100D800D1        
0072502FD00100D804D004D004B004B00490049004700470500F3E0000D800D8        
00D800B800B85033B30000D85020D00100E400D200D200B200B2009200920072        
0470500F3F0000D800D100D100B100B10091009100710071501F320100D800D8        
04B004B00490049004700470500F400000D804D004D004B004B0049004900470        
0092009200720072502FD10100D800D800D800B800B85033B40000D804D004D0        
00D804D004D004B004B00490049004700470500F410000D800D200D200B200B2        
00D100B100B10091009100710071501F330100D800D800D800B800B85033B500        
00B85033B60000D804D004D004B004B00490049004700470500F420000D800D1        
340100D800D200D200B200B20092009200720072502FD20100D800D800D800B8        
0490049004700470500F430000D800D100D100B100B10091009100710071501F        
04700470500F440000D800D800D800B800B85033B70000D804D004D004B004B0        
00D200B200B20092009200720072502FD30100D804D004D004B004B004900490        
00B10091009100710071501F350100D800D800D800B800B85033B80000D800D2        
460000D804D004D004B004B00490049004700470500F450000D800D100D100B1        
00D800D800B800B85033B90000D804D004D004B004B00490049004700470500F        
00710071501F360100D800D200D200B200B20092009200720072502FD40100D8        
500F470000D800D800D800B800B85033BA0000D800D100D100B100B100910091        
2201008850022101008850022001008804D004D004B004B00490049004700470        
5002270100885002260100885002250100885002240100885002230100885002        
008850022C01008850022B01008850022A010088500229010088500228010088        
3201008850023101008850023001008850022F01008850022E01008850022D01        
5002370100885002360100885002350100885002340100885002330100885002        
008850023C01008850023B01008850023A010088500239010088500238010088        
C10100885004C00100885004BF0100885004BE0100885004BD01008850023D01        
5004C60100885004C50100885004C40100885004C30100885004C20100885004        
00885004CB0100885004CA0100885004C90100885004C80100885004C7010088        
D10100885004D00100885004CF0100885004CE0100885004CD0100885004CC01        
5004D60100885004D50100885004D40100885004D30100885004D20100885004        
00885004DB0100885004DA0100885004D90100885004D80100885004D7010088        
E10100885004E00100885004DF0100885004DE0100885004DD0100885004DC01        
5008AE0000885000510004885000300201885004E30100885004E20100885004        
00885008B30000885008B20000885008B10000885008B00000885008AF000088        
B90000885008B80000885008B70000885008B60000885008B50000885008B400        
5008BE0000885008BD0000885008BC0000885008BB0000885008BA0000885008        
00885008C30000885008C20000885008C10000885008C00000885008BF000088        
00985037BC0000D800D800D800B800B85033BB0000D85008C50000885008C400        
BE0000D800D800D800B800B8009800985037BD0000D800D800D800B800B80098        
00000000000000000000000000000000000000D800D800B800B8009800985037     EOP
000000000000000000000008000000000000000F004000400000250000004006 SOP    
0000000000000000000000000000A0030000000000000000000100010000000B     EOP
000000000000000000000009000000000000000F154015400000250000004006 SOP    
0000000000000000000000000000A0030000000000000000000000000000000B        
04700470504FB10000D810D010D010B010B01090109010701070506FF20100D8        
01D001B001B00190019001700170507FED0100C804D004D004B004B004900490        
1070506FF40100D810D010D010B010B01090109010701070506FF30100D801D0        
049004700470504FB20000D85060300201CC10D010D010B010B0109010901070        
01D001D001B001B00190019001700170507FEE0100D804D004D004B004B00490        
00D85060EF0004CC5060510004CC5060300201CC5060EA0004CC5060B10004CC        
0490049004700470504FB30000D801D001D050619B0100D801D001D050619A01        
00D801D001D001B001B00190019001700170507FEF0100D804D004D004B004B0        
9F0100D801D001D050619E0100D801D001D050619D0100D801D001D050619C01        
5040B40000F801D001D05061A10100D801D001D05061A00100D801D001D05061        
01D001D001B001B00190019001700170507FF00100D801D001D05061A20100D8        
01B05063A50100D801D001D001B001B05063A40100D801D001D05061A30100D8        
01D001B001B05063A70100D801D001D001B001B05063A60100D801D001D001B0        
01700170507FF10100D801D001D001B001B05063A80100D850404E0104CC01D0        
5063AA0100D801D001D001B001B05063A90100D801D001D001B001B001900190        
00740074505FA50000D801D001D001B001B05063AB0100D801D001D001B001B0        
01D001D001B001B05063AC0100D85040300201CC00D400D400B400B400940094        
00740074505FA60000D801D001D001B001B00190019001700170507FF20100D8        
00D400B400B40094009400740074505FA70000D800D400D400B400B400940094        
00D85040B10004CC00D400D400B400B40094009400740074505FA80000D800D4        
01B00190019001700170507FF30100D801D001D001B001B0019001905067AD01        
AE0100D800D400D400B400B40094009400740074505FA90000D801D001D001B0        
00B400B40094009400740074505FAA0000D801D001D001B001B0019001905067        
00D400D400B400B40094009400740074505FAB0000D85040EA0004CC00D400D4        
019001905067AF0100D801D001D001B001B00190019001700170507FF40100D8        
00D800D400D400B400B40094009400740074505FAC0000D801D001D001B001B0        
809080708070504E300100C800D400D400B400B40094009400740074505FAD00        
B00100D801D001D001B001B00190019001700170507FF50100D880B080B08090        
00B400B40094009400740074505EAE0000D801D001D001B001B0019001905067        
0094009400740074505EB00000D800B400B40094009400740074505EAF0000D8        
01700170507FF60100D880B080B08090809080708070504E310100D800B400B4        
00D801D001D001B001B0019001905067B10100D801D001D001B001B001900190        
00B40094009400740074505EB20000D800B400B40094009400740074505EB100        
809080708070504E320100D801D001D001B001B0019001905067B20100D800B4        
00885010EF0004885012C60000885012C50000885012C400008880B080B08090        
A20100885014A10100885014A001008850149F01008850149E01008850149D01        
5014A70100885014A60100885014A50100885014A40100885014A30100885014        
00885014AC0100885014AB0100885014AA0100885014A90100885014A8010088        
B20100885014B10100885014B00100885014AF0100885014AE0100885014AD01        
5014B70100885014B60100885014B50100885014B40100885014B30100885014        
00885014BC0100885014BB0100885014BA0100885014B90100885014B8010088        
C20100885014C10100885014C00100885014BF0100885014BE0100885014BD01        
5014C70100885014C60100885014C50100885014C40100885014C30100885014        
00885018F10100885018F00100885014CA0100885014C90100885014C8010088        
F70100885018F60100885018F50100885018F40100885018F30100885018F201        
5018FC0100885018FB0100885018FA0100885018F90100885018F80100885018        
00885018010200885018000200885018FF0100885018FE0100885018FD010088        
0702008850180602008850180502008850180402008850180302008850180202        
50180C02008850180B02008850180A0200885018090200885018080200885018        
00885012AD00008850104100048850103002018850180E02008850180D020088        
D90000885012D80000885012B10000885012B00000885012AF0000885012AE00        
80B080B08090809080708070504E330100D85012DB0000885012DA0000885012        
8090809080708070504E350100D880B080B08090809080708070504E340100D8        
80708070504C370100D880B080B08090809080708070504E360100D880B080B0        
8090809080708070504C390100D88090809080708070504C380100D880908090        
3C0100D88090809080708070504C3B0100D88090809080708070504C3A0100D8        
8070504C3E0100D88090809080708070504C3D0100D88090809080708070504C        
01B00190019001700170507FF70100D88070807050483F0100D8809080908070        
01B00190019001700170507FF80100D8807080705048400100D801D001D001B0        
410100D801D001D001B001B00190019001700170507FF90100D801D001D001B0        
FB0100D801D001D001B001B00190019001700170507FFA0100D8807080705048        
0190019001700170507FFC0100D801D001D001B001B00190019001700170507F        
0170507FFD0100D85070FC0100E4807080705048420100D801D001D001B001B0        
01B001B00190019001700170507FFE0100D801D001D001B001B0019001900170        
01B001B00190019001700170507FFF0100D8807080705048430100D801D001D0        
507F010200D801D001D001B001B00190019001700170507F000200D801D001D0        
507E020200D8807080705048440100D801D001D001B001B00190019001700170        
00D801D001D001B001B0019001905067B30100D801B001B00190019001700170        
507E030200D8807080705048450100D801D001D001B001B0019001905067B401        
00D801D001D001B001B0019001905067B50100D801B001B00190019001700170        
00D8807080705048460100D801D001D001B001B00190019001700170506FB601        
019001700170507E040200D801D001D001B001B00190019001700170506FB701        
01700170506FB80100D800D100D15041710100D85060B70100E401B001B00190        
01D001B001B00190019001700170506FB90100D801D001D001B001B001900190        
00D800D100D15041720100D801B001B00190019001700170507E050200D801D0        
019001700170506FBB0100D801D001D001B001B00190019001700170506FBA01        
01D001D001B001B00190019001700170506FBC0100D801D001D001B001B00190        
BD0100D801B001B00190019001700170507E060200D800D100D15041730100D8        
BE0100D800D100D15041740100D801D001D001B001B00190019001700170506F        
0190019001700170507E070200D801D001D001B001B00190019001700170506F        
01B001B00190019001700170506FBF0100D800D100D15041750100D801B001B0        
5041760100D801D001D001B001B00190019001700170506FC00100D801D001D0        
01700170506FC10100D801B001B00190019001700170507E080200D800D100D1        
01700170506FC20100D800D100D15041770100D801D001D001B001B001900190        
000000000000000000000000000000000000000001D001D001B001B001900190        
00B800B8009800985037C00000D800D800D800B800B8009800985037BF0000D8        
009800985037C20000D800D800D800B800B8009800985037C10000D800D800D8        
503FC40000D800D800D800B800B8009800985037C30000D800D800D800B800B8        
00B20092009200720072502FD50100D800D800D800B800B80098009800780078        
480000F800D200D200B200B20092009200720072502FD60100D800D200D200B2        
0072502FD70100D800D800D800B800B80098009800780078503FC50000D85000        
00B200B20092009200720072502FD80100D800D200D200B200B2009200920072        
00D200D200B200B20092009200720072502FD90100D850004E0104CC00D200D2        
C60000E45000300201CC00D800D800B800B80098009800780078503FC60000D8        
0072502FDB0100D800D200D200B200B20092009200720072502FDA0100D85030        
00B200B20092009200720072502FDC0100D800D200D200B200B2009200920072        
00D200D200B200B20092009200720072502FDD0100D85000B10004CC00D200D2        
DE0100D85000EA0004C800D800D800B800B80098009800780078503FC70000D8        
0092009200720072502FDF0100D800D200D200B200B20092009200720072502F        
00D800D200D200B200B20092009200720072502FE00100D800D200D200B200B2        
01CC00D800D800B800B80098009800780078503FC80000D800D100D15001EF00        
00D100D15001F00000D85020300201CC5020EF0004CC5020510004CC50203002        
00710071501F380100D800D100D100B100B10091009100710071501F370100D8        
00D100B100B10091009100710071501F390100D800D100D100B100B100910091        
00D800B800B80098009800780078503FC90000D800D100D15001F10000D800D1        
00D800D100D100B100B10091009100710071501F3A0100D85020410004C800D8        
009800780078503FCA0000D85010300201CC50103B0100F800D100D15001F200        
00D100D15001F30000D85010EF0004CC5010510004CC00D800D800B800B80098        
00D804D004D05011E80100D804D004D05011E70100D804D004D05011E60100D8        
CB0000D804D004D05011EA0100D804D004D05011E90100D808D008D050215E00        
5F0000D800D100D15001F40000D800D800D800B800B80098009800780078503F        
5021600000D804D004D05011EC0100D804D004D05011EB0100D808D008D05021        
00D15001F50000D804D004D05011EE0100D804D004D05011ED0100D808D008D0        
08D05021610000D800D800D800B800B80098009800780078503FCC0000D800D1        
04B004B05013F00100D808D008D05021620000D804D004D05011EF0100D808D0        
630000D800D100D15001F60000D804D004D004B004B05013F10100D804D004D0        
F20100D800D800D800B800B80098009800780078503FCD0000D808D008D05021        
04D004B004B05013F30100D808D008D05021640000D804D004D004B004B05013        
5021650000D804D004D004B004B05013F40100D800D100D15001F70000D804D0        
0098009800780078503FCE0000D804D004D004B004B05013F50100D808D008D0        
00D100D100B100B15003F80000D808D008D05021660000D800D800D800B800B8        
04B05013F70100D808D008D05021670000D804D004D004B004B05013F60100D8        
009800780078503FCF0000D804D004D004B004B05013F80100D804D004D004B0        
08B05023680000D800D100D100B100B15003F90000D800D800D800B800B80098        
04B0049004905017FA0100D804D004D004B004B05013F90100D808D008D008B0        
00B15003FA0000D804D004D004B004B0049004905017FB0100D804D004D004B0        
690000D800D800D800B800B80098009800780078503FD00000D800D100D100B1        
04905017FC0100D808D008D008B008B050236A0000D808D008D008B008B05023        
FB0000D804D004D004B004B0049004905017FD0100D804D004D004B004B00490        
00D800D800B800B80098009800780078503FD10000D800D100D100B100B15003        
04D004D004B004B0049004905017FE0100D808D008D008B008B050236B0000D8        
FF0100D808D008D008B008B050236C0000D800D100D100B100B15003FC0000D8        
00B800B80098009800780078503FD20000D804D004D004B004B0049004905017        
00885008C70000885008C600008800D100D100B100B15003FD0000D800D800D8        
CD0000885008CC0000885008CB0000885008CA0000885008C90000885008C800        
5008D20000885008D10000885008D00000885008CF0000885008CE0000885008        
00885008D70000885008D60000885008D50000885008D40000885008D3000088        
C50100885001C40100885001C30100885000EF0004885008D90000885008D800        
5001CA0100885001C90100885001C80100885001C70100885001C60100885001        
00885001CF0100885001CE0100885001CD0100885001CC0100885001CB010088        
D50100885001D40100885001D30100885001D20100885001D10100885001D001        
5001DA0100885001D90100885001D80100885001D70100885001D60100885001        
00885001DF0100885001DE0100885001DD0100885001DC0100885001DB010088        
E50100885001E40100885001E30100885001E20100885001E10100885001E001        
5003EA0100885003E90100885001E80100885001E70100885001E60100885001        
00885003EF0100885003EE0100885003ED0100885003EC0100885003EB010088        
F50100885002F40100885002F30100885002F20100885002F10100885003F001        
5002FA0100885002F90100885002F80100885002F70100885002F60100885002        
00885002FF0100885002FE0100885002FD0100885002FC0100885002FB010088        
0502008850020402008850020302008850020202008850020102008850020002        
50020A0200885002090200885002080200885002070200885002060200885002        
000100D800D100D100B100B15003FF0000D800D100D100B100B15003FE0000D8        
00D100D100B100B1009100915007010100D800D100D100B100B1009100915007        
00B100B1009100915007030100D800D100D100B100B1009100915007020100D8        
009100915007050100D800D100D100B100B1009100915007040100D800D100D1        
00D800D800D800B800B80098009800780078503FD30000D800D100D100B100B1        
009800780078503FD50000D800D800D800B800B80098009800780078503FD400        
D60000D800D100D100B100B1009100915007060100D800D800D800B800B80098        
04CC5030300201CC5030EF0004EC00D800D800B800B80098009800780078503F        
20D050318E0100D820D020D050318D0100D820D020D050318C0100D850304100        
00D820D020D050318F0100D800D100D100B100B1009100915007070100D820D0        
930100D820D020D05031920100D820D020D05031910100D820D020D050319001        
08D008B008B050236E0000D808D008D008B008B050236D0000D820D020D05031        
20D05031940100D800D100D100B100B10091009100710071500F080100D808D0        
5023700000D808D008D008B008B050236F0000D820D020D05031950100D820D0        
20D020D05031960100D808D008D008B008B05023710000D808D008D008B008B0        
0091009100710071500F090100D808D008D008B008B0089008905027720000D8        
00000000000008D008D008B008B0089008905027730000D800D100D100B100B1     EOP
000000000000000000000009000000000000000F004000400000250000004006 SOP    
0000000000000000000000000000A0030000000000000000000100010000000B     EOP
00000000000000000000000A000000000000000F156015600000250000004006 SOP    
0000000000000000000000000000A0030000000000000000000000000000000B        
01D001D001B001B00190019001700170506FC30100D800D100D15041780100D8        
B30000D800D100D15041790100D801B001B00190019001700170507E090200D8        
009400740074505EB40000D85050B30000E400B400B40094009400740074505E        
019001700170507E0A0200D800D100D100B100B150437A0100D800B400B40094        
019001700170506FC40100D800D100D100B100B150437B0100D801B001B00190        
7C0100D800B400B40094009400740074505EB50000D801D001D001B001B00190        
0C0200F801B001B00190019001700170507E0B0200D800D100D100B100B15043        
01700170506FC50100D85070300201CC00D100D100B100B150437D0100D85070        
5070410004CC00D100D100B100B150437E0100D801D001D001B001B001900190        
7F0100D801D001D001B001B00190019001700170506FC60100D85070C20104CC        
00B40094009400740074505EB60000D85070300201CC00D100D100B100B15043        
